{
  "contracts/Staking.sol": {
    "StrikeStaking": {
      "abi": [
        {
          "inputs": [
            {
              "internalType": "address",
              "name": "_Strike",
              "type": "address"
            },
            {
              "internalType": "address",
              "name": "_sStrike",
              "type": "address"
            },
            {
              "internalType": "uint32",
              "name": "_epochLength",
              "type": "uint32"
            },
            {
              "internalType": "uint256",
              "name": "_firstEpochNumber",
              "type": "uint256"
            },
            {
              "internalType": "uint32",
              "name": "_firstEpochTime",
              "type": "uint32"
            }
          ],
          "stateMutability": "nonpayable",
          "type": "constructor"
        },
        {
          "anonymous": false,
          "inputs": [
            {
              "indexed": true,
              "internalType": "address",
              "name": "previousOwner",
              "type": "address"
            },
            {
              "indexed": true,
              "internalType": "address",
              "name": "newOwner",
              "type": "address"
            }
          ],
          "name": "OwnershipPulled",
          "type": "event"
        },
        {
          "anonymous": false,
          "inputs": [
            {
              "indexed": true,
              "internalType": "address",
              "name": "previousOwner",
              "type": "address"
            },
            {
              "indexed": true,
              "internalType": "address",
              "name": "newOwner",
              "type": "address"
            }
          ],
          "name": "OwnershipPushed",
          "type": "event"
        },
        {
          "inputs": [],
          "name": "Strike",
          "outputs": [
            {
              "internalType": "address",
              "name": "",
              "type": "address"
            }
          ],
          "stateMutability": "view",
          "type": "function"
        },
        {
          "inputs": [
            {
              "internalType": "address",
              "name": "_recipient",
              "type": "address"
            }
          ],
          "name": "claim",
          "outputs": [],
          "stateMutability": "nonpayable",
          "type": "function"
        },
        {
          "inputs": [],
          "name": "contractBalance",
          "outputs": [
            {
              "internalType": "uint256",
              "name": "",
              "type": "uint256"
            }
          ],
          "stateMutability": "view",
          "type": "function"
        },
        {
          "inputs": [],
          "name": "distributor",
          "outputs": [
            {
              "internalType": "address",
              "name": "",
              "type": "address"
            }
          ],
          "stateMutability": "view",
          "type": "function"
        },
        {
          "inputs": [],
          "name": "epoch",
          "outputs": [
            {
              "internalType": "uint256",
              "name": "number",
              "type": "uint256"
            },
            {
              "internalType": "uint256",
              "name": "distribute",
              "type": "uint256"
            },
            {
              "internalType": "uint32",
              "name": "length",
              "type": "uint32"
            },
            {
              "internalType": "uint32",
              "name": "endTime",
              "type": "uint32"
            }
          ],
          "stateMutability": "view",
          "type": "function"
        },
        {
          "inputs": [],
          "name": "forfeit",
          "outputs": [],
          "stateMutability": "nonpayable",
          "type": "function"
        },
        {
          "inputs": [
            {
              "internalType": "uint256",
              "name": "_amount",
              "type": "uint256"
            }
          ],
          "name": "giveLockBonus",
          "outputs": [],
          "stateMutability": "nonpayable",
          "type": "function"
        },
        {
          "inputs": [],
          "name": "index",
          "outputs": [
            {
              "internalType": "uint256",
              "name": "",
              "type": "uint256"
            }
          ],
          "stateMutability": "view",
          "type": "function"
        },
        {
          "inputs": [],
          "name": "locker",
          "outputs": [
            {
              "internalType": "address",
              "name": "",
              "type": "address"
            }
          ],
          "stateMutability": "view",
          "type": "function"
        },
        {
          "inputs": [],
          "name": "manager",
          "outputs": [
            {
              "internalType": "address",
              "name": "",
              "type": "address"
            }
          ],
          "stateMutability": "view",
          "type": "function"
        },
        {
          "inputs": [],
          "name": "pullManagement",
          "outputs": [],
          "stateMutability": "nonpayable",
          "type": "function"
        },
        {
          "inputs": [
            {
              "internalType": "address",
              "name": "newOwner_",
              "type": "address"
            }
          ],
          "name": "pushManagement",
          "outputs": [],
          "stateMutability": "nonpayable",
          "type": "function"
        },
        {
          "inputs": [],
          "name": "rebase",
          "outputs": [],
          "stateMutability": "nonpayable",
          "type": "function"
        },
        {
          "inputs": [],
          "name": "renounceManagement",
          "outputs": [],
          "stateMutability": "nonpayable",
          "type": "function"
        },
        {
          "inputs": [
            {
              "internalType": "uint256",
              "name": "_amount",
              "type": "uint256"
            }
          ],
          "name": "returnLockBonus",
          "outputs": [],
          "stateMutability": "nonpayable",
          "type": "function"
        },
        {
          "inputs": [],
          "name": "sStrike",
          "outputs": [
            {
              "internalType": "address",
              "name": "",
              "type": "address"
            }
          ],
          "stateMutability": "view",
          "type": "function"
        },
        {
          "inputs": [
            {
              "internalType": "enum StrikeStaking.CONTRACTS",
              "name": "_contract",
              "type": "uint8"
            },
            {
              "internalType": "address",
              "name": "_address",
              "type": "address"
            }
          ],
          "name": "setContract",
          "outputs": [],
          "stateMutability": "nonpayable",
          "type": "function"
        },
        {
          "inputs": [
            {
              "internalType": "uint256",
              "name": "_warmupPeriod",
              "type": "uint256"
            }
          ],
          "name": "setWarmup",
          "outputs": [],
          "stateMutability": "nonpayable",
          "type": "function"
        },
        {
          "inputs": [
            {
              "internalType": "uint256",
              "name": "_amount",
              "type": "uint256"
            },
            {
              "internalType": "address",
              "name": "_recipient",
              "type": "address"
            }
          ],
          "name": "stake",
          "outputs": [
            {
              "internalType": "bool",
              "name": "",
              "type": "bool"
            }
          ],
          "stateMutability": "nonpayable",
          "type": "function"
        },
        {
          "inputs": [],
          "name": "toggleDepositLock",
          "outputs": [],
          "stateMutability": "nonpayable",
          "type": "function"
        },
        {
          "inputs": [],
          "name": "totalBonus",
          "outputs": [
            {
              "internalType": "uint256",
              "name": "",
              "type": "uint256"
            }
          ],
          "stateMutability": "view",
          "type": "function"
        },
        {
          "inputs": [
            {
              "internalType": "uint256",
              "name": "_amount",
              "type": "uint256"
            },
            {
              "internalType": "bool",
              "name": "_trigger",
              "type": "bool"
            }
          ],
          "name": "unstake",
          "outputs": [],
          "stateMutability": "nonpayable",
          "type": "function"
        },
        {
          "inputs": [],
          "name": "warmupContract",
          "outputs": [
            {
              "internalType": "address",
              "name": "",
              "type": "address"
            }
          ],
          "stateMutability": "view",
          "type": "function"
        },
        {
          "inputs": [
            {
              "internalType": "address",
              "name": "",
              "type": "address"
            }
          ],
          "name": "warmupInfo",
          "outputs": [
            {
              "internalType": "uint256",
              "name": "deposit",
              "type": "uint256"
            },
            {
              "internalType": "uint256",
              "name": "gons",
              "type": "uint256"
            },
            {
              "internalType": "uint256",
              "name": "expiry",
              "type": "uint256"
            },
            {
              "internalType": "bool",
              "name": "lock",
              "type": "bool"
            }
          ],
          "stateMutability": "view",
          "type": "function"
        },
        {
          "inputs": [],
          "name": "warmupPeriod",
          "outputs": [
            {
              "internalType": "uint256",
              "name": "",
              "type": "uint256"
            }
          ],
          "stateMutability": "view",
          "type": "function"
        }
      ],
      "evm": {
        "bytecode": {
          "linkReferences": {},
          "object": "60c060405234801561001057600080fd5b50604051611ac4380380611ac4833981810160405260a081101561003357600080fd5b50805160208201516040808401516060850151608090950151600080546001600160a01b031916331780825593519596949592949391926001600160a01b0392909216917fea8258f2d9ddb679928cf34b78cf645b7feda9acc828e4dd82d014eaae270eba908290a36001600160a01b0385166100af57600080fd5b6001600160601b0319606086901b166080526001600160a01b0384166100d457600080fd5b6001600160601b0319606094851b1660a0526040805160808101825283815260006020820181905263ffffffff95861692820183905292909416939094018390526002919091556003556004805464010000000090920263ffffffff60201b1963ffffffff19909316909317919091169190911790555060805160601c60a05160601c61190a6101ba6000398061041152806105ac528061068d52806109f25280610afe5280610dd85280610e565280610fe652806110f152806111d152806113195250806108fc5280610b335280610cd95280610e0d52806112b8525061190a6000f3fe608060405234801561001057600080fd5b50600436106101735760003560e01c80638f077b83116100de578063c9f464ff11610097578063deac361a11610071578063deac361a146103a4578063ed4acaa8146103ac578063f3d86e4a146103b4578063f62ae76a146103bc57610173565b8063c9f464ff14610377578063cf648e2614610394578063d7b96d4e1461039c57610173565b80638f077b83146102fe578063900cf0cf146103065780639ebea88c1461033a578063a8dd07dc1461035f578063af14052c14610367578063bfe109281461036f57610173565b80635a96ac0a116101305780635a96ac0a146102295780636746f4c2146102315780637acb77571461027f57806381531c64146102bf578063865e6fd3146102c75780638b7afe2e146102f657610173565b806303c2367014610178578063089208d8146101975780631e83409a1461019f5780632986c0e5146101c557806346f68ee9146101df578063481c6a7514610205575b600080fd5b6101956004803603602081101561018e57600080fd5b50356103d9565b005b61019561043d565b610195600480360360208110156101b557600080fd5b50356001600160a01b03166104d4565b6101cd610689565b60408051918252519081900360200190f35b610195600480360360208110156101f557600080fd5b50356001600160a01b0316610715565b61020d610802565b604080516001600160a01b039092168252519081900360200190f35b610195610811565b6102576004803603602081101561024757600080fd5b50356001600160a01b03166108bb565b6040805194855260208501939093528383019190915215156060830152519081900360800190f35b6102ab6004803603604081101561029557600080fd5b50803590602001356001600160a01b03166108e5565b604080519115158252519081900360200190f35b61020d610b31565b610195600480360360408110156102dd57600080fd5b50803560ff1690602001356001600160a01b0316610b55565b6101cd610ccf565b610195610d7b565b61030e610d9f565b60408051948552602085019390935263ffffffff91821684840152166060830152519081900360800190f35b6101956004803603604081101561035057600080fd5b50803590602001351515610dbd565b6101cd610e34565b610195610e3a565b61020d61108e565b6101956004803603602081101561038d57600080fd5b503561109d565b61020d6110ef565b61020d611113565b6101cd611122565b61020d611128565b610195611137565b610195600480360360208110156103d257600080fd5b50356112e1565b6006546001600160a01b031633146103f057600080fd5b6007546103fd9082611343565b60075560065461043a906001600160a01b037f000000000000000000000000000000000000000000000000000000000000000081169116836113a4565b50565b6000546001600160a01b0316331461048a576040805162461bcd60e51b8152602060048201819052602482015260008051602061188b833981519152604482015290519081900360640190fd5b600080546040516001600160a01b03909116907fea8258f2d9ddb679928cf34b78cf645b7feda9acc828e4dd82d014eaae270eba908390a3600080546001600160a01b0319169055565b6104dc6117d2565b506001600160a01b0381166000908152600a602090815260409182902082516080810184528154815260018201549281019290925260028082015493830184905260039091015460ff1615156060830152549091118015906105415750604081015115155b15610685576001600160a01b038083166000908152600a602090815260408083208381556001810184905560028101939093556003909201805460ff19169055600854848201518351637965d56d60e01b8152600481019190915292519084169363c3a2a6659387937f000000000000000000000000000000000000000000000000000000000000000090921692637965d56d92602480840193919291829003018186803b1580156105f257600080fd5b505afa158015610606573d6000803e3d6000fd5b505050506040513d602081101561061c57600080fd5b5051604080516001600160e01b031960e086901b1681526001600160a01b039093166004840152602483019190915251604480830192600092919082900301818387803b15801561066c57600080fd5b505af1158015610680573d6000803e3d6000fd5b505050505b5050565b60007f00000000000000000000000000000000000000000000000000000000000000006001600160a01b0316632986c0e56040518163ffffffff1660e01b815260040160206040518083038186803b1580156106e457600080fd5b505afa1580156106f8573d6000803e3d6000fd5b505050506040513d602081101561070e57600080fd5b5051905090565b6000546001600160a01b03163314610762576040805162461bcd60e51b8152602060048201819052602482015260008051602061188b833981519152604482015290519081900360640190fd5b6001600160a01b0381166107a75760405162461bcd60e51b81526004018080602001828103825260268152602001806118206026913960400191505060405180910390fd5b600080546040516001600160a01b03808516939216917fea8258f2d9ddb679928cf34b78cf645b7feda9acc828e4dd82d014eaae270eba91a3600180546001600160a01b0319166001600160a01b0392909216919091179055565b6000546001600160a01b031690565b6001546001600160a01b0316331461085a5760405162461bcd60e51b81526004018080602001828103825260228152602001806118696022913960400191505060405180910390fd5b600154600080546040516001600160a01b0393841693909116917faa151555690c956fc3ea32f106bb9f119b5237a061eaa8557cff3e51e3792c8d91a3600154600080546001600160a01b0319166001600160a01b03909216919091179055565b600a6020526000908152604090208054600182015460028301546003909301549192909160ff1684565b60006108ef610e3a565b6109246001600160a01b037f0000000000000000000000000000000000000000000000000000000000000000163330866113fb565b61092c6117d2565b506001600160a01b0382166000908152600a602090815260409182902082516080810184528154815260018201549281019290925260028101549282019290925260039091015460ff1615801560608301526109cf576040805162461bcd60e51b815260206004820152601f60248201527f4465706f7369747320666f72206163636f756e7420617265206c6f636b656400604482015290519081900360640190fd5b6040805160808101909152815181906109e89087611343565b8152602001610a8b7f00000000000000000000000000000000000000000000000000000000000000006001600160a01b0316631bd39674886040518263ffffffff1660e01b81526004018082815260200191505060206040518083038186803b158015610a5457600080fd5b505afa158015610a68573d6000803e3d6000fd5b505050506040513d6020811015610a7e57600080fd5b5051602085015190611343565b8152600954600254602090920191610aa291611343565b8152600060209182018190526001600160a01b038681168252600a8352604091829020845181559284015160018401559083015160028301556060909201516003909101805460ff1916911515919091179055600854610b27917f000000000000000000000000000000000000000000000000000000000000000081169116866113a4565b5060019392505050565b7f000000000000000000000000000000000000000000000000000000000000000081565b6000546001600160a01b03163314610ba2576040805162461bcd60e51b8152602060048201819052602482015260008051602061188b833981519152604482015290519081900360640190fd5b6000826002811115610bb057fe5b1415610bd657600580546001600160a01b0319166001600160a01b038316179055610685565b6001826002811115610be457fe5b1415610c52576008546001600160a01b031615610c325760405162461bcd60e51b81526004018080602001828103825260238152602001806118466023913960400191505060405180910390fd5b600880546001600160a01b0319166001600160a01b038316179055610685565b6002826002811115610c6057fe5b1415610685576006546001600160a01b031615610cae5760405162461bcd60e51b81526004018080602001828103825260238152602001806117fd6023913960400191505060405180910390fd5b600680546001600160a01b0383166001600160a01b03199091161790555050565b6000610d766007547f00000000000000000000000000000000000000000000000000000000000000006001600160a01b03166370a08231306040518263ffffffff1660e01b815260040180826001600160a01b0316815260200191505060206040518083038186803b158015610d4457600080fd5b505afa158015610d58573d6000803e3d6000fd5b505050506040513d6020811015610d6e57600080fd5b505190611343565b905090565b336000908152600a60205260409020600301805460ff19811660ff90911615179055565b60025460035460045463ffffffff8082169164010000000090041684565b8015610dcb57610dcb610e3a565b610e006001600160a01b037f0000000000000000000000000000000000000000000000000000000000000000163330856113fb565b6106856001600160a01b037f00000000000000000000000000000000000000000000000000000000000000001633846113a4565b60075481565b60045463ffffffff428116640100000000909204161161108c577f00000000000000000000000000000000000000000000000000000000000000006001600160a01b031663058ecdb46002600101546002600001546040518363ffffffff1660e01b81526004018083815260200182815260200192505050602060405180830381600087803b158015610ecc57600080fd5b505af1158015610ee0573d6000803e3d6000fd5b505050506040513d6020811015610ef657600080fd5b5050600454610f189063ffffffff640100000000820481169181169061145b16565b6004805463ffffffff929092166401000000000267ffffffff00000000199092169190911790556002805460010190556005546001600160a01b031615610fd657600560009054906101000a90046001600160a01b03166001600160a01b031663e4fc6b6d6040518163ffffffff1660e01b8152600401602060405180830381600087803b158015610fa957600080fd5b505af1158015610fbd573d6000803e3d6000fd5b505050506040513d6020811015610fd357600080fd5b50505b6000610fe0610ccf565b905060007f00000000000000000000000000000000000000000000000000000000000000006001600160a01b0316639358928b6040518163ffffffff1660e01b815260040160206040518083038186803b15801561103d57600080fd5b505afa158015611051573d6000803e3d6000fd5b505050506040513d602081101561106757600080fd5b5051905080821161107c576000600355610685565b61108682826114be565b60035550505b565b6005546001600160a01b031681565b6000546001600160a01b031633146110ea576040805162461bcd60e51b8152602060048201819052602482015260008051602061188b833981519152604482015290519081900360640190fd5b600955565b7f000000000000000000000000000000000000000000000000000000000000000081565b6006546001600160a01b031681565b60095481565b6008546001600160a01b031681565b61113f6117d2565b50336000818152600a602081815260408084208151608081018352815481526001820180548286019081526002840180548487015260038501805460ff8116151560608701529a8a5297875293889055908790559590915560ff1990951690925560085492518251637965d56d60e01b8152600481019190915291516001600160a01b039384169363c3a2a6659330937f000000000000000000000000000000000000000000000000000000000000000090921692637965d56d92602480840193919291829003018186803b15801561121757600080fd5b505afa15801561122b573d6000803e3d6000fd5b505050506040513d602081101561124157600080fd5b5051604080516001600160e01b031960e086901b1681526001600160a01b039093166004840152602483019190915251604480830192600092919082900301818387803b15801561129157600080fd5b505af11580156112a5573d6000803e3d6000fd5b5050825161043a92506001600160a01b037f000000000000000000000000000000000000000000000000000000000000000016915033906113a4565b6006546001600160a01b031633146112f857600080fd5b60075461130590826114be565b60075560065461043a906001600160a01b037f00000000000000000000000000000000000000000000000000000000000000008116911630846113fb565b60008282018381101561139d576040805162461bcd60e51b815260206004820152601b60248201527f536166654d6174683a206164646974696f6e206f766572666c6f770000000000604482015290519081900360640190fd5b9392505050565b604080516001600160a01b038416602482015260448082018490528251808303909101815260649091019091526020810180516001600160e01b031663a9059cbb60e01b1790526113f6908490611500565b505050565b604080516001600160a01b0380861660248301528416604482015260648082018490528251808303909101815260849091019091526020810180516001600160e01b03166323b872dd60e01b179052611455908590611500565b50505050565b600082820163ffffffff808516908216101561139d576040805162461bcd60e51b815260206004820152601b60248201527f536166654d6174683a206164646974696f6e206f766572666c6f770000000000604482015290519081900360640190fd5b600061139d83836040518060400160405280601e81526020017f536166654d6174683a207375627472616374696f6e206f766572666c6f7700008152506115b1565b6060611555826040518060400160405280602081526020017f5361666545524332303a206c6f772d6c6576656c2063616c6c206661696c6564815250856001600160a01b03166116489092919063ffffffff16565b8051909150156113f65780806020019051602081101561157457600080fd5b50516113f65760405162461bcd60e51b815260040180806020018281038252602a8152602001806118ab602a913960400191505060405180910390fd5b600081848411156116405760405162461bcd60e51b81526004018080602001828103825283818151815260200191508051906020019080838360005b838110156116055781810151838201526020016115ed565b50505050905090810190601f1680156116325780820380516001836020036101000a031916815260200191505b509250505060405180910390fd5b505050900390565b6060611657848460008561165f565b949350505050565b606061166a856117cc565b6116bb576040805162461bcd60e51b815260206004820152601d60248201527f416464726573733a2063616c6c20746f206e6f6e2d636f6e7472616374000000604482015290519081900360640190fd5b60006060866001600160a01b031685876040518082805190602001908083835b602083106116fa5780518252601f1990920191602091820191016116db565b6001836020036101000a03801982511681845116808217855250505050505090500191505060006040518083038185875af1925050503d806000811461175c576040519150601f19603f3d011682016040523d82523d6000602084013e611761565b606091505b509150915081156117755791506116579050565b8051156117855780518082602001fd5b60405162461bcd60e51b81526020600482018181528651602484015286518793919283926044019190850190808383600083156116055781810151838201526020016115ed565b3b151590565b6040518060800160405280600081526020016000815260200160008152602001600015158152509056fe4c6f636b65722063616e6e6f7420626520736574206d6f7265207468616e206f6e63654f776e61626c653a206e6577206f776e657220697320746865207a65726f20616464726573735761726d75702063616e6e6f7420626520736574206d6f7265207468616e206f6e63654f776e61626c653a206d757374206265206e6577206f776e657220746f2070756c6c4f776e61626c653a2063616c6c6572206973206e6f7420746865206f776e65725361666545524332303a204552433230206f7065726174696f6e20646964206e6f742073756363656564a2646970667358221220f13d338bdbb770aaa063d6ae7540505ea7ae035f2162b5598b9cd556a6c88ffa64736f6c63430007050033",
          "opcodes": "PUSH1 0xC0 PUSH1 0x40 MSTORE CALLVALUE DUP1 ISZERO PUSH2 0x10 JUMPI PUSH1 0x0 DUP1 REVERT JUMPDEST POP PUSH1 0x40 MLOAD PUSH2 0x1AC4 CODESIZE SUB DUP1 PUSH2 0x1AC4 DUP4 CODECOPY DUP2 DUP2 ADD PUSH1 0x40 MSTORE PUSH1 0xA0 DUP2 LT ISZERO PUSH2 0x33 JUMPI PUSH1 0x0 DUP1 REVERT JUMPDEST POP DUP1 MLOAD PUSH1 0x20 DUP3 ADD MLOAD PUSH1 0x40 DUP1 DUP5 ADD MLOAD PUSH1 0x60 DUP6 ADD MLOAD PUSH1 0x80 SWAP1 SWAP6 ADD MLOAD PUSH1 0x0 DUP1 SLOAD PUSH1 0x1 PUSH1 0x1 PUSH1 0xA0 SHL SUB NOT AND CALLER OR DUP1 DUP3 SSTORE SWAP4 MLOAD SWAP6 SWAP7 SWAP5 SWAP6 SWAP3 SWAP5 SWAP4 SWAP2 SWAP3 PUSH1 0x1 PUSH1 0x1 PUSH1 0xA0 SHL SUB SWAP3 SWAP1 SWAP3 AND SWAP2 PUSH32 0xEA8258F2D9DDB679928CF34B78CF645B7FEDA9ACC828E4DD82D014EAAE270EBA SWAP1 DUP3 SWAP1 LOG3 PUSH1 0x1 PUSH1 0x1 PUSH1 0xA0 SHL SUB DUP6 AND PUSH2 0xAF JUMPI PUSH1 0x0 DUP1 REVERT JUMPDEST PUSH1 0x1 PUSH1 0x1 PUSH1 0x60 SHL SUB NOT PUSH1 0x60 DUP7 SWAP1 SHL AND PUSH1 0x80 MSTORE PUSH1 0x1 PUSH1 0x1 PUSH1 0xA0 SHL SUB DUP5 AND PUSH2 0xD4 JUMPI PUSH1 0x0 DUP1 REVERT JUMPDEST PUSH1 0x1 PUSH1 0x1 PUSH1 0x60 SHL SUB NOT PUSH1 0x60 SWAP5 DUP6 SHL AND PUSH1 0xA0 MSTORE PUSH1 0x40 DUP1 MLOAD PUSH1 0x80 DUP2 ADD DUP3 MSTORE DUP4 DUP2 MSTORE PUSH1 0x0 PUSH1 0x20 DUP3 ADD DUP2 SWAP1 MSTORE PUSH4 0xFFFFFFFF SWAP6 DUP7 AND SWAP3 DUP3 ADD DUP4 SWAP1 MSTORE SWAP3 SWAP1 SWAP5 AND SWAP4 SWAP1 SWAP5 ADD DUP4 SWAP1 MSTORE PUSH1 0x2 SWAP2 SWAP1 SWAP2 SSTORE PUSH1 0x3 SSTORE PUSH1 0x4 DUP1 SLOAD PUSH5 0x100000000 SWAP1 SWAP3 MUL PUSH4 0xFFFFFFFF PUSH1 0x20 SHL NOT PUSH4 0xFFFFFFFF NOT SWAP1 SWAP4 AND SWAP1 SWAP4 OR SWAP2 SWAP1 SWAP2 AND SWAP2 SWAP1 SWAP2 OR SWAP1 SSTORE POP PUSH1 0x80 MLOAD PUSH1 0x60 SHR PUSH1 0xA0 MLOAD PUSH1 0x60 SHR PUSH2 0x190A PUSH2 0x1BA PUSH1 0x0 CODECOPY DUP1 PUSH2 0x411 MSTORE DUP1 PUSH2 0x5AC MSTORE DUP1 PUSH2 0x68D MSTORE DUP1 PUSH2 0x9F2 MSTORE DUP1 PUSH2 0xAFE MSTORE DUP1 PUSH2 0xDD8 MSTORE DUP1 PUSH2 0xE56 MSTORE DUP1 PUSH2 0xFE6 MSTORE DUP1 PUSH2 0x10F1 MSTORE DUP1 PUSH2 0x11D1 MSTORE DUP1 PUSH2 0x1319 MSTORE POP DUP1 PUSH2 0x8FC MSTORE DUP1 PUSH2 0xB33 MSTORE DUP1 PUSH2 0xCD9 MSTORE DUP1 PUSH2 0xE0D MSTORE DUP1 PUSH2 0x12B8 MSTORE POP PUSH2 0x190A PUSH1 0x0 RETURN INVALID PUSH1 0x80 PUSH1 0x40 MSTORE CALLVALUE DUP1 ISZERO PUSH2 0x10 JUMPI PUSH1 0x0 DUP1 REVERT JUMPDEST POP PUSH1 0x4 CALLDATASIZE LT PUSH2 0x173 JUMPI PUSH1 0x0 CALLDATALOAD PUSH1 0xE0 SHR DUP1 PUSH4 0x8F077B83 GT PUSH2 0xDE JUMPI DUP1 PUSH4 0xC9F464FF GT PUSH2 0x97 JUMPI DUP1 PUSH4 0xDEAC361A GT PUSH2 0x71 JUMPI DUP1 PUSH4 0xDEAC361A EQ PUSH2 0x3A4 JUMPI DUP1 PUSH4 0xED4ACAA8 EQ PUSH2 0x3AC JUMPI DUP1 PUSH4 0xF3D86E4A EQ PUSH2 0x3B4 JUMPI DUP1 PUSH4 0xF62AE76A EQ PUSH2 0x3BC JUMPI PUSH2 0x173 JUMP JUMPDEST DUP1 PUSH4 0xC9F464FF EQ PUSH2 0x377 JUMPI DUP1 PUSH4 0xCF648E26 EQ PUSH2 0x394 JUMPI DUP1 PUSH4 0xD7B96D4E EQ PUSH2 0x39C JUMPI PUSH2 0x173 JUMP JUMPDEST DUP1 PUSH4 0x8F077B83 EQ PUSH2 0x2FE JUMPI DUP1 PUSH4 0x900CF0CF EQ PUSH2 0x306 JUMPI DUP1 PUSH4 0x9EBEA88C EQ PUSH2 0x33A JUMPI DUP1 PUSH4 0xA8DD07DC EQ PUSH2 0x35F JUMPI DUP1 PUSH4 0xAF14052C EQ PUSH2 0x367 JUMPI DUP1 PUSH4 0xBFE10928 EQ PUSH2 0x36F JUMPI PUSH2 0x173 JUMP JUMPDEST DUP1 PUSH4 0x5A96AC0A GT PUSH2 0x130 JUMPI DUP1 PUSH4 0x5A96AC0A EQ PUSH2 0x229 JUMPI DUP1 PUSH4 0x6746F4C2 EQ PUSH2 0x231 JUMPI DUP1 PUSH4 0x7ACB7757 EQ PUSH2 0x27F JUMPI DUP1 PUSH4 0x81531C64 EQ PUSH2 0x2BF JUMPI DUP1 PUSH4 0x865E6FD3 EQ PUSH2 0x2C7 JUMPI DUP1 PUSH4 0x8B7AFE2E EQ PUSH2 0x2F6 JUMPI PUSH2 0x173 JUMP JUMPDEST DUP1 PUSH4 0x3C23670 EQ PUSH2 0x178 JUMPI DUP1 PUSH4 0x89208D8 EQ PUSH2 0x197 JUMPI DUP1 PUSH4 0x1E83409A EQ PUSH2 0x19F JUMPI DUP1 PUSH4 0x2986C0E5 EQ PUSH2 0x1C5 JUMPI DUP1 PUSH4 0x46F68EE9 EQ PUSH2 0x1DF JUMPI DUP1 PUSH4 0x481C6A75 EQ PUSH2 0x205 JUMPI JUMPDEST PUSH1 0x0 DUP1 REVERT JUMPDEST PUSH2 0x195 PUSH1 0x4 DUP1 CALLDATASIZE SUB PUSH1 0x20 DUP2 LT ISZERO PUSH2 0x18E JUMPI PUSH1 0x0 DUP1 REVERT JUMPDEST POP CALLDATALOAD PUSH2 0x3D9 JUMP JUMPDEST STOP JUMPDEST PUSH2 0x195 PUSH2 0x43D JUMP JUMPDEST PUSH2 0x195 PUSH1 0x4 DUP1 CALLDATASIZE SUB PUSH1 0x20 DUP2 LT ISZERO PUSH2 0x1B5 JUMPI PUSH1 0x0 DUP1 REVERT JUMPDEST POP CALLDATALOAD PUSH1 0x1 PUSH1 0x1 PUSH1 0xA0 SHL SUB AND PUSH2 0x4D4 JUMP JUMPDEST PUSH2 0x1CD PUSH2 0x689 JUMP JUMPDEST PUSH1 0x40 DUP1 MLOAD SWAP2 DUP3 MSTORE MLOAD SWAP1 DUP2 SWAP1 SUB PUSH1 0x20 ADD SWAP1 RETURN JUMPDEST PUSH2 0x195 PUSH1 0x4 DUP1 CALLDATASIZE SUB PUSH1 0x20 DUP2 LT ISZERO PUSH2 0x1F5 JUMPI PUSH1 0x0 DUP1 REVERT JUMPDEST POP CALLDATALOAD PUSH1 0x1 PUSH1 0x1 PUSH1 0xA0 SHL SUB AND PUSH2 0x715 JUMP JUMPDEST PUSH2 0x20D PUSH2 0x802 JUMP JUMPDEST PUSH1 0x40 DUP1 MLOAD PUSH1 0x1 PUSH1 0x1 PUSH1 0xA0 SHL SUB SWAP1 SWAP3 AND DUP3 MSTORE MLOAD SWAP1 DUP2 SWAP1 SUB PUSH1 0x20 ADD SWAP1 RETURN JUMPDEST PUSH2 0x195 PUSH2 0x811 JUMP JUMPDEST PUSH2 0x257 PUSH1 0x4 DUP1 CALLDATASIZE SUB PUSH1 0x20 DUP2 LT ISZERO PUSH2 0x247 JUMPI PUSH1 0x0 DUP1 REVERT JUMPDEST POP CALLDATALOAD PUSH1 0x1 PUSH1 0x1 PUSH1 0xA0 SHL SUB AND PUSH2 0x8BB JUMP JUMPDEST PUSH1 0x40 DUP1 MLOAD SWAP5 DUP6 MSTORE PUSH1 0x20 DUP6 ADD SWAP4 SWAP1 SWAP4 MSTORE DUP4 DUP4 ADD SWAP2 SWAP1 SWAP2 MSTORE ISZERO ISZERO PUSH1 0x60 DUP4 ADD MSTORE MLOAD SWAP1 DUP2 SWAP1 SUB PUSH1 0x80 ADD SWAP1 RETURN JUMPDEST PUSH2 0x2AB PUSH1 0x4 DUP1 CALLDATASIZE SUB PUSH1 0x40 DUP2 LT ISZERO PUSH2 0x295 JUMPI PUSH1 0x0 DUP1 REVERT JUMPDEST POP DUP1 CALLDATALOAD SWAP1 PUSH1 0x20 ADD CALLDATALOAD PUSH1 0x1 PUSH1 0x1 PUSH1 0xA0 SHL SUB AND PUSH2 0x8E5 JUMP JUMPDEST PUSH1 0x40 DUP1 MLOAD SWAP2 ISZERO ISZERO DUP3 MSTORE MLOAD SWAP1 DUP2 SWAP1 SUB PUSH1 0x20 ADD SWAP1 RETURN JUMPDEST PUSH2 0x20D PUSH2 0xB31 JUMP JUMPDEST PUSH2 0x195 PUSH1 0x4 DUP1 CALLDATASIZE SUB PUSH1 0x40 DUP2 LT ISZERO PUSH2 0x2DD JUMPI PUSH1 0x0 DUP1 REVERT JUMPDEST POP DUP1 CALLDATALOAD PUSH1 0xFF AND SWAP1 PUSH1 0x20 ADD CALLDATALOAD PUSH1 0x1 PUSH1 0x1 PUSH1 0xA0 SHL SUB AND PUSH2 0xB55 JUMP JUMPDEST PUSH2 0x1CD PUSH2 0xCCF JUMP JUMPDEST PUSH2 0x195 PUSH2 0xD7B JUMP JUMPDEST PUSH2 0x30E PUSH2 0xD9F JUMP JUMPDEST PUSH1 0x40 DUP1 MLOAD SWAP5 DUP6 MSTORE PUSH1 0x20 DUP6 ADD SWAP4 SWAP1 SWAP4 MSTORE PUSH4 0xFFFFFFFF SWAP2 DUP3 AND DUP5 DUP5 ADD MSTORE AND PUSH1 0x60 DUP4 ADD MSTORE MLOAD SWAP1 DUP2 SWAP1 SUB PUSH1 0x80 ADD SWAP1 RETURN JUMPDEST PUSH2 0x195 PUSH1 0x4 DUP1 CALLDATASIZE SUB PUSH1 0x40 DUP2 LT ISZERO PUSH2 0x350 JUMPI PUSH1 0x0 DUP1 REVERT JUMPDEST POP DUP1 CALLDATALOAD SWAP1 PUSH1 0x20 ADD CALLDATALOAD ISZERO ISZERO PUSH2 0xDBD JUMP JUMPDEST PUSH2 0x1CD PUSH2 0xE34 JUMP JUMPDEST PUSH2 0x195 PUSH2 0xE3A JUMP JUMPDEST PUSH2 0x20D PUSH2 0x108E JUMP JUMPDEST PUSH2 0x195 PUSH1 0x4 DUP1 CALLDATASIZE SUB PUSH1 0x20 DUP2 LT ISZERO PUSH2 0x38D JUMPI PUSH1 0x0 DUP1 REVERT JUMPDEST POP CALLDATALOAD PUSH2 0x109D JUMP JUMPDEST PUSH2 0x20D PUSH2 0x10EF JUMP JUMPDEST PUSH2 0x20D PUSH2 0x1113 JUMP JUMPDEST PUSH2 0x1CD PUSH2 0x1122 JUMP JUMPDEST PUSH2 0x20D PUSH2 0x1128 JUMP JUMPDEST PUSH2 0x195 PUSH2 0x1137 JUMP JUMPDEST PUSH2 0x195 PUSH1 0x4 DUP1 CALLDATASIZE SUB PUSH1 0x20 DUP2 LT ISZERO PUSH2 0x3D2 JUMPI PUSH1 0x0 DUP1 REVERT JUMPDEST POP CALLDATALOAD PUSH2 0x12E1 JUMP JUMPDEST PUSH1 0x6 SLOAD PUSH1 0x1 PUSH1 0x1 PUSH1 0xA0 SHL SUB AND CALLER EQ PUSH2 0x3F0 JUMPI PUSH1 0x0 DUP1 REVERT JUMPDEST PUSH1 0x7 SLOAD PUSH2 0x3FD SWAP1 DUP3 PUSH2 0x1343 JUMP JUMPDEST PUSH1 0x7 SSTORE PUSH1 0x6 SLOAD PUSH2 0x43A SWAP1 PUSH1 0x1 PUSH1 0x1 PUSH1 0xA0 SHL SUB PUSH32 0x0 DUP2 AND SWAP2 AND DUP4 PUSH2 0x13A4 JUMP JUMPDEST POP JUMP JUMPDEST PUSH1 0x0 SLOAD PUSH1 0x1 PUSH1 0x1 PUSH1 0xA0 SHL SUB AND CALLER EQ PUSH2 0x48A JUMPI PUSH1 0x40 DUP1 MLOAD PUSH3 0x461BCD PUSH1 0xE5 SHL DUP2 MSTORE PUSH1 0x20 PUSH1 0x4 DUP3 ADD DUP2 SWAP1 MSTORE PUSH1 0x24 DUP3 ADD MSTORE PUSH1 0x0 DUP1 MLOAD PUSH1 0x20 PUSH2 0x188B DUP4 CODECOPY DUP2 MLOAD SWAP2 MSTORE PUSH1 0x44 DUP3 ADD MSTORE SWAP1 MLOAD SWAP1 DUP2 SWAP1 SUB PUSH1 0x64 ADD SWAP1 REVERT JUMPDEST PUSH1 0x0 DUP1 SLOAD PUSH1 0x40 MLOAD PUSH1 0x1 PUSH1 0x1 PUSH1 0xA0 SHL SUB SWAP1 SWAP2 AND SWAP1 PUSH32 0xEA8258F2D9DDB679928CF34B78CF645B7FEDA9ACC828E4DD82D014EAAE270EBA SWAP1 DUP4 SWAP1 LOG3 PUSH1 0x0 DUP1 SLOAD PUSH1 0x1 PUSH1 0x1 PUSH1 0xA0 SHL SUB NOT AND SWAP1 SSTORE JUMP JUMPDEST PUSH2 0x4DC PUSH2 0x17D2 JUMP JUMPDEST POP PUSH1 0x1 PUSH1 0x1 PUSH1 0xA0 SHL SUB DUP2 AND PUSH1 0x0 SWAP1 DUP2 MSTORE PUSH1 0xA PUSH1 0x20 SWAP1 DUP2 MSTORE PUSH1 0x40 SWAP2 DUP3 SWAP1 KECCAK256 DUP3 MLOAD PUSH1 0x80 DUP2 ADD DUP5 MSTORE DUP2 SLOAD DUP2 MSTORE PUSH1 0x1 DUP3 ADD SLOAD SWAP3 DUP2 ADD SWAP3 SWAP1 SWAP3 MSTORE PUSH1 0x2 DUP1 DUP3 ADD SLOAD SWAP4 DUP4 ADD DUP5 SWAP1 MSTORE PUSH1 0x3 SWAP1 SWAP2 ADD SLOAD PUSH1 0xFF AND ISZERO ISZERO PUSH1 0x60 DUP4 ADD MSTORE SLOAD SWAP1 SWAP2 GT DUP1 ISZERO SWAP1 PUSH2 0x541 JUMPI POP PUSH1 0x40 DUP2 ADD MLOAD ISZERO ISZERO JUMPDEST ISZERO PUSH2 0x685 JUMPI PUSH1 0x1 PUSH1 0x1 PUSH1 0xA0 SHL SUB DUP1 DUP4 AND PUSH1 0x0 SWAP1 DUP2 MSTORE PUSH1 0xA PUSH1 0x20 SWAP1 DUP2 MSTORE PUSH1 0x40 DUP1 DUP4 KECCAK256 DUP4 DUP2 SSTORE PUSH1 0x1 DUP2 ADD DUP5 SWAP1 SSTORE PUSH1 0x2 DUP2 ADD SWAP4 SWAP1 SWAP4 SSTORE PUSH1 0x3 SWAP1 SWAP3 ADD DUP1 SLOAD PUSH1 0xFF NOT AND SWAP1 SSTORE PUSH1 0x8 SLOAD DUP5 DUP3 ADD MLOAD DUP4 MLOAD PUSH4 0x7965D56D PUSH1 0xE0 SHL DUP2 MSTORE PUSH1 0x4 DUP2 ADD SWAP2 SWAP1 SWAP2 MSTORE SWAP3 MLOAD SWAP1 DUP5 AND SWAP4 PUSH4 0xC3A2A665 SWAP4 DUP8 SWAP4 PUSH32 0x0 SWAP1 SWAP3 AND SWAP3 PUSH4 0x7965D56D SWAP3 PUSH1 0x24 DUP1 DUP5 ADD SWAP4 SWAP2 SWAP3 SWAP2 DUP3 SWAP1 SUB ADD DUP2 DUP7 DUP1 EXTCODESIZE ISZERO DUP1 ISZERO PUSH2 0x5F2 JUMPI PUSH1 0x0 DUP1 REVERT JUMPDEST POP GAS STATICCALL ISZERO DUP1 ISZERO PUSH2 0x606 JUMPI RETURNDATASIZE PUSH1 0x0 DUP1 RETURNDATACOPY RETURNDATASIZE PUSH1 0x0 REVERT JUMPDEST POP POP POP POP PUSH1 0x40 MLOAD RETURNDATASIZE PUSH1 0x20 DUP2 LT ISZERO PUSH2 0x61C JUMPI PUSH1 0x0 DUP1 REVERT JUMPDEST POP MLOAD PUSH1 0x40 DUP1 MLOAD PUSH1 0x1 PUSH1 0x1 PUSH1 0xE0 SHL SUB NOT PUSH1 0xE0 DUP7 SWAP1 SHL AND DUP2 MSTORE PUSH1 0x1 PUSH1 0x1 PUSH1 0xA0 SHL SUB SWAP1 SWAP4 AND PUSH1 0x4 DUP5 ADD MSTORE PUSH1 0x24 DUP4 ADD SWAP2 SWAP1 SWAP2 MSTORE MLOAD PUSH1 0x44 DUP1 DUP4 ADD SWAP3 PUSH1 0x0 SWAP3 SWAP2 SWAP1 DUP3 SWAP1 SUB ADD DUP2 DUP4 DUP8 DUP1 EXTCODESIZE ISZERO DUP1 ISZERO PUSH2 0x66C JUMPI PUSH1 0x0 DUP1 REVERT JUMPDEST POP GAS CALL ISZERO DUP1 ISZERO PUSH2 0x680 JUMPI RETURNDATASIZE PUSH1 0x0 DUP1 RETURNDATACOPY RETURNDATASIZE PUSH1 0x0 REVERT JUMPDEST POP POP POP POP JUMPDEST POP POP JUMP JUMPDEST PUSH1 0x0 PUSH32 0x0 PUSH1 0x1 PUSH1 0x1 PUSH1 0xA0 SHL SUB AND PUSH4 0x2986C0E5 PUSH1 0x40 MLOAD DUP2 PUSH4 0xFFFFFFFF AND PUSH1 0xE0 SHL DUP2 MSTORE PUSH1 0x4 ADD PUSH1 0x20 PUSH1 0x40 MLOAD DUP1 DUP4 SUB DUP2 DUP7 DUP1 EXTCODESIZE ISZERO DUP1 ISZERO PUSH2 0x6E4 JUMPI PUSH1 0x0 DUP1 REVERT JUMPDEST POP GAS STATICCALL ISZERO DUP1 ISZERO PUSH2 0x6F8 JUMPI RETURNDATASIZE PUSH1 0x0 DUP1 RETURNDATACOPY RETURNDATASIZE PUSH1 0x0 REVERT JUMPDEST POP POP POP POP PUSH1 0x40 MLOAD RETURNDATASIZE PUSH1 0x20 DUP2 LT ISZERO PUSH2 0x70E JUMPI PUSH1 0x0 DUP1 REVERT JUMPDEST POP MLOAD SWAP1 POP SWAP1 JUMP JUMPDEST PUSH1 0x0 SLOAD PUSH1 0x1 PUSH1 0x1 PUSH1 0xA0 SHL SUB AND CALLER EQ PUSH2 0x762 JUMPI PUSH1 0x40 DUP1 MLOAD PUSH3 0x461BCD PUSH1 0xE5 SHL DUP2 MSTORE PUSH1 0x20 PUSH1 0x4 DUP3 ADD DUP2 SWAP1 MSTORE PUSH1 0x24 DUP3 ADD MSTORE PUSH1 0x0 DUP1 MLOAD PUSH1 0x20 PUSH2 0x188B DUP4 CODECOPY DUP2 MLOAD SWAP2 MSTORE PUSH1 0x44 DUP3 ADD MSTORE SWAP1 MLOAD SWAP1 DUP2 SWAP1 SUB PUSH1 0x64 ADD SWAP1 REVERT JUMPDEST PUSH1 0x1 PUSH1 0x1 PUSH1 0xA0 SHL SUB DUP2 AND PUSH2 0x7A7 JUMPI PUSH1 0x40 MLOAD PUSH3 0x461BCD PUSH1 0xE5 SHL DUP2 MSTORE PUSH1 0x4 ADD DUP1 DUP1 PUSH1 0x20 ADD DUP3 DUP2 SUB DUP3 MSTORE PUSH1 0x26 DUP2 MSTORE PUSH1 0x20 ADD DUP1 PUSH2 0x1820 PUSH1 0x26 SWAP2 CODECOPY PUSH1 0x40 ADD SWAP2 POP POP PUSH1 0x40 MLOAD DUP1 SWAP2 SUB SWAP1 REVERT JUMPDEST PUSH1 0x0 DUP1 SLOAD PUSH1 0x40 MLOAD PUSH1 0x1 PUSH1 0x1 PUSH1 0xA0 SHL SUB DUP1 DUP6 AND SWAP4 SWAP3 AND SWAP2 PUSH32 0xEA8258F2D9DDB679928CF34B78CF645B7FEDA9ACC828E4DD82D014EAAE270EBA SWAP2 LOG3 PUSH1 0x1 DUP1 SLOAD PUSH1 0x1 PUSH1 0x1 PUSH1 0xA0 SHL SUB NOT AND PUSH1 0x1 PUSH1 0x1 PUSH1 0xA0 SHL SUB SWAP3 SWAP1 SWAP3 AND SWAP2 SWAP1 SWAP2 OR SWAP1 SSTORE JUMP JUMPDEST PUSH1 0x0 SLOAD PUSH1 0x1 PUSH1 0x1 PUSH1 0xA0 SHL SUB AND SWAP1 JUMP JUMPDEST PUSH1 0x1 SLOAD PUSH1 0x1 PUSH1 0x1 PUSH1 0xA0 SHL SUB AND CALLER EQ PUSH2 0x85A JUMPI PUSH1 0x40 MLOAD PUSH3 0x461BCD PUSH1 0xE5 SHL DUP2 MSTORE PUSH1 0x4 ADD DUP1 DUP1 PUSH1 0x20 ADD DUP3 DUP2 SUB DUP3 MSTORE PUSH1 0x22 DUP2 MSTORE PUSH1 0x20 ADD DUP1 PUSH2 0x1869 PUSH1 0x22 SWAP2 CODECOPY PUSH1 0x40 ADD SWAP2 POP POP PUSH1 0x40 MLOAD DUP1 SWAP2 SUB SWAP1 REVERT JUMPDEST PUSH1 0x1 SLOAD PUSH1 0x0 DUP1 SLOAD PUSH1 0x40 MLOAD PUSH1 0x1 PUSH1 0x1 PUSH1 0xA0 SHL SUB SWAP4 DUP5 AND SWAP4 SWAP1 SWAP2 AND SWAP2 PUSH32 0xAA151555690C956FC3EA32F106BB9F119B5237A061EAA8557CFF3E51E3792C8D SWAP2 LOG3 PUSH1 0x1 SLOAD PUSH1 0x0 DUP1 SLOAD PUSH1 0x1 PUSH1 0x1 PUSH1 0xA0 SHL SUB NOT AND PUSH1 0x1 PUSH1 0x1 PUSH1 0xA0 SHL SUB SWAP1 SWAP3 AND SWAP2 SWAP1 SWAP2 OR SWAP1 SSTORE JUMP JUMPDEST PUSH1 0xA PUSH1 0x20 MSTORE PUSH1 0x0 SWAP1 DUP2 MSTORE PUSH1 0x40 SWAP1 KECCAK256 DUP1 SLOAD PUSH1 0x1 DUP3 ADD SLOAD PUSH1 0x2 DUP4 ADD SLOAD PUSH1 0x3 SWAP1 SWAP4 ADD SLOAD SWAP2 SWAP3 SWAP1 SWAP2 PUSH1 0xFF AND DUP5 JUMP JUMPDEST PUSH1 0x0 PUSH2 0x8EF PUSH2 0xE3A JUMP JUMPDEST PUSH2 0x924 PUSH1 0x1 PUSH1 0x1 PUSH1 0xA0 SHL SUB PUSH32 0x0 AND CALLER ADDRESS DUP7 PUSH2 0x13FB JUMP JUMPDEST PUSH2 0x92C PUSH2 0x17D2 JUMP JUMPDEST POP PUSH1 0x1 PUSH1 0x1 PUSH1 0xA0 SHL SUB DUP3 AND PUSH1 0x0 SWAP1 DUP2 MSTORE PUSH1 0xA PUSH1 0x20 SWAP1 DUP2 MSTORE PUSH1 0x40 SWAP2 DUP3 SWAP1 KECCAK256 DUP3 MLOAD PUSH1 0x80 DUP2 ADD DUP5 MSTORE DUP2 SLOAD DUP2 MSTORE PUSH1 0x1 DUP3 ADD SLOAD SWAP3 DUP2 ADD SWAP3 SWAP1 SWAP3 MSTORE PUSH1 0x2 DUP2 ADD SLOAD SWAP3 DUP3 ADD SWAP3 SWAP1 SWAP3 MSTORE PUSH1 0x3 SWAP1 SWAP2 ADD SLOAD PUSH1 0xFF AND ISZERO DUP1 ISZERO PUSH1 0x60 DUP4 ADD MSTORE PUSH2 0x9CF JUMPI PUSH1 0x40 DUP1 MLOAD PUSH3 0x461BCD PUSH1 0xE5 SHL DUP2 MSTORE PUSH1 0x20 PUSH1 0x4 DUP3 ADD MSTORE PUSH1 0x1F PUSH1 0x24 DUP3 ADD MSTORE PUSH32 0x4465706F7369747320666F72206163636F756E7420617265206C6F636B656400 PUSH1 0x44 DUP3 ADD MSTORE SWAP1 MLOAD SWAP1 DUP2 SWAP1 SUB PUSH1 0x64 ADD SWAP1 REVERT JUMPDEST PUSH1 0x40 DUP1 MLOAD PUSH1 0x80 DUP2 ADD SWAP1 SWAP2 MSTORE DUP2 MLOAD DUP2 SWAP1 PUSH2 0x9E8 SWAP1 DUP8 PUSH2 0x1343 JUMP JUMPDEST DUP2 MSTORE PUSH1 0x20 ADD PUSH2 0xA8B PUSH32 0x0 PUSH1 0x1 PUSH1 0x1 PUSH1 0xA0 SHL SUB AND PUSH4 0x1BD39674 DUP9 PUSH1 0x40 MLOAD DUP3 PUSH4 0xFFFFFFFF AND PUSH1 0xE0 SHL DUP2 MSTORE PUSH1 0x4 ADD DUP1 DUP3 DUP2 MSTORE PUSH1 0x20 ADD SWAP2 POP POP PUSH1 0x20 PUSH1 0x40 MLOAD DUP1 DUP4 SUB DUP2 DUP7 DUP1 EXTCODESIZE ISZERO DUP1 ISZERO PUSH2 0xA54 JUMPI PUSH1 0x0 DUP1 REVERT JUMPDEST POP GAS STATICCALL ISZERO DUP1 ISZERO PUSH2 0xA68 JUMPI RETURNDATASIZE PUSH1 0x0 DUP1 RETURNDATACOPY RETURNDATASIZE PUSH1 0x0 REVERT JUMPDEST POP POP POP POP PUSH1 0x40 MLOAD RETURNDATASIZE PUSH1 0x20 DUP2 LT ISZERO PUSH2 0xA7E JUMPI PUSH1 0x0 DUP1 REVERT JUMPDEST POP MLOAD PUSH1 0x20 DUP6 ADD MLOAD SWAP1 PUSH2 0x1343 JUMP JUMPDEST DUP2 MSTORE PUSH1 0x9 SLOAD PUSH1 0x2 SLOAD PUSH1 0x20 SWAP1 SWAP3 ADD SWAP2 PUSH2 0xAA2 SWAP2 PUSH2 0x1343 JUMP JUMPDEST DUP2 MSTORE PUSH1 0x0 PUSH1 0x20 SWAP2 DUP3 ADD DUP2 SWAP1 MSTORE PUSH1 0x1 PUSH1 0x1 PUSH1 0xA0 SHL SUB DUP7 DUP2 AND DUP3 MSTORE PUSH1 0xA DUP4 MSTORE PUSH1 0x40 SWAP2 DUP3 SWAP1 KECCAK256 DUP5 MLOAD DUP2 SSTORE SWAP3 DUP5 ADD MLOAD PUSH1 0x1 DUP5 ADD SSTORE SWAP1 DUP4 ADD MLOAD PUSH1 0x2 DUP4 ADD SSTORE PUSH1 0x60 SWAP1 SWAP3 ADD MLOAD PUSH1 0x3 SWAP1 SWAP2 ADD DUP1 SLOAD PUSH1 0xFF NOT AND SWAP2 ISZERO ISZERO SWAP2 SWAP1 SWAP2 OR SWAP1 SSTORE PUSH1 0x8 SLOAD PUSH2 0xB27 SWAP2 PUSH32 0x0 DUP2 AND SWAP2 AND DUP7 PUSH2 0x13A4 JUMP JUMPDEST POP PUSH1 0x1 SWAP4 SWAP3 POP POP POP JUMP JUMPDEST PUSH32 0x0 DUP2 JUMP JUMPDEST PUSH1 0x0 SLOAD PUSH1 0x1 PUSH1 0x1 PUSH1 0xA0 SHL SUB AND CALLER EQ PUSH2 0xBA2 JUMPI PUSH1 0x40 DUP1 MLOAD PUSH3 0x461BCD PUSH1 0xE5 SHL DUP2 MSTORE PUSH1 0x20 PUSH1 0x4 DUP3 ADD DUP2 SWAP1 MSTORE PUSH1 0x24 DUP3 ADD MSTORE PUSH1 0x0 DUP1 MLOAD PUSH1 0x20 PUSH2 0x188B DUP4 CODECOPY DUP2 MLOAD SWAP2 MSTORE PUSH1 0x44 DUP3 ADD MSTORE SWAP1 MLOAD SWAP1 DUP2 SWAP1 SUB PUSH1 0x64 ADD SWAP1 REVERT JUMPDEST PUSH1 0x0 DUP3 PUSH1 0x2 DUP2 GT ISZERO PUSH2 0xBB0 JUMPI INVALID JUMPDEST EQ ISZERO PUSH2 0xBD6 JUMPI PUSH1 0x5 DUP1 SLOAD PUSH1 0x1 PUSH1 0x1 PUSH1 0xA0 SHL SUB NOT AND PUSH1 0x1 PUSH1 0x1 PUSH1 0xA0 SHL SUB DUP4 AND OR SWAP1 SSTORE PUSH2 0x685 JUMP JUMPDEST PUSH1 0x1 DUP3 PUSH1 0x2 DUP2 GT ISZERO PUSH2 0xBE4 JUMPI INVALID JUMPDEST EQ ISZERO PUSH2 0xC52 JUMPI PUSH1 0x8 SLOAD PUSH1 0x1 PUSH1 0x1 PUSH1 0xA0 SHL SUB AND ISZERO PUSH2 0xC32 JUMPI PUSH1 0x40 MLOAD PUSH3 0x461BCD PUSH1 0xE5 SHL DUP2 MSTORE PUSH1 0x4 ADD DUP1 DUP1 PUSH1 0x20 ADD DUP3 DUP2 SUB DUP3 MSTORE PUSH1 0x23 DUP2 MSTORE PUSH1 0x20 ADD DUP1 PUSH2 0x1846 PUSH1 0x23 SWAP2 CODECOPY PUSH1 0x40 ADD SWAP2 POP POP PUSH1 0x40 MLOAD DUP1 SWAP2 SUB SWAP1 REVERT JUMPDEST PUSH1 0x8 DUP1 SLOAD PUSH1 0x1 PUSH1 0x1 PUSH1 0xA0 SHL SUB NOT AND PUSH1 0x1 PUSH1 0x1 PUSH1 0xA0 SHL SUB DUP4 AND OR SWAP1 SSTORE PUSH2 0x685 JUMP JUMPDEST PUSH1 0x2 DUP3 PUSH1 0x2 DUP2 GT ISZERO PUSH2 0xC60 JUMPI INVALID JUMPDEST EQ ISZERO PUSH2 0x685 JUMPI PUSH1 0x6 SLOAD PUSH1 0x1 PUSH1 0x1 PUSH1 0xA0 SHL SUB AND ISZERO PUSH2 0xCAE JUMPI PUSH1 0x40 MLOAD PUSH3 0x461BCD PUSH1 0xE5 SHL DUP2 MSTORE PUSH1 0x4 ADD DUP1 DUP1 PUSH1 0x20 ADD DUP3 DUP2 SUB DUP3 MSTORE PUSH1 0x23 DUP2 MSTORE PUSH1 0x20 ADD DUP1 PUSH2 0x17FD PUSH1 0x23 SWAP2 CODECOPY PUSH1 0x40 ADD SWAP2 POP POP PUSH1 0x40 MLOAD DUP1 SWAP2 SUB SWAP1 REVERT JUMPDEST PUSH1 0x6 DUP1 SLOAD PUSH1 0x1 PUSH1 0x1 PUSH1 0xA0 SHL SUB DUP4 AND PUSH1 0x1 PUSH1 0x1 PUSH1 0xA0 SHL SUB NOT SWAP1 SWAP2 AND OR SWAP1 SSTORE POP POP JUMP JUMPDEST PUSH1 0x0 PUSH2 0xD76 PUSH1 0x7 SLOAD PUSH32 0x0 PUSH1 0x1 PUSH1 0x1 PUSH1 0xA0 SHL SUB AND PUSH4 0x70A08231 ADDRESS PUSH1 0x40 MLOAD DUP3 PUSH4 0xFFFFFFFF AND PUSH1 0xE0 SHL DUP2 MSTORE PUSH1 0x4 ADD DUP1 DUP3 PUSH1 0x1 PUSH1 0x1 PUSH1 0xA0 SHL SUB AND DUP2 MSTORE PUSH1 0x20 ADD SWAP2 POP POP PUSH1 0x20 PUSH1 0x40 MLOAD DUP1 DUP4 SUB DUP2 DUP7 DUP1 EXTCODESIZE ISZERO DUP1 ISZERO PUSH2 0xD44 JUMPI PUSH1 0x0 DUP1 REVERT JUMPDEST POP GAS STATICCALL ISZERO DUP1 ISZERO PUSH2 0xD58 JUMPI RETURNDATASIZE PUSH1 0x0 DUP1 RETURNDATACOPY RETURNDATASIZE PUSH1 0x0 REVERT JUMPDEST POP POP POP POP PUSH1 0x40 MLOAD RETURNDATASIZE PUSH1 0x20 DUP2 LT ISZERO PUSH2 0xD6E JUMPI PUSH1 0x0 DUP1 REVERT JUMPDEST POP MLOAD SWAP1 PUSH2 0x1343 JUMP JUMPDEST SWAP1 POP SWAP1 JUMP JUMPDEST CALLER PUSH1 0x0 SWAP1 DUP2 MSTORE PUSH1 0xA PUSH1 0x20 MSTORE PUSH1 0x40 SWAP1 KECCAK256 PUSH1 0x3 ADD DUP1 SLOAD PUSH1 0xFF NOT DUP2 AND PUSH1 0xFF SWAP1 SWAP2 AND ISZERO OR SWAP1 SSTORE JUMP JUMPDEST PUSH1 0x2 SLOAD PUSH1 0x3 SLOAD PUSH1 0x4 SLOAD PUSH4 0xFFFFFFFF DUP1 DUP3 AND SWAP2 PUSH5 0x100000000 SWAP1 DIV AND DUP5 JUMP JUMPDEST DUP1 ISZERO PUSH2 0xDCB JUMPI PUSH2 0xDCB PUSH2 0xE3A JUMP JUMPDEST PUSH2 0xE00 PUSH1 0x1 PUSH1 0x1 PUSH1 0xA0 SHL SUB PUSH32 0x0 AND CALLER ADDRESS DUP6 PUSH2 0x13FB JUMP JUMPDEST PUSH2 0x685 PUSH1 0x1 PUSH1 0x1 PUSH1 0xA0 SHL SUB PUSH32 0x0 AND CALLER DUP5 PUSH2 0x13A4 JUMP JUMPDEST PUSH1 0x7 SLOAD DUP2 JUMP JUMPDEST PUSH1 0x4 SLOAD PUSH4 0xFFFFFFFF TIMESTAMP DUP2 AND PUSH5 0x100000000 SWAP1 SWAP3 DIV AND GT PUSH2 0x108C JUMPI PUSH32 0x0 PUSH1 0x1 PUSH1 0x1 PUSH1 0xA0 SHL SUB AND PUSH4 0x58ECDB4 PUSH1 0x2 PUSH1 0x1 ADD SLOAD PUSH1 0x2 PUSH1 0x0 ADD SLOAD PUSH1 0x40 MLOAD DUP4 PUSH4 0xFFFFFFFF AND PUSH1 0xE0 SHL DUP2 MSTORE PUSH1 0x4 ADD DUP1 DUP4 DUP2 MSTORE PUSH1 0x20 ADD DUP3 DUP2 MSTORE PUSH1 0x20 ADD SWAP3 POP POP POP PUSH1 0x20 PUSH1 0x40 MLOAD DUP1 DUP4 SUB DUP2 PUSH1 0x0 DUP8 DUP1 EXTCODESIZE ISZERO DUP1 ISZERO PUSH2 0xECC JUMPI PUSH1 0x0 DUP1 REVERT JUMPDEST POP GAS CALL ISZERO DUP1 ISZERO PUSH2 0xEE0 JUMPI RETURNDATASIZE PUSH1 0x0 DUP1 RETURNDATACOPY RETURNDATASIZE PUSH1 0x0 REVERT JUMPDEST POP POP POP POP PUSH1 0x40 MLOAD RETURNDATASIZE PUSH1 0x20 DUP2 LT ISZERO PUSH2 0xEF6 JUMPI PUSH1 0x0 DUP1 REVERT JUMPDEST POP POP PUSH1 0x4 SLOAD PUSH2 0xF18 SWAP1 PUSH4 0xFFFFFFFF PUSH5 0x100000000 DUP3 DIV DUP2 AND SWAP2 DUP2 AND SWAP1 PUSH2 0x145B AND JUMP JUMPDEST PUSH1 0x4 DUP1 SLOAD PUSH4 0xFFFFFFFF SWAP3 SWAP1 SWAP3 AND PUSH5 0x100000000 MUL PUSH8 0xFFFFFFFF00000000 NOT SWAP1 SWAP3 AND SWAP2 SWAP1 SWAP2 OR SWAP1 SSTORE PUSH1 0x2 DUP1 SLOAD PUSH1 0x1 ADD SWAP1 SSTORE PUSH1 0x5 SLOAD PUSH1 0x1 PUSH1 0x1 PUSH1 0xA0 SHL SUB AND ISZERO PUSH2 0xFD6 JUMPI PUSH1 0x5 PUSH1 0x0 SWAP1 SLOAD SWAP1 PUSH2 0x100 EXP SWAP1 DIV PUSH1 0x1 PUSH1 0x1 PUSH1 0xA0 SHL SUB AND PUSH1 0x1 PUSH1 0x1 PUSH1 0xA0 SHL SUB AND PUSH4 0xE4FC6B6D PUSH1 0x40 MLOAD DUP2 PUSH4 0xFFFFFFFF AND PUSH1 0xE0 SHL DUP2 MSTORE PUSH1 0x4 ADD PUSH1 0x20 PUSH1 0x40 MLOAD DUP1 DUP4 SUB DUP2 PUSH1 0x0 DUP8 DUP1 EXTCODESIZE ISZERO DUP1 ISZERO PUSH2 0xFA9 JUMPI PUSH1 0x0 DUP1 REVERT JUMPDEST POP GAS CALL ISZERO DUP1 ISZERO PUSH2 0xFBD JUMPI RETURNDATASIZE PUSH1 0x0 DUP1 RETURNDATACOPY RETURNDATASIZE PUSH1 0x0 REVERT JUMPDEST POP POP POP POP PUSH1 0x40 MLOAD RETURNDATASIZE PUSH1 0x20 DUP2 LT ISZERO PUSH2 0xFD3 JUMPI PUSH1 0x0 DUP1 REVERT JUMPDEST POP POP JUMPDEST PUSH1 0x0 PUSH2 0xFE0 PUSH2 0xCCF JUMP JUMPDEST SWAP1 POP PUSH1 0x0 PUSH32 0x0 PUSH1 0x1 PUSH1 0x1 PUSH1 0xA0 SHL SUB AND PUSH4 0x9358928B PUSH1 0x40 MLOAD DUP2 PUSH4 0xFFFFFFFF AND PUSH1 0xE0 SHL DUP2 MSTORE PUSH1 0x4 ADD PUSH1 0x20 PUSH1 0x40 MLOAD DUP1 DUP4 SUB DUP2 DUP7 DUP1 EXTCODESIZE ISZERO DUP1 ISZERO PUSH2 0x103D JUMPI PUSH1 0x0 DUP1 REVERT JUMPDEST POP GAS STATICCALL ISZERO DUP1 ISZERO PUSH2 0x1051 JUMPI RETURNDATASIZE PUSH1 0x0 DUP1 RETURNDATACOPY RETURNDATASIZE PUSH1 0x0 REVERT JUMPDEST POP POP POP POP PUSH1 0x40 MLOAD RETURNDATASIZE PUSH1 0x20 DUP2 LT ISZERO PUSH2 0x1067 JUMPI PUSH1 0x0 DUP1 REVERT JUMPDEST POP MLOAD SWAP1 POP DUP1 DUP3 GT PUSH2 0x107C JUMPI PUSH1 0x0 PUSH1 0x3 SSTORE PUSH2 0x685 JUMP JUMPDEST PUSH2 0x1086 DUP3 DUP3 PUSH2 0x14BE JUMP JUMPDEST PUSH1 0x3 SSTORE POP POP JUMPDEST JUMP JUMPDEST PUSH1 0x5 SLOAD PUSH1 0x1 PUSH1 0x1 PUSH1 0xA0 SHL SUB AND DUP2 JUMP JUMPDEST PUSH1 0x0 SLOAD PUSH1 0x1 PUSH1 0x1 PUSH1 0xA0 SHL SUB AND CALLER EQ PUSH2 0x10EA JUMPI PUSH1 0x40 DUP1 MLOAD PUSH3 0x461BCD PUSH1 0xE5 SHL DUP2 MSTORE PUSH1 0x20 PUSH1 0x4 DUP3 ADD DUP2 SWAP1 MSTORE PUSH1 0x24 DUP3 ADD MSTORE PUSH1 0x0 DUP1 MLOAD PUSH1 0x20 PUSH2 0x188B DUP4 CODECOPY DUP2 MLOAD SWAP2 MSTORE PUSH1 0x44 DUP3 ADD MSTORE SWAP1 MLOAD SWAP1 DUP2 SWAP1 SUB PUSH1 0x64 ADD SWAP1 REVERT JUMPDEST PUSH1 0x9 SSTORE JUMP JUMPDEST PUSH32 0x0 DUP2 JUMP JUMPDEST PUSH1 0x6 SLOAD PUSH1 0x1 PUSH1 0x1 PUSH1 0xA0 SHL SUB AND DUP2 JUMP JUMPDEST PUSH1 0x9 SLOAD DUP2 JUMP JUMPDEST PUSH1 0x8 SLOAD PUSH1 0x1 PUSH1 0x1 PUSH1 0xA0 SHL SUB AND DUP2 JUMP JUMPDEST PUSH2 0x113F PUSH2 0x17D2 JUMP JUMPDEST POP CALLER PUSH1 0x0 DUP2 DUP2 MSTORE PUSH1 0xA PUSH1 0x20 DUP2 DUP2 MSTORE PUSH1 0x40 DUP1 DUP5 KECCAK256 DUP2 MLOAD PUSH1 0x80 DUP2 ADD DUP4 MSTORE DUP2 SLOAD DUP2 MSTORE PUSH1 0x1 DUP3 ADD DUP1 SLOAD DUP3 DUP7 ADD SWAP1 DUP2 MSTORE PUSH1 0x2 DUP5 ADD DUP1 SLOAD DUP5 DUP8 ADD MSTORE PUSH1 0x3 DUP6 ADD DUP1 SLOAD PUSH1 0xFF DUP2 AND ISZERO ISZERO PUSH1 0x60 DUP8 ADD MSTORE SWAP11 DUP11 MSTORE SWAP8 DUP8 MSTORE SWAP4 DUP9 SWAP1 SSTORE SWAP1 DUP8 SWAP1 SSTORE SWAP6 SWAP1 SWAP2 SSTORE PUSH1 0xFF NOT SWAP1 SWAP6 AND SWAP1 SWAP3 SSTORE PUSH1 0x8 SLOAD SWAP3 MLOAD DUP3 MLOAD PUSH4 0x7965D56D PUSH1 0xE0 SHL DUP2 MSTORE PUSH1 0x4 DUP2 ADD SWAP2 SWAP1 SWAP2 MSTORE SWAP2 MLOAD PUSH1 0x1 PUSH1 0x1 PUSH1 0xA0 SHL SUB SWAP4 DUP5 AND SWAP4 PUSH4 0xC3A2A665 SWAP4 ADDRESS SWAP4 PUSH32 0x0 SWAP1 SWAP3 AND SWAP3 PUSH4 0x7965D56D SWAP3 PUSH1 0x24 DUP1 DUP5 ADD SWAP4 SWAP2 SWAP3 SWAP2 DUP3 SWAP1 SUB ADD DUP2 DUP7 DUP1 EXTCODESIZE ISZERO DUP1 ISZERO PUSH2 0x1217 JUMPI PUSH1 0x0 DUP1 REVERT JUMPDEST POP GAS STATICCALL ISZERO DUP1 ISZERO PUSH2 0x122B JUMPI RETURNDATASIZE PUSH1 0x0 DUP1 RETURNDATACOPY RETURNDATASIZE PUSH1 0x0 REVERT JUMPDEST POP POP POP POP PUSH1 0x40 MLOAD RETURNDATASIZE PUSH1 0x20 DUP2 LT ISZERO PUSH2 0x1241 JUMPI PUSH1 0x0 DUP1 REVERT JUMPDEST POP MLOAD PUSH1 0x40 DUP1 MLOAD PUSH1 0x1 PUSH1 0x1 PUSH1 0xE0 SHL SUB NOT PUSH1 0xE0 DUP7 SWAP1 SHL AND DUP2 MSTORE PUSH1 0x1 PUSH1 0x1 PUSH1 0xA0 SHL SUB SWAP1 SWAP4 AND PUSH1 0x4 DUP5 ADD MSTORE PUSH1 0x24 DUP4 ADD SWAP2 SWAP1 SWAP2 MSTORE MLOAD PUSH1 0x44 DUP1 DUP4 ADD SWAP3 PUSH1 0x0 SWAP3 SWAP2 SWAP1 DUP3 SWAP1 SUB ADD DUP2 DUP4 DUP8 DUP1 EXTCODESIZE ISZERO DUP1 ISZERO PUSH2 0x1291 JUMPI PUSH1 0x0 DUP1 REVERT JUMPDEST POP GAS CALL ISZERO DUP1 ISZERO PUSH2 0x12A5 JUMPI RETURNDATASIZE PUSH1 0x0 DUP1 RETURNDATACOPY RETURNDATASIZE PUSH1 0x0 REVERT JUMPDEST POP POP DUP3 MLOAD PUSH2 0x43A SWAP3 POP PUSH1 0x1 PUSH1 0x1 PUSH1 0xA0 SHL SUB PUSH32 0x0 AND SWAP2 POP CALLER SWAP1 PUSH2 0x13A4 JUMP JUMPDEST PUSH1 0x6 SLOAD PUSH1 0x1 PUSH1 0x1 PUSH1 0xA0 SHL SUB AND CALLER EQ PUSH2 0x12F8 JUMPI PUSH1 0x0 DUP1 REVERT JUMPDEST PUSH1 0x7 SLOAD PUSH2 0x1305 SWAP1 DUP3 PUSH2 0x14BE JUMP JUMPDEST PUSH1 0x7 SSTORE PUSH1 0x6 SLOAD PUSH2 0x43A SWAP1 PUSH1 0x1 PUSH1 0x1 PUSH1 0xA0 SHL SUB PUSH32 0x0 DUP2 AND SWAP2 AND ADDRESS DUP5 PUSH2 0x13FB JUMP JUMPDEST PUSH1 0x0 DUP3 DUP3 ADD DUP4 DUP2 LT ISZERO PUSH2 0x139D JUMPI PUSH1 0x40 DUP1 MLOAD PUSH3 0x461BCD PUSH1 0xE5 SHL DUP2 MSTORE PUSH1 0x20 PUSH1 0x4 DUP3 ADD MSTORE PUSH1 0x1B PUSH1 0x24 DUP3 ADD MSTORE PUSH32 0x536166654D6174683A206164646974696F6E206F766572666C6F770000000000 PUSH1 0x44 DUP3 ADD MSTORE SWAP1 MLOAD SWAP1 DUP2 SWAP1 SUB PUSH1 0x64 ADD SWAP1 REVERT JUMPDEST SWAP4 SWAP3 POP POP POP JUMP JUMPDEST PUSH1 0x40 DUP1 MLOAD PUSH1 0x1 PUSH1 0x1 PUSH1 0xA0 SHL SUB DUP5 AND PUSH1 0x24 DUP3 ADD MSTORE PUSH1 0x44 DUP1 DUP3 ADD DUP5 SWAP1 MSTORE DUP3 MLOAD DUP1 DUP4 SUB SWAP1 SWAP2 ADD DUP2 MSTORE PUSH1 0x64 SWAP1 SWAP2 ADD SWAP1 SWAP2 MSTORE PUSH1 0x20 DUP2 ADD DUP1 MLOAD PUSH1 0x1 PUSH1 0x1 PUSH1 0xE0 SHL SUB AND PUSH4 0xA9059CBB PUSH1 0xE0 SHL OR SWAP1 MSTORE PUSH2 0x13F6 SWAP1 DUP5 SWAP1 PUSH2 0x1500 JUMP JUMPDEST POP POP POP JUMP JUMPDEST PUSH1 0x40 DUP1 MLOAD PUSH1 0x1 PUSH1 0x1 PUSH1 0xA0 SHL SUB DUP1 DUP7 AND PUSH1 0x24 DUP4 ADD MSTORE DUP5 AND PUSH1 0x44 DUP3 ADD MSTORE PUSH1 0x64 DUP1 DUP3 ADD DUP5 SWAP1 MSTORE DUP3 MLOAD DUP1 DUP4 SUB SWAP1 SWAP2 ADD DUP2 MSTORE PUSH1 0x84 SWAP1 SWAP2 ADD SWAP1 SWAP2 MSTORE PUSH1 0x20 DUP2 ADD DUP1 MLOAD PUSH1 0x1 PUSH1 0x1 PUSH1 0xE0 SHL SUB AND PUSH4 0x23B872DD PUSH1 0xE0 SHL OR SWAP1 MSTORE PUSH2 0x1455 SWAP1 DUP6 SWAP1 PUSH2 0x1500 JUMP JUMPDEST POP POP POP POP JUMP JUMPDEST PUSH1 0x0 DUP3 DUP3 ADD PUSH4 0xFFFFFFFF DUP1 DUP6 AND SWAP1 DUP3 AND LT ISZERO PUSH2 0x139D JUMPI PUSH1 0x40 DUP1 MLOAD PUSH3 0x461BCD PUSH1 0xE5 SHL DUP2 MSTORE PUSH1 0x20 PUSH1 0x4 DUP3 ADD MSTORE PUSH1 0x1B PUSH1 0x24 DUP3 ADD MSTORE PUSH32 0x536166654D6174683A206164646974696F6E206F766572666C6F770000000000 PUSH1 0x44 DUP3 ADD MSTORE SWAP1 MLOAD SWAP1 DUP2 SWAP1 SUB PUSH1 0x64 ADD SWAP1 REVERT JUMPDEST PUSH1 0x0 PUSH2 0x139D DUP4 DUP4 PUSH1 0x40 MLOAD DUP1 PUSH1 0x40 ADD PUSH1 0x40 MSTORE DUP1 PUSH1 0x1E DUP2 MSTORE PUSH1 0x20 ADD PUSH32 0x536166654D6174683A207375627472616374696F6E206F766572666C6F770000 DUP2 MSTORE POP PUSH2 0x15B1 JUMP JUMPDEST PUSH1 0x60 PUSH2 0x1555 DUP3 PUSH1 0x40 MLOAD DUP1 PUSH1 0x40 ADD PUSH1 0x40 MSTORE DUP1 PUSH1 0x20 DUP2 MSTORE PUSH1 0x20 ADD PUSH32 0x5361666545524332303A206C6F772D6C6576656C2063616C6C206661696C6564 DUP2 MSTORE POP DUP6 PUSH1 0x1 PUSH1 0x1 PUSH1 0xA0 SHL SUB AND PUSH2 0x1648 SWAP1 SWAP3 SWAP2 SWAP1 PUSH4 0xFFFFFFFF AND JUMP JUMPDEST DUP1 MLOAD SWAP1 SWAP2 POP ISZERO PUSH2 0x13F6 JUMPI DUP1 DUP1 PUSH1 0x20 ADD SWAP1 MLOAD PUSH1 0x20 DUP2 LT ISZERO PUSH2 0x1574 JUMPI PUSH1 0x0 DUP1 REVERT JUMPDEST POP MLOAD PUSH2 0x13F6 JUMPI PUSH1 0x40 MLOAD PUSH3 0x461BCD PUSH1 0xE5 SHL DUP2 MSTORE PUSH1 0x4 ADD DUP1 DUP1 PUSH1 0x20 ADD DUP3 DUP2 SUB DUP3 MSTORE PUSH1 0x2A DUP2 MSTORE PUSH1 0x20 ADD DUP1 PUSH2 0x18AB PUSH1 0x2A SWAP2 CODECOPY PUSH1 0x40 ADD SWAP2 POP POP PUSH1 0x40 MLOAD DUP1 SWAP2 SUB SWAP1 REVERT JUMPDEST PUSH1 0x0 DUP2 DUP5 DUP5 GT ISZERO PUSH2 0x1640 JUMPI PUSH1 0x40 MLOAD PUSH3 0x461BCD PUSH1 0xE5 SHL DUP2 MSTORE PUSH1 0x4 ADD DUP1 DUP1 PUSH1 0x20 ADD DUP3 DUP2 SUB DUP3 MSTORE DUP4 DUP2 DUP2 MLOAD DUP2 MSTORE PUSH1 0x20 ADD SWAP2 POP DUP1 MLOAD SWAP1 PUSH1 0x20 ADD SWAP1 DUP1 DUP4 DUP4 PUSH1 0x0 JUMPDEST DUP4 DUP2 LT ISZERO PUSH2 0x1605 JUMPI DUP2 DUP2 ADD MLOAD DUP4 DUP3 ADD MSTORE PUSH1 0x20 ADD PUSH2 0x15ED JUMP JUMPDEST POP POP POP POP SWAP1 POP SWAP1 DUP2 ADD SWAP1 PUSH1 0x1F AND DUP1 ISZERO PUSH2 0x1632 JUMPI DUP1 DUP3 SUB DUP1 MLOAD PUSH1 0x1 DUP4 PUSH1 0x20 SUB PUSH2 0x100 EXP SUB NOT AND DUP2 MSTORE PUSH1 0x20 ADD SWAP2 POP JUMPDEST POP SWAP3 POP POP POP PUSH1 0x40 MLOAD DUP1 SWAP2 SUB SWAP1 REVERT JUMPDEST POP POP POP SWAP1 SUB SWAP1 JUMP JUMPDEST PUSH1 0x60 PUSH2 0x1657 DUP5 DUP5 PUSH1 0x0 DUP6 PUSH2 0x165F JUMP JUMPDEST SWAP5 SWAP4 POP POP POP POP JUMP JUMPDEST PUSH1 0x60 PUSH2 0x166A DUP6 PUSH2 0x17CC JUMP JUMPDEST PUSH2 0x16BB JUMPI PUSH1 0x40 DUP1 MLOAD PUSH3 0x461BCD PUSH1 0xE5 SHL DUP2 MSTORE PUSH1 0x20 PUSH1 0x4 DUP3 ADD MSTORE PUSH1 0x1D PUSH1 0x24 DUP3 ADD MSTORE PUSH32 0x416464726573733A2063616C6C20746F206E6F6E2D636F6E7472616374000000 PUSH1 0x44 DUP3 ADD MSTORE SWAP1 MLOAD SWAP1 DUP2 SWAP1 SUB PUSH1 0x64 ADD SWAP1 REVERT JUMPDEST PUSH1 0x0 PUSH1 0x60 DUP7 PUSH1 0x1 PUSH1 0x1 PUSH1 0xA0 SHL SUB AND DUP6 DUP8 PUSH1 0x40 MLOAD DUP1 DUP3 DUP1 MLOAD SWAP1 PUSH1 0x20 ADD SWAP1 DUP1 DUP4 DUP4 JUMPDEST PUSH1 0x20 DUP4 LT PUSH2 0x16FA JUMPI DUP1 MLOAD DUP3 MSTORE PUSH1 0x1F NOT SWAP1 SWAP3 ADD SWAP2 PUSH1 0x20 SWAP2 DUP3 ADD SWAP2 ADD PUSH2 0x16DB JUMP JUMPDEST PUSH1 0x1 DUP4 PUSH1 0x20 SUB PUSH2 0x100 EXP SUB DUP1 NOT DUP3 MLOAD AND DUP2 DUP5 MLOAD AND DUP1 DUP3 OR DUP6 MSTORE POP POP POP POP POP POP SWAP1 POP ADD SWAP2 POP POP PUSH1 0x0 PUSH1 0x40 MLOAD DUP1 DUP4 SUB DUP2 DUP6 DUP8 GAS CALL SWAP3 POP POP POP RETURNDATASIZE DUP1 PUSH1 0x0 DUP2 EQ PUSH2 0x175C JUMPI PUSH1 0x40 MLOAD SWAP2 POP PUSH1 0x1F NOT PUSH1 0x3F RETURNDATASIZE ADD AND DUP3 ADD PUSH1 0x40 MSTORE RETURNDATASIZE DUP3 MSTORE RETURNDATASIZE PUSH1 0x0 PUSH1 0x20 DUP5 ADD RETURNDATACOPY PUSH2 0x1761 JUMP JUMPDEST PUSH1 0x60 SWAP2 POP JUMPDEST POP SWAP2 POP SWAP2 POP DUP2 ISZERO PUSH2 0x1775 JUMPI SWAP2 POP PUSH2 0x1657 SWAP1 POP JUMP JUMPDEST DUP1 MLOAD ISZERO PUSH2 0x1785 JUMPI DUP1 MLOAD DUP1 DUP3 PUSH1 0x20 ADD REVERT JUMPDEST PUSH1 0x40 MLOAD PUSH3 0x461BCD PUSH1 0xE5 SHL DUP2 MSTORE PUSH1 0x20 PUSH1 0x4 DUP3 ADD DUP2 DUP2 MSTORE DUP7 MLOAD PUSH1 0x24 DUP5 ADD MSTORE DUP7 MLOAD DUP8 SWAP4 SWAP2 SWAP3 DUP4 SWAP3 PUSH1 0x44 ADD SWAP2 SWAP1 DUP6 ADD SWAP1 DUP1 DUP4 DUP4 PUSH1 0x0 DUP4 ISZERO PUSH2 0x1605 JUMPI DUP2 DUP2 ADD MLOAD DUP4 DUP3 ADD MSTORE PUSH1 0x20 ADD PUSH2 0x15ED JUMP JUMPDEST EXTCODESIZE ISZERO ISZERO SWAP1 JUMP JUMPDEST PUSH1 0x40 MLOAD DUP1 PUSH1 0x80 ADD PUSH1 0x40 MSTORE DUP1 PUSH1 0x0 DUP2 MSTORE PUSH1 0x20 ADD PUSH1 0x0 DUP2 MSTORE PUSH1 0x20 ADD PUSH1 0x0 DUP2 MSTORE PUSH1 0x20 ADD PUSH1 0x0 ISZERO ISZERO DUP2 MSTORE POP SWAP1 JUMP INVALID 0x4C PUSH16 0x636B65722063616E6E6F742062652073 PUSH6 0x74206D6F7265 KECCAK256 PUSH21 0x68616E206F6E63654F776E61626C653A206E657720 PUSH16 0x776E657220697320746865207A65726F KECCAK256 PUSH2 0x6464 PUSH19 0x6573735761726D75702063616E6E6F74206265 KECCAK256 PUSH20 0x6574206D6F7265207468616E206F6E63654F776E PUSH2 0x626C PUSH6 0x3A206D757374 KECCAK256 PUSH3 0x65206E PUSH6 0x77206F776E65 PUSH19 0x20746F2070756C6C4F776E61626C653A206361 PUSH13 0x6C6572206973206E6F74207468 PUSH6 0x206F776E6572 MSTORE8 PUSH2 0x6665 GASLIMIT MSTORE NUMBER ORIGIN ADDRESS GASPRICE KECCAK256 GASLIMIT MSTORE NUMBER ORIGIN ADDRESS KECCAK256 PUSH16 0x7065726174696F6E20646964206E6F74 KECCAK256 PUSH20 0x756363656564A2646970667358221220F13D338B 0xDB 0xB7 PUSH17 0xAAA063D6AE7540505EA7AE035F2162B559 DUP12 SWAP13 0xD5 JUMP 0xA6 0xC8 DUP16 STATICCALL PUSH5 0x736F6C6343 STOP SMOD SDIV STOP CALLER "
        },
        "methodIdentifiers": {
          "Strike()": "81531c64",
          "claim(address)": "1e83409a",
          "contractBalance()": "8b7afe2e",
          "distributor()": "bfe10928",
          "epoch()": "900cf0cf",
          "forfeit()": "f3d86e4a",
          "giveLockBonus(uint256)": "03c23670",
          "index()": "2986c0e5",
          "locker()": "d7b96d4e",
          "manager()": "481c6a75",
          "pullManagement()": "5a96ac0a",
          "pushManagement(address)": "46f68ee9",
          "rebase()": "af14052c",
          "renounceManagement()": "089208d8",
          "returnLockBonus(uint256)": "f62ae76a",
          "sStrike()": "cf648e26",
          "setContract(uint8,address)": "865e6fd3",
          "setWarmup(uint256)": "c9f464ff",
          "stake(uint256,address)": "7acb7757",
          "toggleDepositLock()": "8f077b83",
          "totalBonus()": "a8dd07dc",
          "unstake(uint256,bool)": "9ebea88c",
          "warmupContract()": "ed4acaa8",
          "warmupInfo(address)": "6746f4c2",
          "warmupPeriod()": "deac361a"
        }
      }
    }
  }
}