{
  "_format": "hh-sol-artifact-1",
  "contractName": "StrikeReserveValueCalculator",
  "sourceName": "contracts/ReserveValueCalculator.sol",
  "abi": [
    {
      "inputs": [],
      "stateMutability": "nonpayable",
      "type": "constructor"
    },
    {
      "anonymous": false,
      "inputs": [
        {
          "indexed": true,
          "internalType": "address",
          "name": "previousOwner",
          "type": "address"
        },
        {
          "indexed": true,
          "internalType": "address",
          "name": "newOwner",
          "type": "address"
        }
      ],
      "name": "OwnershipPulled",
      "type": "event"
    },
    {
      "anonymous": false,
      "inputs": [
        {
          "indexed": true,
          "internalType": "address",
          "name": "previousOwner",
          "type": "address"
        },
        {
          "indexed": true,
          "internalType": "address",
          "name": "newOwner",
          "type": "address"
        }
      ],
      "name": "OwnershipPushed",
      "type": "event"
    },
    {
      "inputs": [],
      "name": "manager",
      "outputs": [
        {
          "internalType": "address",
          "name": "",
          "type": "address"
        }
      ],
      "stateMutability": "view",
      "type": "function"
    },
    {
      "inputs": [],
      "name": "pullManagement",
      "outputs": [],
      "stateMutability": "nonpayable",
      "type": "function"
    },
    {
      "inputs": [
        {
          "internalType": "address",
          "name": "newOwner_",
          "type": "address"
        }
      ],
      "name": "pushManagement",
      "outputs": [],
      "stateMutability": "nonpayable",
      "type": "function"
    },
    {
      "inputs": [],
      "name": "renounceManagement",
      "outputs": [],
      "stateMutability": "nonpayable",
      "type": "function"
    },
    {
      "inputs": [
        {
          "internalType": "address",
          "name": "",
          "type": "address"
        }
      ],
      "name": "reserveDetails",
      "outputs": [
        {
          "internalType": "address",
          "name": "lp",
          "type": "address"
        },
        {
          "internalType": "address",
          "name": "stable",
          "type": "address"
        },
        {
          "internalType": "address",
          "name": "principle",
          "type": "address"
        },
        {
          "internalType": "uint256",
          "name": "controlVariable",
          "type": "uint256"
        },
        {
          "internalType": "bool",
          "name": "isStable",
          "type": "bool"
        }
      ],
      "stateMutability": "view",
      "type": "function"
    },
    {
      "inputs": [
        {
          "internalType": "address",
          "name": "_reserve",
          "type": "address"
        },
        {
          "internalType": "uint256",
          "name": "_controlVariable",
          "type": "uint256"
        }
      ],
      "name": "updateControlVariable",
      "outputs": [],
      "stateMutability": "nonpayable",
      "type": "function"
    },
    {
      "inputs": [
        {
          "internalType": "address",
          "name": "_reserve",
          "type": "address"
        },
        {
          "internalType": "address",
          "name": "_lp",
          "type": "address"
        },
        {
          "internalType": "address",
          "name": "_stable",
          "type": "address"
        },
        {
          "internalType": "address",
          "name": "_principle",
          "type": "address"
        },
        {
          "internalType": "uint256",
          "name": "_controlVariable",
          "type": "uint256"
        },
        {
          "internalType": "bool",
          "name": "_isStable",
          "type": "bool"
        }
      ],
      "name": "updateReserveTokenDetails",
      "outputs": [],
      "stateMutability": "nonpayable",
      "type": "function"
    },
    {
      "inputs": [
        {
          "internalType": "address",
          "name": "_reserve",
          "type": "address"
        }
      ],
      "name": "valueOfReserveToken",
      "outputs": [
        {
          "internalType": "uint256",
          "name": "_value",
          "type": "uint256"
        }
      ],
      "stateMutability": "view",
      "type": "function"
    }
  ],
  "bytecode": "0x608060405234801561001057600080fd5b50600080546001600160a01b03191633178082556040516001600160a01b039190911691907fea8258f2d9ddb679928cf34b78cf645b7feda9acc828e4dd82d014eaae270eba908290a3610b0e806100696000396000f3fe608060405234801561001057600080fd5b50600436106100885760003560e01c8063481c6a751161005b578063481c6a75146101435780635476e22a146101675780635a96ac0a146101935780637c2975d21461019b57610088565b806304adfd5c1461008d578063089208d8146100c557806344963815146100cf57806346f68ee91461011d575b600080fd5b6100b3600480360360208110156100a357600080fd5b50356001600160a01b03166101fb565b60408051918252519081900360200190f35b6100cd6104be565b005b6100cd600480360360c08110156100e557600080fd5b506001600160a01b0381358116916020810135821691604082013581169160608101359091169060808101359060a001351515610555565b6100cd6004803603602081101561013357600080fd5b50356001600160a01b03166106f8565b61014b6107e5565b604080516001600160a01b039092168252519081900360200190f35b6100cd6004803603604081101561017d57600080fd5b506001600160a01b0381351690602001356107f4565b6100cd6108a1565b6101c1600480360360208110156101b157600080fd5b50356001600160a01b031661094b565b604080516001600160a01b039687168152948616602086015292909416838301526060830152911515608082015290519081900360a00190f35b6001600160a01b03811660009081526003602052604081206004015460ff1615156001141561022c575060646104b9565b6001600160a01b03808316600090815260036020908152604080832060010154815163313ce56760e01b815291519394169263313ce56792600480840193919291829003018186803b15801561028157600080fd5b505afa158015610295573d6000803e3d6000fd5b505050506040513d60208110156102ab57600080fd5b50516001600160a01b03808516600090815260036020818152604092839020918201546001830154925484516370a0823160e01b81529086166004820152935160ff909616600a90810a9661036096919561035a95939493909216926370a082319260248082019391829003018186803b15801561032857600080fd5b505afa15801561033c573d6000803e3d6000fd5b505050506040513d602081101561035257600080fd5b50519061098d565b9061098d565b8161036757fe5b049050600060036000856001600160a01b03166001600160a01b0316815260200190815260200160002060020160009054906101000a90046001600160a01b03166001600160a01b031663313ce5676040518163ffffffff1660e01b815260040160206040518083038186803b1580156103e057600080fd5b505afa1580156103f4573d6000803e3d6000fd5b505050506040513d602081101561040a57600080fd5b50516001600160a01b038086166000908152600360209081526040918290206002810154905483516370a0823160e01b81529085166004820152925160ff909516600a0a949316926370a08231926024808201939291829003018186803b15801561047457600080fd5b505afa158015610488573d6000803e3d6000fd5b505050506040513d602081101561049e57600080fd5b5051816104a757fe5b0490508082816104b357fe5b04925050505b919050565b6000546001600160a01b0316331461050b576040805162461bcd60e51b81526020600482018190526024820152600080516020610ab9833981519152604482015290519081900360640190fd5b600080546040516001600160a01b03909116907fea8258f2d9ddb679928cf34b78cf645b7feda9acc828e4dd82d014eaae270eba908390a3600080546001600160a01b0319169055565b6000546001600160a01b031633146105a2576040805162461bcd60e51b81526020600482018190526024820152600080516020610ab9833981519152604482015290519081900360640190fd5b6001600160a01b0386166105b557600080fd5b600a8210156105c357600080fd5b80610606576001600160a01b0385166105db57600080fd5b6001600160a01b0384166105ee57600080fd5b6001600160a01b03831661060157600080fd5b610642565b6001600160a01b0385161561061a57600080fd5b6001600160a01b0384161561062e57600080fd5b6001600160a01b0383161561064257600080fd5b61064a6109ef565b506040805160a0810182526001600160a01b03968716815294861660208087019182529487168683019081526060870194855292151560808701908152978716600090815260039586905291909120945185549087166001600160a01b0319918216178655905160018601805491881691831691909117905590516002850180549190961691161790935591519181019190915590516004909101805491151560ff19909216919091179055565b6000546001600160a01b03163314610745576040805162461bcd60e51b81526020600482018190526024820152600080516020610ab9833981519152604482015290519081900360640190fd5b6001600160a01b03811661078a5760405162461bcd60e51b8152600401808060200182810382526026815260200180610a1e6026913960400191505060405180910390fd5b600080546040516001600160a01b03808516939216917fea8258f2d9ddb679928cf34b78cf645b7feda9acc828e4dd82d014eaae270eba91a3600180546001600160a01b0319166001600160a01b0392909216919091179055565b6000546001600160a01b031690565b6000546001600160a01b03163314610841576040805162461bcd60e51b81526020600482018190526024820152600080516020610ab9833981519152604482015290519081900360640190fd5b600a8110156108815760405162461bcd60e51b8152600401808060200182810382526032815260200180610a446032913960400191505060405180910390fd5b6001600160a01b0390911660009081526003602081905260409091200155565b6001546001600160a01b031633146108ea5760405162461bcd60e51b8152600401808060200182810382526022815260200180610a766022913960400191505060405180910390fd5b600154600080546040516001600160a01b0393841693909116917faa151555690c956fc3ea32f106bb9f119b5237a061eaa8557cff3e51e3792c8d91a3600154600080546001600160a01b0319166001600160a01b03909216919091179055565b6003602081905260009182526040909120805460018201546002830154938301546004909301546001600160a01b039283169491831693919092169160ff1685565b60008261099c575060006109e9565b828202828482816109a957fe5b04146109e65760405162461bcd60e51b8152600401808060200182810382526021815260200180610a986021913960400191505060405180910390fd5b90505b92915050565b6040805160a0810182526000808252602082018190529181018290526060810182905260808101919091529056fe4f776e61626c653a206e6577206f776e657220697320746865207a65726f2061646472657373436f6e74726f6c207661726961626c65206d75737420626520657175616c206f722067726561746572207468616e203130214f776e61626c653a206d757374206265206e6577206f776e657220746f2070756c6c536166654d6174683a206d756c7469706c69636174696f6e206f766572666c6f774f776e61626c653a2063616c6c6572206973206e6f7420746865206f776e6572a26469706673582212204890f88ea4297f54d65add1dd449b0bed1937fb5292c106b39a50a9414a2b1d864736f6c63430007050033",
  "linkReferences": {},
  "deployedLinkReferences": {}
}