{
  "_format": "hh-sol-artifact-1",
  "contractName": "StrikeBondDepositoryCustom",
  "sourceName": "contracts/CustomBondDepository.sol",
  "abi": [
    {
      "inputs": [
        {
          "internalType": "address",
          "name": "_Strike",
          "type": "address"
        },
        {
          "internalType": "address",
          "name": "_principle",
          "type": "address"
        },
        {
          "internalType": "address",
          "name": "_dexPair",
          "type": "address"
        },
        {
          "internalType": "address",
          "name": "_stable",
          "type": "address"
        },
        {
          "internalType": "address",
          "name": "_treasury",
          "type": "address"
        },
        {
          "internalType": "address",
          "name": "_DAO",
          "type": "address"
        }
      ],
      "stateMutability": "nonpayable",
      "type": "constructor"
    },
    {
      "anonymous": false,
      "inputs": [
        {
          "indexed": false,
          "internalType": "uint256",
          "name": "deposit",
          "type": "uint256"
        },
        {
          "indexed": true,
          "internalType": "uint256",
          "name": "payout",
          "type": "uint256"
        },
        {
          "indexed": true,
          "internalType": "uint256",
          "name": "expires",
          "type": "uint256"
        },
        {
          "indexed": true,
          "internalType": "uint256",
          "name": "priceInUSD",
          "type": "uint256"
        }
      ],
      "name": "BondCreated",
      "type": "event"
    },
    {
      "anonymous": false,
      "inputs": [
        {
          "indexed": true,
          "internalType": "uint256",
          "name": "priceInUSD",
          "type": "uint256"
        },
        {
          "indexed": true,
          "internalType": "uint256",
          "name": "internalPrice",
          "type": "uint256"
        },
        {
          "indexed": true,
          "internalType": "uint256",
          "name": "debtRatio",
          "type": "uint256"
        }
      ],
      "name": "BondPriceChanged",
      "type": "event"
    },
    {
      "anonymous": false,
      "inputs": [
        {
          "indexed": true,
          "internalType": "address",
          "name": "recipient",
          "type": "address"
        },
        {
          "indexed": false,
          "internalType": "uint256",
          "name": "payout",
          "type": "uint256"
        },
        {
          "indexed": false,
          "internalType": "uint256",
          "name": "remaining",
          "type": "uint256"
        }
      ],
      "name": "BondRedeemed",
      "type": "event"
    },
    {
      "anonymous": false,
      "inputs": [
        {
          "indexed": false,
          "internalType": "uint256",
          "name": "initialBCV",
          "type": "uint256"
        },
        {
          "indexed": false,
          "internalType": "uint256",
          "name": "newBCV",
          "type": "uint256"
        },
        {
          "indexed": false,
          "internalType": "uint256",
          "name": "adjustment",
          "type": "uint256"
        },
        {
          "indexed": false,
          "internalType": "bool",
          "name": "addition",
          "type": "bool"
        }
      ],
      "name": "ControlVariableAdjustment",
      "type": "event"
    },
    {
      "anonymous": false,
      "inputs": [
        {
          "indexed": true,
          "internalType": "address",
          "name": "previousOwner",
          "type": "address"
        },
        {
          "indexed": true,
          "internalType": "address",
          "name": "newOwner",
          "type": "address"
        }
      ],
      "name": "OwnershipPulled",
      "type": "event"
    },
    {
      "anonymous": false,
      "inputs": [
        {
          "indexed": true,
          "internalType": "address",
          "name": "previousOwner",
          "type": "address"
        },
        {
          "indexed": true,
          "internalType": "address",
          "name": "newOwner",
          "type": "address"
        }
      ],
      "name": "OwnershipPushed",
      "type": "event"
    },
    {
      "inputs": [],
      "name": "DAO",
      "outputs": [
        {
          "internalType": "address",
          "name": "",
          "type": "address"
        }
      ],
      "stateMutability": "view",
      "type": "function"
    },
    {
      "inputs": [],
      "name": "Strike",
      "outputs": [
        {
          "internalType": "address",
          "name": "",
          "type": "address"
        }
      ],
      "stateMutability": "view",
      "type": "function"
    },
    {
      "inputs": [],
      "name": "adjustment",
      "outputs": [
        {
          "internalType": "bool",
          "name": "add",
          "type": "bool"
        },
        {
          "internalType": "uint256",
          "name": "rate",
          "type": "uint256"
        },
        {
          "internalType": "uint256",
          "name": "target",
          "type": "uint256"
        },
        {
          "internalType": "uint32",
          "name": "buffer",
          "type": "uint32"
        },
        {
          "internalType": "uint32",
          "name": "lastTime",
          "type": "uint32"
        }
      ],
      "stateMutability": "view",
      "type": "function"
    },
    {
      "inputs": [],
      "name": "assetPrice",
      "outputs": [
        {
          "internalType": "int256",
          "name": "",
          "type": "int256"
        }
      ],
      "stateMutability": "view",
      "type": "function"
    },
    {
      "inputs": [
        {
          "internalType": "address",
          "name": "",
          "type": "address"
        }
      ],
      "name": "bondInfo",
      "outputs": [
        {
          "internalType": "uint256",
          "name": "payout",
          "type": "uint256"
        },
        {
          "internalType": "uint256",
          "name": "pricePaid",
          "type": "uint256"
        },
        {
          "internalType": "uint32",
          "name": "vesting",
          "type": "uint32"
        },
        {
          "internalType": "uint32",
          "name": "lastTime",
          "type": "uint32"
        }
      ],
      "stateMutability": "view",
      "type": "function"
    },
    {
      "inputs": [],
      "name": "bondPrice",
      "outputs": [
        {
          "internalType": "uint256",
          "name": "price_",
          "type": "uint256"
        }
      ],
      "stateMutability": "view",
      "type": "function"
    },
    {
      "inputs": [],
      "name": "bondPriceInUSD",
      "outputs": [
        {
          "internalType": "uint256",
          "name": "price_",
          "type": "uint256"
        }
      ],
      "stateMutability": "view",
      "type": "function"
    },
    {
      "inputs": [],
      "name": "currentDebt",
      "outputs": [
        {
          "internalType": "uint256",
          "name": "",
          "type": "uint256"
        }
      ],
      "stateMutability": "view",
      "type": "function"
    },
    {
      "inputs": [],
      "name": "debtDecay",
      "outputs": [
        {
          "internalType": "uint256",
          "name": "decay_",
          "type": "uint256"
        }
      ],
      "stateMutability": "view",
      "type": "function"
    },
    {
      "inputs": [],
      "name": "debtRatio",
      "outputs": [
        {
          "internalType": "uint256",
          "name": "debtRatio_",
          "type": "uint256"
        }
      ],
      "stateMutability": "view",
      "type": "function"
    },
    {
      "inputs": [
        {
          "internalType": "uint256",
          "name": "_amount",
          "type": "uint256"
        },
        {
          "internalType": "uint256",
          "name": "_maxPrice",
          "type": "uint256"
        },
        {
          "internalType": "address",
          "name": "_depositor",
          "type": "address"
        }
      ],
      "name": "deposit",
      "outputs": [
        {
          "internalType": "uint256",
          "name": "",
          "type": "uint256"
        }
      ],
      "stateMutability": "nonpayable",
      "type": "function"
    },
    {
      "inputs": [],
      "name": "dexPair",
      "outputs": [
        {
          "internalType": "address",
          "name": "",
          "type": "address"
        }
      ],
      "stateMutability": "view",
      "type": "function"
    },
    {
      "inputs": [
        {
          "internalType": "uint256",
          "name": "_controlVariable",
          "type": "uint256"
        },
        {
          "internalType": "uint256",
          "name": "_minimumPrice",
          "type": "uint256"
        },
        {
          "internalType": "uint256",
          "name": "_maxPayout",
          "type": "uint256"
        },
        {
          "internalType": "uint256",
          "name": "_maxDebt",
          "type": "uint256"
        },
        {
          "internalType": "uint256",
          "name": "_fee",
          "type": "uint256"
        },
        {
          "internalType": "uint256",
          "name": "_initialDebt",
          "type": "uint256"
        },
        {
          "internalType": "uint32",
          "name": "_vestingTerm",
          "type": "uint32"
        }
      ],
      "name": "initializeBondTerms",
      "outputs": [],
      "stateMutability": "nonpayable",
      "type": "function"
    },
    {
      "inputs": [],
      "name": "lastDecay",
      "outputs": [
        {
          "internalType": "uint32",
          "name": "",
          "type": "uint32"
        }
      ],
      "stateMutability": "view",
      "type": "function"
    },
    {
      "inputs": [],
      "name": "maxPayout",
      "outputs": [
        {
          "internalType": "uint256",
          "name": "",
          "type": "uint256"
        }
      ],
      "stateMutability": "view",
      "type": "function"
    },
    {
      "inputs": [
        {
          "internalType": "uint256",
          "name": "_value",
          "type": "uint256"
        }
      ],
      "name": "payoutFor",
      "outputs": [
        {
          "internalType": "uint256",
          "name": "",
          "type": "uint256"
        }
      ],
      "stateMutability": "view",
      "type": "function"
    },
    {
      "inputs": [
        {
          "internalType": "address",
          "name": "_depositor",
          "type": "address"
        }
      ],
      "name": "pendingPayoutFor",
      "outputs": [
        {
          "internalType": "uint256",
          "name": "pendingPayout_",
          "type": "uint256"
        }
      ],
      "stateMutability": "view",
      "type": "function"
    },
    {
      "inputs": [
        {
          "internalType": "address",
          "name": "_depositor",
          "type": "address"
        }
      ],
      "name": "percentVestedFor",
      "outputs": [
        {
          "internalType": "uint256",
          "name": "percentVested_",
          "type": "uint256"
        }
      ],
      "stateMutability": "view",
      "type": "function"
    },
    {
      "inputs": [],
      "name": "policy",
      "outputs": [
        {
          "internalType": "address",
          "name": "",
          "type": "address"
        }
      ],
      "stateMutability": "view",
      "type": "function"
    },
    {
      "inputs": [],
      "name": "principle",
      "outputs": [
        {
          "internalType": "address",
          "name": "",
          "type": "address"
        }
      ],
      "stateMutability": "view",
      "type": "function"
    },
    {
      "inputs": [],
      "name": "pullManagement",
      "outputs": [],
      "stateMutability": "nonpayable",
      "type": "function"
    },
    {
      "inputs": [
        {
          "internalType": "address",
          "name": "newOwner_",
          "type": "address"
        }
      ],
      "name": "pushManagement",
      "outputs": [],
      "stateMutability": "nonpayable",
      "type": "function"
    },
    {
      "inputs": [
        {
          "internalType": "address",
          "name": "_token",
          "type": "address"
        }
      ],
      "name": "recoverLostToken",
      "outputs": [
        {
          "internalType": "bool",
          "name": "",
          "type": "bool"
        }
      ],
      "stateMutability": "nonpayable",
      "type": "function"
    },
    {
      "inputs": [
        {
          "internalType": "address",
          "name": "_recipient",
          "type": "address"
        },
        {
          "internalType": "bool",
          "name": "_stake",
          "type": "bool"
        }
      ],
      "name": "redeem",
      "outputs": [
        {
          "internalType": "uint256",
          "name": "",
          "type": "uint256"
        }
      ],
      "stateMutability": "nonpayable",
      "type": "function"
    },
    {
      "inputs": [],
      "name": "renounceManagement",
      "outputs": [],
      "stateMutability": "nonpayable",
      "type": "function"
    },
    {
      "inputs": [
        {
          "internalType": "bool",
          "name": "_addition",
          "type": "bool"
        },
        {
          "internalType": "uint256",
          "name": "_increment",
          "type": "uint256"
        },
        {
          "internalType": "uint256",
          "name": "_target",
          "type": "uint256"
        },
        {
          "internalType": "uint32",
          "name": "_buffer",
          "type": "uint32"
        }
      ],
      "name": "setAdjustment",
      "outputs": [],
      "stateMutability": "nonpayable",
      "type": "function"
    },
    {
      "inputs": [
        {
          "internalType": "enum StrikeBondDepositoryCustom.PARAMETER",
          "name": "_parameter",
          "type": "uint8"
        },
        {
          "internalType": "uint256",
          "name": "_input",
          "type": "uint256"
        }
      ],
      "name": "setBondTerms",
      "outputs": [],
      "stateMutability": "nonpayable",
      "type": "function"
    },
    {
      "inputs": [
        {
          "internalType": "address",
          "name": "_staking",
          "type": "address"
        },
        {
          "internalType": "bool",
          "name": "_helper",
          "type": "bool"
        }
      ],
      "name": "setStaking",
      "outputs": [],
      "stateMutability": "nonpayable",
      "type": "function"
    },
    {
      "inputs": [],
      "name": "stable",
      "outputs": [
        {
          "internalType": "address",
          "name": "",
          "type": "address"
        }
      ],
      "stateMutability": "view",
      "type": "function"
    },
    {
      "inputs": [],
      "name": "staking",
      "outputs": [
        {
          "internalType": "address",
          "name": "",
          "type": "address"
        }
      ],
      "stateMutability": "view",
      "type": "function"
    },
    {
      "inputs": [],
      "name": "stakingHelper",
      "outputs": [
        {
          "internalType": "address",
          "name": "",
          "type": "address"
        }
      ],
      "stateMutability": "view",
      "type": "function"
    },
    {
      "inputs": [],
      "name": "standardizedDebtRatio",
      "outputs": [
        {
          "internalType": "uint256",
          "name": "",
          "type": "uint256"
        }
      ],
      "stateMutability": "view",
      "type": "function"
    },
    {
      "inputs": [],
      "name": "terms",
      "outputs": [
        {
          "internalType": "uint256",
          "name": "controlVariable",
          "type": "uint256"
        },
        {
          "internalType": "uint256",
          "name": "minimumPrice",
          "type": "uint256"
        },
        {
          "internalType": "uint256",
          "name": "maxPayout",
          "type": "uint256"
        },
        {
          "internalType": "uint256",
          "name": "fee",
          "type": "uint256"
        },
        {
          "internalType": "uint256",
          "name": "maxDebt",
          "type": "uint256"
        },
        {
          "internalType": "uint32",
          "name": "vestingTerm",
          "type": "uint32"
        }
      ],
      "stateMutability": "view",
      "type": "function"
    },
    {
      "inputs": [],
      "name": "totalDebt",
      "outputs": [
        {
          "internalType": "uint256",
          "name": "",
          "type": "uint256"
        }
      ],
      "stateMutability": "view",
      "type": "function"
    },
    {
      "inputs": [],
      "name": "treasury",
      "outputs": [
        {
          "internalType": "address",
          "name": "",
          "type": "address"
        }
      ],
      "stateMutability": "view",
      "type": "function"
    },
    {
      "inputs": [],
      "name": "useHelper",
      "outputs": [
        {
          "internalType": "bool",
          "name": "",
          "type": "bool"
        }
      ],
      "stateMutability": "view",
      "type": "function"
    }
  ],
  "bytecode": "0x6101406040523480156200001257600080fd5b5060405162002e0738038062002e07833981810160405260c08110156200003857600080fd5b50805160208201516040808401516060850151608086015160a090960151600080546001600160a01b031916331780825594519697959693959294929391926001600160a01b0316917fea8258f2d9ddb679928cf34b78cf645b7feda9acc828e4dd82d014eaae270eba908290a36001600160a01b038616620000ba57600080fd5b6001600160601b0319606087901b166080526001600160a01b038516620000e057600080fd5b6001600160601b0319606086901b1660a0526001600160a01b0384166200010657600080fd5b6001600160601b0319606085901b1660c0526001600160a01b0383166200012c57600080fd5b6001600160601b0319606084901b1660e0526001600160a01b0382166200015257600080fd5b6001600160601b0319606083901b16610100526001600160a01b0381166200017957600080fd5b6001600160601b031960609190911b1661012052505050505060805160601c60a05160601c60c05160601c60e05160601c6101005160601c6101205160601c612bb0620002576000398061124552806113ee5280611559525080610de25280610f9b52806111515280611180525080610b37528061181052806118de5250806118ab52806119fc5280611cd95250806105e85280610fca528061112e528061151752806119615280611a2f525080610e55528061122352806114d852806116415280611bf55280611db85280611e9d5280611fb25250612bb06000f3fe608060405234801561001057600080fd5b506004361061021c5760003560e01c8063844b5c7c11610125578063d24378eb116100ad578063e0176de81161007c578063e0176de8146105a5578063e392a262146105ad578063f242ab41146105b5578063f5c2ab5b146105bd578063fc7b9c18146105de5761021c565b8063d24378eb14610526578063d4d863ce1461052e578063d50256251461055c578063d7ccfb0b1461059d5761021c565b8063ae9832cf116100f4578063ae9832cf14610428578063b4abccba1461045f578063cd1234b314610485578063cea55f57146104d7578063cf37a891146104df5761021c565b8063844b5c7c146103de5780638dbdbe6d146103e6578063904b3ece1461041857806398fabd3a146104205761021c565b806346f68ee9116101a857806361d027b31161017757806361d027b3146103a1578063759076e5146103a957806377b81895146103b15780637927ebf8146103b957806381531c64146103d65761021c565b806346f68ee9146103455780634cf088d91461036b578063507930ec146103735780635a96ac0a146103995761021c565b80631e321a0f116101ef5780631e321a0f1461028f5780631feed31f146102b557806322be3de1146102e35780632f3f470a146102eb578063451ee4a1146103075761021c565b8063016a42841461022157806301b88ee8146102455780630505c8c91461027d578063089208d814610285575b600080fd5b6102296105e6565b604080516001600160a01b039092168252519081900360200190f35b61026b6004803603602081101561025b57600080fd5b50356001600160a01b031661060a565b60408051918252519081900360200190f35b610229610663565b61028d610673565b005b61028d600480360360408110156102a557600080fd5b5060ff813516906020013561070a565b61026b600480360360408110156102cb57600080fd5b506001600160a01b03813516906020013515156108ed565b610229610b35565b6102f3610b59565b604080519115158252519081900360200190f35b61030f610b69565b60408051951515865260208601949094528484019290925263ffffffff9081166060850152166080830152519081900360a00190f35b61028d6004803603602081101561035b57600080fd5b50356001600160a01b0316610b8f565b610229610c7c565b61026b6004803603602081101561038957600080fd5b50356001600160a01b0316610c8b565b61028d610d36565b610229610de0565b61026b610e04565b610229610e1f565b61026b600480360360208110156103cf57600080fd5b5035610e2e565b610229610e53565b61026b610e77565b61026b600480360360608110156103fc57600080fd5b50803590602081013590604001356001600160a01b0316610e99565b61026b6113cf565b6102296113ec565b61028d6004803603608081101561043e57600080fd5b5080351515906020810135906040810135906060013563ffffffff16611410565b6102f36004803603602081101561047557600080fd5b50356001600160a01b03166114d4565b6104ab6004803603602081101561049b57600080fd5b50356001600160a01b031661160a565b60408051948552602085019390935263ffffffff91821684840152166060830152519081900360800190f35b61026b61163c565b61028d600480360360e08110156104f557600080fd5b5080359060208101359060408101359060608101359060808101359060a08101359060c0013563ffffffff166116f4565b61026b61180b565b61028d6004803603604081101561054457600080fd5b506001600160a01b0381351690602001351515611ad2565b610564611b95565b604080519687526020870195909552858501939093526060850191909152608084015263ffffffff1660a0830152519081900360c00190f35b61026b611bb0565b61026b611be1565b61026b611c7e565b610229611cd7565b6105c5611cfb565b6040805163ffffffff9092168252519081900360200190f35b61026b611d07565b7f000000000000000000000000000000000000000000000000000000000000000081565b60008061061683610c8b565b6001600160a01b0384166000908152600e602052604090205490915061271082106106435780925061065c565b6106596127106106538385611d0d565b90611d6d565b92505b5050919050565b6000546001600160a01b03165b90565b6000546001600160a01b031633146106c0576040805162461bcd60e51b81526020600482018190526024820152600080516020612aea833981519152604482015290519081900360640190fd5b600080546040516001600160a01b03909116907fea8258f2d9ddb679928cf34b78cf645b7feda9acc828e4dd82d014eaae270eba908390a3600080546001600160a01b0319169055565b6000546001600160a01b03163314610757576040805162461bcd60e51b81526020600482018190526024820152600080516020612aea833981519152604482015290519081900360640190fd5b600082600481111561076557fe5b14156107c7576201fa408110156107ad5760405162461bcd60e51b8152600401808060200182810382526024815260200180612b2d6024913960400191505060405180910390fd5b6009805463ffffffff191663ffffffff83161790556108e9565b60018260048111156107d557fe5b141561083c576103e8811115610832576040805162461bcd60e51b815260206004820181905260248201527f5061796f75742063616e6e6f742062652061626f766520312070657263656e74604482015290519081900360640190fd5b60068190556108e9565b600282600481111561084a57fe5b14156108b1576127108111156108a7576040805162461bcd60e51b815260206004820152601c60248201527f44414f206665652063616e6e6f7420657863656564207061796f757400000000604482015290519081900360640190fd5b60078190556108e9565b60038260048111156108bf57fe5b14156108cf5760088190556108e9565b60048260048111156108dd57fe5b14156108e95760058190555b5050565b60006108f7612a14565b506001600160a01b0383166000908152600e602090815260408083208151608081018352815481526001820154938101939093526002015463ffffffff80821692840192909252600160201b90041660608201529061095585610c8b565b905061271081106109ea576001600160a01b0385166000818152600e6020908152604080832083815560018101849055600201805467ffffffffffffffff19169055855181519081529182019290925281517f51c99f515c87b0d95ba97f616edd182e8f161c4932eac17c6fefe9dab58b77b1929181900390910190a26109e185858460000151611daf565b92505050610b2f565b8151600090610a0190612710906106539085611d0d565b90506040518060800160405280610a258386600001516120b390919063ffffffff16565b815260200184602001518152602001610a6d610a5486606001514263ffffffff166120f590919063ffffffff16565b866040015163ffffffff166120f590919063ffffffff16565b63ffffffff90811682524281166020928301526001600160a01b0389166000818152600e8452604090819020855180825586860151600183015586830151600290920180546060909801518616600160201b0267ffffffff00000000199390961663ffffffff19909816979097179190911693909317909455835185815292830191909152825190927f51c99f515c87b0d95ba97f616edd182e8f161c4932eac17c6fefe9dab58b77b1928290030190a2610b29868683611daf565b93505050505b92915050565b7f000000000000000000000000000000000000000000000000000000000000000081565b600354600160a01b900460ff1681565b600a54600b54600c54600d5460ff9093169263ffffffff80821691600160201b90041685565b6000546001600160a01b03163314610bdc576040805162461bcd60e51b81526020600482018190526024820152600080516020612aea833981519152604482015290519081900360640190fd5b6001600160a01b038116610c215760405162461bcd60e51b8152600401808060200182810382526026815260200180612a5b6026913960400191505060405180910390fd5b600080546040516001600160a01b03808516939216917fea8258f2d9ddb679928cf34b78cf645b7feda9acc828e4dd82d014eaae270eba91a3600180546001600160a01b0319166001600160a01b0392909216919091179055565b6002546001600160a01b031681565b6000610c95612a14565b506001600160a01b0382166000908152600e602090815260408083208151608081018352815481526001820154938101939093526002015463ffffffff80821692840192909252600160201b9004811660608301819052919291610cfe9142811691906120b316565b604083015190915063ffffffff168015610d2957610d228161065384612710611d0d565b9350610d2e565b600093505b505050919050565b6001546001600160a01b03163314610d7f5760405162461bcd60e51b8152600401808060200182810382526022815260200180612a816022913960400191505060405180910390fd5b600154600080546040516001600160a01b0393841693909116917faa151555690c956fc3ea32f106bb9f119b5237a061eaa8557cff3e51e3792c8d91a3600154600080546001600160a01b0319166001600160a01b03909216919091179055565b7f000000000000000000000000000000000000000000000000000000000000000081565b6000610e1a610e11611c7e565b600f54906120b3565b905090565b6003546001600160a01b031681565b6000610b2f655af3107a4000610653610e4e85610e49611bb0565b612137565b6122ae565b7f000000000000000000000000000000000000000000000000000000000000000081565b6000610e1a620f4240610e93610e8b61180b565b610e93611bb0565b90611d0d565b60006001600160a01b038216610ee8576040805162461bcd60e51b815260206004820152600f60248201526e496e76616c6964206164647265737360881b604482015290519081900360640190fd5b610ef06122c6565b600854600f541115610f40576040805162461bcd60e51b815260206004820152601460248201527313585e0818d85c1858da5d1e481c995858da195960621b604482015290519081900360640190fd5b6000610f4a610e77565b90506000610f566122eb565b905080851015610f975760405162461bcd60e51b8152600401808060200182810382526023815260200180612b0a6023913960400191505060405180910390fd5b60007f00000000000000000000000000000000000000000000000000000000000000006001600160a01b0316631eec5a9a7f0000000000000000000000000000000000000000000000000000000000000000896040518363ffffffff1660e01b815260040180836001600160a01b031681526020018281526020019250505060206040518083038186803b15801561102e57600080fd5b505afa158015611042573d6000803e3d6000fd5b505050506040513d602081101561105857600080fd5b50519050600061106782610e2e565b9050629896808110156110b2576040805162461bcd60e51b815260206004820152600e60248201526d109bdb99081d1bdbc81cdb585b1b60921b604482015290519081900360640190fd5b6110ba611be1565b8111156110ff576040805162461bcd60e51b815260206004820152600e60248201526d426f6e6420746f6f206c6172676560901b604482015290519081900360640190fd5b600061111f61271061065360046003015485611d0d90919063ffffffff16565b90506111766001600160a01b037f000000000000000000000000000000000000000000000000000000000000000016337f00000000000000000000000000000000000000000000000000000000000000008c612325565b6001600160a01b037f000000000000000000000000000000000000000000000000000000000000000016636a20de92306111b08585612385565b6040518363ffffffff1660e01b815260040180836001600160a01b0316815260200182815260200192505050600060405180830381600087803b1580156111f657600080fd5b505af115801561120a573d6000803e3d6000fd5b505050508060001461126a5761126a6001600160a01b037f0000000000000000000000000000000000000000000000000000000000000000167f0000000000000000000000000000000000000000000000000000000000000000836123df565b600f546112779084612385565b600f55604080516080810182526001600160a01b0389166000908152600e602052919091205481906112a99085612385565b815260208082018890526009805463ffffffff908116604080860191909152428083166060968701526001600160a01b038e166000908152600e865282902087518155948701516001860155908601516002909401805496909501518216600160201b0267ffffffff000000001994831663ffffffff1990971696909617939093169490941790925590548792611344929181169061238516565b604080518c8152905185917f1fec6dc81f140574bf43f6b1e420ae1dd47928b9d57db8cbd7b8611063b85ae5919081900360200190a461138261163c565b61138a6122eb565b611392610e77565b6040517f375b221f40939bfd8f49723a17cf7bc6d576ebf72efe2cc3e991826f5b3f390a90600090a46113c3612436565b50979650505050505050565b6000610e1a6305f5e1006106536113e461180b565b610e9361163c565b7f000000000000000000000000000000000000000000000000000000000000000081565b6000546001600160a01b0316331461145d576040805162461bcd60e51b81526020600482018190526024820152600080516020612aea833981519152604482015290519081900360640190fd5b6040805160a0810182529415158086526020860185905290850183905263ffffffff91821660608601819052429092166080909501859052600a805460ff19169091179055600b92909255600c55600d805463ffffffff191690911767ffffffff000000001916600160201b909202919091179055565b60007f00000000000000000000000000000000000000000000000000000000000000006001600160a01b0316826001600160a01b0316141561151557600080fd5b7f00000000000000000000000000000000000000000000000000000000000000006001600160a01b0316826001600160a01b0316141561155457600080fd5b6116027f0000000000000000000000000000000000000000000000000000000000000000836001600160a01b03166370a08231306040518263ffffffff1660e01b815260040180826001600160a01b0316815260200191505060206040518083038186803b1580156115c557600080fd5b505afa1580156115d9573d6000803e3d6000fd5b505050506040513d60208110156115ef57600080fd5b50516001600160a01b03851691906123df565b506001919050565b600e6020526000908152604090208054600182015460029092015490919063ffffffff80821691600160201b90041684565b6000807f00000000000000000000000000000000000000000000000000000000000000006001600160a01b03166318160ddd6040518163ffffffff1660e01b815260040160206040518083038186803b15801561169857600080fd5b505afa1580156116ac573d6000803e3d6000fd5b505050506040513d60208110156116c257600080fd5b505190506116ee670de0b6b3a7640000610653610e4e6116e8633b9aca00610e93610e04565b85612137565b91505090565b6000546001600160a01b03163314611741576040805162461bcd60e51b81526020600482018190526024820152600080516020612aea833981519152604482015290519081900360640190fd5b60045415611796576040805162461bcd60e51b815260206004820181905260248201527f426f6e6473206d75737420626520696e697469616c697a65642066726f6d2030604482015290519081900360640190fd5b6040805160c08101825288815260208101889052908101869052606081018490526080810185905263ffffffff91821660a09091018190526004979097556005959095556006939093556007556008556009805463ffffffff199081169094179055600f556010805490921642909116179055565b6000807f00000000000000000000000000000000000000000000000000000000000000006001600160a01b031663313ce5676040518163ffffffff1660e01b815260040160206040518083038186803b15801561186757600080fd5b505afa15801561187b573d6000803e3d6000fd5b505050506040513d602081101561189157600080fd5b5051604080516370a0823160e01b81526001600160a01b037f000000000000000000000000000000000000000000000000000000000000000081166004830152915160ff909316600a0a927f0000000000000000000000000000000000000000000000000000000000000000909216916370a0823191602480820192602092909190829003018186803b15801561192757600080fd5b505afa15801561193b573d6000803e3d6000fd5b505050506040513d602081101561195157600080fd5b50518161195a57fe5b04905060007f00000000000000000000000000000000000000000000000000000000000000006001600160a01b031663313ce5676040518163ffffffff1660e01b815260040160206040518083038186803b1580156119b857600080fd5b505afa1580156119cc573d6000803e3d6000fd5b505050506040513d60208110156119e257600080fd5b5051604080516370a0823160e01b81526001600160a01b037f000000000000000000000000000000000000000000000000000000000000000081166004830152915160ff909316600a0a927f0000000000000000000000000000000000000000000000000000000000000000909216916370a0823191602480820192602092909190829003018186803b158015611a7857600080fd5b505afa158015611a8c573d6000803e3d6000fd5b505050506040513d6020811015611aa257600080fd5b505181611aab57fe5b0490506000818381611ab957fe5b049050611aca816305f5e100611d0d565b935050505090565b6000546001600160a01b03163314611b1f576040805162461bcd60e51b81526020600482018190526024820152600080516020612aea833981519152604482015290519081900360640190fd5b6001600160a01b038216611b3257600080fd5b8015611b675760038054600160a01b60ff60a01b19909116176001600160a01b0319166001600160a01b0384161790556108e9565b6003805460ff60a01b19169055600280546001600160a01b0384166001600160a01b03199091161790555050565b60045460055460065460075460085460095463ffffffff1686565b6000611bcd620186a0610653611bc461163c565b60045490611d0d565b600554909150811015610670575060055490565b6000610e1a620186a06106536004600201547f00000000000000000000000000000000000000000000000000000000000000006001600160a01b03166318160ddd6040518163ffffffff1660e01b815260040160206040518083038186803b158015611c4c57600080fd5b505afa158015611c60573d6000803e3d6000fd5b505050506040513d6020811015611c7657600080fd5b505190611d0d565b6010546000908190611c9c9063ffffffff428116918116906120f516565b600954600f54919250611cc19163ffffffff91821691610653919080861690611d0d16565b9150600f54821115611cd357600f5491505b5090565b7f000000000000000000000000000000000000000000000000000000000000000081565b60105463ffffffff1681565b600f5481565b600082611d1c57506000610b2f565b82820282848281611d2957fe5b0414611d665760405162461bcd60e51b8152600401808060200182810382526021815260200180612ac96021913960400191505060405180910390fd5b9392505050565b6000611d6683836040518060400160405280601a81526020017f536166654d6174683a206469766973696f6e206279207a65726f000000000000815250612541565b600082611e5f577f00000000000000000000000000000000000000000000000000000000000000006001600160a01b031663a9059cbb85846040518363ffffffff1660e01b815260040180836001600160a01b0316815260200182815260200192505050602060405180830381600087803b158015611e2d57600080fd5b505af1158015611e41573d6000803e3d6000fd5b505050506040513d6020811015611e5757600080fd5b506120ac9050565b600354600160a01b900460ff1615611f86576003546040805163095ea7b360e01b81526001600160a01b0392831660048201526024810185905290517f00000000000000000000000000000000000000000000000000000000000000009092169163095ea7b3916044808201926020929091908290030181600087803b158015611ee857600080fd5b505af1158015611efc573d6000803e3d6000fd5b505050506040513d6020811015611f1257600080fd5b505060035460408051637acb775760e01b8152600481018590526001600160a01b03878116602483015291519190921691637acb775791604480830192600092919082900301818387803b158015611f6957600080fd5b505af1158015611f7d573d6000803e3d6000fd5b505050506120ac565b6002546040805163095ea7b360e01b81526001600160a01b0392831660048201526024810185905290517f00000000000000000000000000000000000000000000000000000000000000009092169163095ea7b3916044808201926020929091908290030181600087803b158015611ffd57600080fd5b505af1158015612011573d6000803e3d6000fd5b505050506040513d602081101561202757600080fd5b505060025460408051637acb775760e01b8152600481018590526001600160a01b03878116602483015291519190921691637acb77579160448083019260209291908290030181600087803b15801561207f57600080fd5b505af1158015612093573d6000803e3d6000fd5b505050506040513d60208110156120a957600080fd5b50505b5092915050565b6000611d6683836040518060400160405280601e81526020017f536166654d6174683a207375627472616374696f6e206f766572666c6f7700008152506125e3565b6000611d6683836040518060400160405280601e81526020017f536166654d6174683a207375627472616374696f6e206f766572666c6f77000081525061263d565b61213f612a48565b6000821161217e5760405162461bcd60e51b8152600401808060200182810382526026815260200180612aa36026913960400191505060405180910390fd5b826121985750604080516020810190915260008152610b2f565b71ffffffffffffffffffffffffffffffffffff831161223f57600082607085901b816121c057fe5b0490506001600160e01b0381111561221f576040805162461bcd60e51b815260206004820152601e60248201527f4669786564506f696e743a3a6672616374696f6e3a206f766572666c6f770000604482015290519081900360640190fd5b6040518060200160405280826001600160e01b0316815250915050610b2f565b600061225084600160701b8561269c565b90506001600160e01b0381111561221f576040805162461bcd60e51b815260206004820152601e60248201527f4669786564506f696e743a3a6672616374696f6e3a206f766572666c6f770000604482015290519081900360640190fd5b516612725dd1d243ab6001600160e01b039091160490565b6122d1610e11611c7e565b600f556010805463ffffffff19164263ffffffff16179055565b60006122ff620186a0610653611bc461163c565b6005549091508110156123155750600554610670565b6005541561067057600060055590565b604080516001600160a01b0380861660248301528416604482015260648082018490528251808303909101815260849091019091526020810180516001600160e01b03166323b872dd60e01b17905261237f90859061273c565b50505050565b600082820183811015611d66576040805162461bcd60e51b815260206004820152601b60248201527f536166654d6174683a206164646974696f6e206f766572666c6f770000000000604482015290519081900360640190fd5b604080516001600160a01b038416602482015260448082018490528251808303909101815260649091019091526020810180516001600160e01b031663a9059cbb60e01b17905261243190849061273c565b505050565b600d546000906124589063ffffffff600160201b820481169181169061238516565b600b549091501580159061246c5750804210155b1561253e57600454600a5460ff16156124a657600b5460045461248e91612385565b6004819055600c54116124a1576000600b555b6124c8565b600b546004546124b5916120b3565b6004819055600c54106124c8576000600b555b600d805467ffffffff000000001916600160201b4263ffffffff1602179055600454600b54600a546040805185815260208101949094528381019290925260ff1615156060830152517fb923e581a0f83128e9e1d8297aa52b18d6744310476e0b54509c054cd7a93b2a916080908290030190a1505b50565b600081836125cd5760405162461bcd60e51b81526004018080602001828103825283818151815260200191508051906020019080838360005b8381101561259257818101518382015260200161257a565b50505050905090810190601f1680156125bf5780820380516001836020036101000a031916815260200191505b509250505060405180910390fd5b5060008385816125d957fe5b0495945050505050565b600081848411156126355760405162461bcd60e51b815260206004820181815283516024840152835190928392604490910191908501908083836000831561259257818101518382015260200161257a565b505050900390565b60008363ffffffff168363ffffffff16111582906126355760405162461bcd60e51b815260206004820181815283516024840152835190928392604490910191908501908083836000831561259257818101518382015260200161257a565b60008060006126ab86866127ed565b91509150600084806126b957fe5b8688099050828111156126cd576001820391505b8083039250848210612726576040805162461bcd60e51b815260206004820152601a60248201527f46756c6c4d6174683a3a6d756c4469763a206f766572666c6f77000000000000604482015290519081900360640190fd5b61273183838761281a565b979650505050505050565b6060612791826040518060400160405280602081526020017f5361666545524332303a206c6f772d6c6576656c2063616c6c206661696c6564815250856001600160a01b031661288a9092919063ffffffff16565b805190915015612431578080602001905160208110156127b057600080fd5b50516124315760405162461bcd60e51b815260040180806020018281038252602a815260200180612b51602a913960400191505060405180910390fd5b6000808060001984860990508385029250828103915082811015612812576001820391505b509250929050565b6000818103821680838161282a57fe5b04925080858161283657fe5b04945080816000038161284557fe5b60028581038087028203028087028203028087028203028087028203028087028203028087028203029586029003909402930460010193909302939093010292915050565b606061289984846000856128a1565b949350505050565b60606128ac85612a0e565b6128fd576040805162461bcd60e51b815260206004820152601d60248201527f416464726573733a2063616c6c20746f206e6f6e2d636f6e7472616374000000604482015290519081900360640190fd5b60006060866001600160a01b031685876040518082805190602001908083835b6020831061293c5780518252601f19909201916020918201910161291d565b6001836020036101000a03801982511681845116808217855250505050505090500191505060006040518083038185875af1925050503d806000811461299e576040519150601f19603f3d011682016040523d82523d6000602084013e6129a3565b606091505b509150915081156129b75791506128999050565b8051156129c75780518082602001fd5b60405162461bcd60e51b815260206004820181815286516024840152865187939192839260440191908501908083836000831561259257818101518382015260200161257a565b3b151590565b60405180608001604052806000815260200160008152602001600063ffffffff168152602001600063ffffffff1681525090565b6040805160208101909152600081529056fe4f776e61626c653a206e6577206f776e657220697320746865207a65726f20616464726573734f776e61626c653a206d757374206265206e6577206f776e657220746f2070756c6c4669786564506f696e743a3a6672616374696f6e3a206469766973696f6e206279207a65726f536166654d6174683a206d756c7469706c69636174696f6e206f766572666c6f774f776e61626c653a2063616c6c6572206973206e6f7420746865206f776e6572536c697070616765206c696d69743a206d6f7265207468616e206d617820707269636556657374696e67206d757374206265206c6f6e676572207468616e20333620686f7572735361666545524332303a204552433230206f7065726174696f6e20646964206e6f742073756363656564a2646970667358221220879011ae416bed728db2b92047cfb66a2056693c69856c82102816a023585e4e64736f6c63430007050033",
  "linkReferences": {},
  "deployedLinkReferences": {}
}