{
  "_format": "hh-sol-artifact-1",
  "contractName": "StrikeTreasury",
  "sourceName": "contracts/Treasury.sol",
  "abi": [
    {
      "inputs": [
        {
          "internalType": "address",
          "name": "_STRIKE",
          "type": "address"
        },
        {
          "internalType": "address",
          "name": "_MIM",
          "type": "address"
        },
        {
          "internalType": "address",
          "name": "_gOHM",
          "type": "address"
        },
        {
          "internalType": "address",
          "name": "_wMEMO",
          "type": "address"
        },
        {
          "internalType": "uint256",
          "name": "_blocksNeededForQueue",
          "type": "uint256"
        },
        {
          "internalType": "address",
          "name": "_reserveValueCalculator",
          "type": "address"
        }
      ],
      "stateMutability": "nonpayable",
      "type": "constructor"
    },
    {
      "anonymous": false,
      "inputs": [
        {
          "indexed": true,
          "internalType": "enum StrikeTreasury.MANAGING",
          "name": "managing",
          "type": "uint8"
        },
        {
          "indexed": false,
          "internalType": "address",
          "name": "activated",
          "type": "address"
        },
        {
          "indexed": false,
          "internalType": "bool",
          "name": "result",
          "type": "bool"
        }
      ],
      "name": "ChangeActivated",
      "type": "event"
    },
    {
      "anonymous": false,
      "inputs": [
        {
          "indexed": true,
          "internalType": "enum StrikeTreasury.MANAGING",
          "name": "managing",
          "type": "uint8"
        },
        {
          "indexed": false,
          "internalType": "address",
          "name": "queued",
          "type": "address"
        }
      ],
      "name": "ChangeQueued",
      "type": "event"
    },
    {
      "anonymous": false,
      "inputs": [
        {
          "indexed": true,
          "internalType": "address",
          "name": "debtor",
          "type": "address"
        },
        {
          "indexed": true,
          "internalType": "address",
          "name": "token",
          "type": "address"
        },
        {
          "indexed": false,
          "internalType": "uint256",
          "name": "amount",
          "type": "uint256"
        },
        {
          "indexed": false,
          "internalType": "uint256",
          "name": "value",
          "type": "uint256"
        }
      ],
      "name": "CreateDebt",
      "type": "event"
    },
    {
      "anonymous": false,
      "inputs": [
        {
          "indexed": true,
          "internalType": "address",
          "name": "token",
          "type": "address"
        },
        {
          "indexed": false,
          "internalType": "uint256",
          "name": "amount",
          "type": "uint256"
        },
        {
          "indexed": false,
          "internalType": "uint256",
          "name": "value",
          "type": "uint256"
        }
      ],
      "name": "Deposit",
      "type": "event"
    },
    {
      "anonymous": false,
      "inputs": [
        {
          "indexed": false,
          "internalType": "address",
          "name": "token",
          "type": "address"
        },
        {
          "indexed": false,
          "internalType": "uint256",
          "name": "amount",
          "type": "uint256"
        },
        {
          "indexed": true,
          "internalType": "address",
          "name": "sender",
          "type": "address"
        }
      ],
      "name": "Lobby",
      "type": "event"
    },
    {
      "anonymous": false,
      "inputs": [
        {
          "indexed": true,
          "internalType": "address",
          "name": "previousOwner",
          "type": "address"
        },
        {
          "indexed": true,
          "internalType": "address",
          "name": "newOwner",
          "type": "address"
        }
      ],
      "name": "OwnershipPulled",
      "type": "event"
    },
    {
      "anonymous": false,
      "inputs": [
        {
          "indexed": true,
          "internalType": "address",
          "name": "previousOwner",
          "type": "address"
        },
        {
          "indexed": true,
          "internalType": "address",
          "name": "newOwner",
          "type": "address"
        }
      ],
      "name": "OwnershipPushed",
      "type": "event"
    },
    {
      "anonymous": false,
      "inputs": [
        {
          "indexed": true,
          "internalType": "address",
          "name": "debtor",
          "type": "address"
        },
        {
          "indexed": true,
          "internalType": "address",
          "name": "token",
          "type": "address"
        },
        {
          "indexed": false,
          "internalType": "uint256",
          "name": "amount",
          "type": "uint256"
        },
        {
          "indexed": false,
          "internalType": "uint256",
          "name": "value",
          "type": "uint256"
        }
      ],
      "name": "RepayDebt",
      "type": "event"
    },
    {
      "anonymous": false,
      "inputs": [
        {
          "indexed": true,
          "internalType": "uint256",
          "name": "totalReserves",
          "type": "uint256"
        }
      ],
      "name": "ReservesAudited",
      "type": "event"
    },
    {
      "anonymous": false,
      "inputs": [
        {
          "indexed": true,
          "internalType": "address",
          "name": "token",
          "type": "address"
        },
        {
          "indexed": false,
          "internalType": "uint256",
          "name": "amount",
          "type": "uint256"
        }
      ],
      "name": "ReservesManaged",
      "type": "event"
    },
    {
      "anonymous": false,
      "inputs": [
        {
          "indexed": true,
          "internalType": "uint256",
          "name": "totalReserves",
          "type": "uint256"
        }
      ],
      "name": "ReservesUpdated",
      "type": "event"
    },
    {
      "anonymous": false,
      "inputs": [
        {
          "indexed": true,
          "internalType": "address",
          "name": "caller",
          "type": "address"
        },
        {
          "indexed": true,
          "internalType": "address",
          "name": "recipient",
          "type": "address"
        },
        {
          "indexed": false,
          "internalType": "uint256",
          "name": "amount",
          "type": "uint256"
        }
      ],
      "name": "RewardsMinted",
      "type": "event"
    },
    {
      "anonymous": false,
      "inputs": [
        {
          "indexed": true,
          "internalType": "address",
          "name": "token",
          "type": "address"
        },
        {
          "indexed": false,
          "internalType": "uint256",
          "name": "amount",
          "type": "uint256"
        },
        {
          "indexed": false,
          "internalType": "uint256",
          "name": "value",
          "type": "uint256"
        }
      ],
      "name": "Withdrawal",
      "type": "event"
    },
    {
      "inputs": [
        {
          "internalType": "address",
          "name": "",
          "type": "address"
        }
      ],
      "name": "LiquidityDepositorQueue",
      "outputs": [
        {
          "internalType": "uint256",
          "name": "",
          "type": "uint256"
        }
      ],
      "stateMutability": "view",
      "type": "function"
    },
    {
      "inputs": [
        {
          "internalType": "address",
          "name": "",
          "type": "address"
        }
      ],
      "name": "LiquidityManagerQueue",
      "outputs": [
        {
          "internalType": "uint256",
          "name": "",
          "type": "uint256"
        }
      ],
      "stateMutability": "view",
      "type": "function"
    },
    {
      "inputs": [
        {
          "internalType": "address",
          "name": "",
          "type": "address"
        }
      ],
      "name": "LiquidityTokenQueue",
      "outputs": [
        {
          "internalType": "uint256",
          "name": "",
          "type": "uint256"
        }
      ],
      "stateMutability": "view",
      "type": "function"
    },
    {
      "inputs": [
        {
          "internalType": "address",
          "name": "",
          "type": "address"
        }
      ],
      "name": "ReserveManagerQueue",
      "outputs": [
        {
          "internalType": "uint256",
          "name": "",
          "type": "uint256"
        }
      ],
      "stateMutability": "view",
      "type": "function"
    },
    {
      "inputs": [],
      "name": "STRIKE",
      "outputs": [
        {
          "internalType": "address",
          "name": "",
          "type": "address"
        }
      ],
      "stateMutability": "view",
      "type": "function"
    },
    {
      "inputs": [],
      "name": "auditReserves",
      "outputs": [],
      "stateMutability": "nonpayable",
      "type": "function"
    },
    {
      "inputs": [],
      "name": "blocksNeededForQueue",
      "outputs": [
        {
          "internalType": "uint256",
          "name": "",
          "type": "uint256"
        }
      ],
      "stateMutability": "view",
      "type": "function"
    },
    {
      "inputs": [
        {
          "internalType": "address",
          "name": "",
          "type": "address"
        }
      ],
      "name": "bondCalculator",
      "outputs": [
        {
          "internalType": "address",
          "name": "",
          "type": "address"
        }
      ],
      "stateMutability": "view",
      "type": "function"
    },
    {
      "inputs": [
        {
          "internalType": "address",
          "name": "",
          "type": "address"
        }
      ],
      "name": "debtorBalance",
      "outputs": [
        {
          "internalType": "uint256",
          "name": "",
          "type": "uint256"
        }
      ],
      "stateMutability": "view",
      "type": "function"
    },
    {
      "inputs": [
        {
          "internalType": "address",
          "name": "",
          "type": "address"
        }
      ],
      "name": "debtorQueue",
      "outputs": [
        {
          "internalType": "uint256",
          "name": "",
          "type": "uint256"
        }
      ],
      "stateMutability": "view",
      "type": "function"
    },
    {
      "inputs": [
        {
          "internalType": "uint256",
          "name": "",
          "type": "uint256"
        }
      ],
      "name": "debtors",
      "outputs": [
        {
          "internalType": "address",
          "name": "",
          "type": "address"
        }
      ],
      "stateMutability": "view",
      "type": "function"
    },
    {
      "inputs": [
        {
          "internalType": "uint256",
          "name": "_amount",
          "type": "uint256"
        },
        {
          "internalType": "address",
          "name": "_token",
          "type": "address"
        },
        {
          "internalType": "uint256",
          "name": "_profit",
          "type": "uint256"
        }
      ],
      "name": "deposit",
      "outputs": [
        {
          "internalType": "uint256",
          "name": "send_",
          "type": "uint256"
        }
      ],
      "stateMutability": "nonpayable",
      "type": "function"
    },
    {
      "inputs": [],
      "name": "excessReserves",
      "outputs": [
        {
          "internalType": "uint256",
          "name": "",
          "type": "uint256"
        }
      ],
      "stateMutability": "view",
      "type": "function"
    },
    {
      "inputs": [
        {
          "internalType": "uint256",
          "name": "_amount",
          "type": "uint256"
        },
        {
          "internalType": "address",
          "name": "_token",
          "type": "address"
        }
      ],
      "name": "incurDebt",
      "outputs": [],
      "stateMutability": "nonpayable",
      "type": "function"
    },
    {
      "inputs": [
        {
          "internalType": "address",
          "name": "",
          "type": "address"
        }
      ],
      "name": "isDebtor",
      "outputs": [
        {
          "internalType": "bool",
          "name": "",
          "type": "bool"
        }
      ],
      "stateMutability": "view",
      "type": "function"
    },
    {
      "inputs": [
        {
          "internalType": "address",
          "name": "",
          "type": "address"
        }
      ],
      "name": "isLiquidityDepositor",
      "outputs": [
        {
          "internalType": "bool",
          "name": "",
          "type": "bool"
        }
      ],
      "stateMutability": "view",
      "type": "function"
    },
    {
      "inputs": [
        {
          "internalType": "address",
          "name": "",
          "type": "address"
        }
      ],
      "name": "isLiquidityManager",
      "outputs": [
        {
          "internalType": "bool",
          "name": "",
          "type": "bool"
        }
      ],
      "stateMutability": "view",
      "type": "function"
    },
    {
      "inputs": [
        {
          "internalType": "address",
          "name": "",
          "type": "address"
        }
      ],
      "name": "isLiquidityToken",
      "outputs": [
        {
          "internalType": "bool",
          "name": "",
          "type": "bool"
        }
      ],
      "stateMutability": "view",
      "type": "function"
    },
    {
      "inputs": [
        {
          "internalType": "address",
          "name": "",
          "type": "address"
        }
      ],
      "name": "isReserveDepositor",
      "outputs": [
        {
          "internalType": "bool",
          "name": "",
          "type": "bool"
        }
      ],
      "stateMutability": "view",
      "type": "function"
    },
    {
      "inputs": [
        {
          "internalType": "address",
          "name": "",
          "type": "address"
        }
      ],
      "name": "isReserveManager",
      "outputs": [
        {
          "internalType": "bool",
          "name": "",
          "type": "bool"
        }
      ],
      "stateMutability": "view",
      "type": "function"
    },
    {
      "inputs": [
        {
          "internalType": "address",
          "name": "",
          "type": "address"
        }
      ],
      "name": "isReserveSpender",
      "outputs": [
        {
          "internalType": "bool",
          "name": "",
          "type": "bool"
        }
      ],
      "stateMutability": "view",
      "type": "function"
    },
    {
      "inputs": [
        {
          "internalType": "address",
          "name": "",
          "type": "address"
        }
      ],
      "name": "isReserveToken",
      "outputs": [
        {
          "internalType": "bool",
          "name": "",
          "type": "bool"
        }
      ],
      "stateMutability": "view",
      "type": "function"
    },
    {
      "inputs": [
        {
          "internalType": "address",
          "name": "",
          "type": "address"
        }
      ],
      "name": "isRewardManager",
      "outputs": [
        {
          "internalType": "bool",
          "name": "",
          "type": "bool"
        }
      ],
      "stateMutability": "view",
      "type": "function"
    },
    {
      "inputs": [
        {
          "internalType": "uint256",
          "name": "",
          "type": "uint256"
        }
      ],
      "name": "liquidityDepositors",
      "outputs": [
        {
          "internalType": "address",
          "name": "",
          "type": "address"
        }
      ],
      "stateMutability": "view",
      "type": "function"
    },
    {
      "inputs": [
        {
          "internalType": "uint256",
          "name": "",
          "type": "uint256"
        }
      ],
      "name": "liquidityManagers",
      "outputs": [
        {
          "internalType": "address",
          "name": "",
          "type": "address"
        }
      ],
      "stateMutability": "view",
      "type": "function"
    },
    {
      "inputs": [
        {
          "internalType": "uint256",
          "name": "",
          "type": "uint256"
        }
      ],
      "name": "liquidityTokens",
      "outputs": [
        {
          "internalType": "address",
          "name": "",
          "type": "address"
        }
      ],
      "stateMutability": "view",
      "type": "function"
    },
    {
      "inputs": [
        {
          "internalType": "uint256",
          "name": "_amount",
          "type": "uint256"
        },
        {
          "internalType": "address",
          "name": "_token",
          "type": "address"
        }
      ],
      "name": "lobby",
      "outputs": [],
      "stateMutability": "nonpayable",
      "type": "function"
    },
    {
      "inputs": [
        {
          "internalType": "address",
          "name": "_token",
          "type": "address"
        },
        {
          "internalType": "uint256",
          "name": "_amount",
          "type": "uint256"
        }
      ],
      "name": "manage",
      "outputs": [],
      "stateMutability": "nonpayable",
      "type": "function"
    },
    {
      "inputs": [],
      "name": "manager",
      "outputs": [
        {
          "internalType": "address",
          "name": "",
          "type": "address"
        }
      ],
      "stateMutability": "view",
      "type": "function"
    },
    {
      "inputs": [
        {
          "internalType": "address",
          "name": "_token",
          "type": "address"
        },
        {
          "internalType": "uint256",
          "name": "_amount",
          "type": "uint256"
        }
      ],
      "name": "marketValueOf",
      "outputs": [
        {
          "internalType": "uint256",
          "name": "value_",
          "type": "uint256"
        }
      ],
      "stateMutability": "view",
      "type": "function"
    },
    {
      "inputs": [
        {
          "internalType": "address",
          "name": "_recipient",
          "type": "address"
        },
        {
          "internalType": "uint256",
          "name": "_amount",
          "type": "uint256"
        }
      ],
      "name": "mintRewards",
      "outputs": [],
      "stateMutability": "nonpayable",
      "type": "function"
    },
    {
      "inputs": [],
      "name": "pullManagement",
      "outputs": [],
      "stateMutability": "nonpayable",
      "type": "function"
    },
    {
      "inputs": [
        {
          "internalType": "address",
          "name": "newOwner_",
          "type": "address"
        }
      ],
      "name": "pushManagement",
      "outputs": [],
      "stateMutability": "nonpayable",
      "type": "function"
    },
    {
      "inputs": [
        {
          "internalType": "enum StrikeTreasury.MANAGING",
          "name": "_managing",
          "type": "uint8"
        },
        {
          "internalType": "address",
          "name": "_address",
          "type": "address"
        }
      ],
      "name": "queue",
      "outputs": [
        {
          "internalType": "bool",
          "name": "",
          "type": "bool"
        }
      ],
      "stateMutability": "nonpayable",
      "type": "function"
    },
    {
      "inputs": [],
      "name": "renounceManagement",
      "outputs": [],
      "stateMutability": "nonpayable",
      "type": "function"
    },
    {
      "inputs": [
        {
          "internalType": "uint256",
          "name": "_amount",
          "type": "uint256"
        },
        {
          "internalType": "address",
          "name": "_token",
          "type": "address"
        }
      ],
      "name": "repayDebtWithReserve",
      "outputs": [],
      "stateMutability": "nonpayable",
      "type": "function"
    },
    {
      "inputs": [
        {
          "internalType": "uint256",
          "name": "_amount",
          "type": "uint256"
        }
      ],
      "name": "repayDebtWithSTRIKE",
      "outputs": [],
      "stateMutability": "nonpayable",
      "type": "function"
    },
    {
      "inputs": [
        {
          "internalType": "address",
          "name": "",
          "type": "address"
        }
      ],
      "name": "reserveDepositorQueue",
      "outputs": [
        {
          "internalType": "uint256",
          "name": "",
          "type": "uint256"
        }
      ],
      "stateMutability": "view",
      "type": "function"
    },
    {
      "inputs": [
        {
          "internalType": "uint256",
          "name": "",
          "type": "uint256"
        }
      ],
      "name": "reserveDepositors",
      "outputs": [
        {
          "internalType": "address",
          "name": "",
          "type": "address"
        }
      ],
      "stateMutability": "view",
      "type": "function"
    },
    {
      "inputs": [
        {
          "internalType": "uint256",
          "name": "",
          "type": "uint256"
        }
      ],
      "name": "reserveManagers",
      "outputs": [
        {
          "internalType": "address",
          "name": "",
          "type": "address"
        }
      ],
      "stateMutability": "view",
      "type": "function"
    },
    {
      "inputs": [
        {
          "internalType": "address",
          "name": "",
          "type": "address"
        }
      ],
      "name": "reserveSpenderQueue",
      "outputs": [
        {
          "internalType": "uint256",
          "name": "",
          "type": "uint256"
        }
      ],
      "stateMutability": "view",
      "type": "function"
    },
    {
      "inputs": [
        {
          "internalType": "uint256",
          "name": "",
          "type": "uint256"
        }
      ],
      "name": "reserveSpenders",
      "outputs": [
        {
          "internalType": "address",
          "name": "",
          "type": "address"
        }
      ],
      "stateMutability": "view",
      "type": "function"
    },
    {
      "inputs": [
        {
          "internalType": "address",
          "name": "",
          "type": "address"
        }
      ],
      "name": "reserveTokenQueue",
      "outputs": [
        {
          "internalType": "uint256",
          "name": "",
          "type": "uint256"
        }
      ],
      "stateMutability": "view",
      "type": "function"
    },
    {
      "inputs": [
        {
          "internalType": "uint256",
          "name": "",
          "type": "uint256"
        }
      ],
      "name": "reserveTokens",
      "outputs": [
        {
          "internalType": "address",
          "name": "",
          "type": "address"
        }
      ],
      "stateMutability": "view",
      "type": "function"
    },
    {
      "inputs": [],
      "name": "reserveValueCalculator",
      "outputs": [
        {
          "internalType": "address",
          "name": "",
          "type": "address"
        }
      ],
      "stateMutability": "view",
      "type": "function"
    },
    {
      "inputs": [
        {
          "internalType": "address",
          "name": "",
          "type": "address"
        }
      ],
      "name": "rewardManagerQueue",
      "outputs": [
        {
          "internalType": "uint256",
          "name": "",
          "type": "uint256"
        }
      ],
      "stateMutability": "view",
      "type": "function"
    },
    {
      "inputs": [
        {
          "internalType": "uint256",
          "name": "",
          "type": "uint256"
        }
      ],
      "name": "rewardManagers",
      "outputs": [
        {
          "internalType": "address",
          "name": "",
          "type": "address"
        }
      ],
      "stateMutability": "view",
      "type": "function"
    },
    {
      "inputs": [],
      "name": "sSTRIKE",
      "outputs": [
        {
          "internalType": "address",
          "name": "",
          "type": "address"
        }
      ],
      "stateMutability": "view",
      "type": "function"
    },
    {
      "inputs": [],
      "name": "sSTRIKEQueue",
      "outputs": [
        {
          "internalType": "uint256",
          "name": "",
          "type": "uint256"
        }
      ],
      "stateMutability": "view",
      "type": "function"
    },
    {
      "inputs": [
        {
          "internalType": "enum StrikeTreasury.MANAGING",
          "name": "_managing",
          "type": "uint8"
        },
        {
          "internalType": "address",
          "name": "_address",
          "type": "address"
        },
        {
          "internalType": "address",
          "name": "_calculator",
          "type": "address"
        }
      ],
      "name": "toggle",
      "outputs": [
        {
          "internalType": "bool",
          "name": "",
          "type": "bool"
        }
      ],
      "stateMutability": "nonpayable",
      "type": "function"
    },
    {
      "inputs": [],
      "name": "totalDebt",
      "outputs": [
        {
          "internalType": "uint256",
          "name": "",
          "type": "uint256"
        }
      ],
      "stateMutability": "view",
      "type": "function"
    },
    {
      "inputs": [],
      "name": "totalReserves",
      "outputs": [
        {
          "internalType": "uint256",
          "name": "",
          "type": "uint256"
        }
      ],
      "stateMutability": "view",
      "type": "function"
    },
    {
      "inputs": [
        {
          "internalType": "address",
          "name": "_reserveValueCalculator",
          "type": "address"
        }
      ],
      "name": "updateReserveValueCalculatorAddress",
      "outputs": [],
      "stateMutability": "nonpayable",
      "type": "function"
    },
    {
      "inputs": [
        {
          "internalType": "address",
          "name": "_token",
          "type": "address"
        },
        {
          "internalType": "uint256",
          "name": "_amount",
          "type": "uint256"
        }
      ],
      "name": "valueOf",
      "outputs": [
        {
          "internalType": "uint256",
          "name": "value_",
          "type": "uint256"
        }
      ],
      "stateMutability": "view",
      "type": "function"
    },
    {
      "inputs": [
        {
          "internalType": "uint256",
          "name": "_amount",
          "type": "uint256"
        },
        {
          "internalType": "address",
          "name": "_token",
          "type": "address"
        }
      ],
      "name": "withdraw",
      "outputs": [],
      "stateMutability": "nonpayable",
      "type": "function"
    }
  ],
  "bytecode": "0x60c06040523480156200001157600080fd5b5060405162003b6638038062003b66833981810160405260c08110156200003757600080fd5b50805160208201516040808401516060850151608086015160a090960151600080546001600160a01b031916331780825594519697959693959294929391926001600160a01b0316917fea8258f2d9ddb679928cf34b78cf645b7feda9acc828e4dd82d014eaae270eba908290a36001600160a01b038616620000b957600080fd5b6001600160601b0319606087901b166080526001600160a01b038116620000df57600080fd5b600280546001600160a01b039283166001600160a01b031991821617909155948116600081815260046020526040808220805460ff1990811660019081179092556003805480840182557fc2575a0e9e593c00f959f8c92f12db2869c3395a3b0502d05e2516446f71f85b90810180548d16909717909655988616808552838520805483168417905589548084018b55860180548c1690911790559690941680835290822080549096168417909555855492830186559490945290920180549093161790915560a0525060805160601c60a05161393c6200022a6000398061228152806124b65280612512528061256e52806125cc5280612631528061268d52806126eb528061274952806127a55280612801525080610b275280610ec9528061130b52806117a1528061185552806119c95280611b455280611d3b5280612086525061393c6000f3fe608060405234801561001057600080fd5b506004361061035c5760003560e01c8063869871bf116101d3578063cd85641a11610104578063ebd83cd8116100a2578063fbfd393b1161007c578063fbfd393b146109e1578063fc7b9c1814610a18578063fd1ec01014610a20578063fff9ee8714610a3d5761035c565b8063ebd83cd81461096f578063ee4e19a114610995578063fb939588146109bb5761035c565b8063d07f390f116100de578063d07f390f146108e6578063d796ffb8146108ee578063df89b3441461091a578063e83afee3146109405761035c565b8063cd85641a1461087d578063cff6fb76146108a3578063d031370b146108c95761035c565b8063a569e57111610171578063b5b1d5601161014b578063b5b1d56014610800578063b7567f841461081d578063bc157ac114610825578063c24ad43e146108575761035c565b8063a569e5711461078e578063ab319c9a146107b4578063b1bd38b0146107da5761035c565b80638f6a7b57116101ad5780638f6a7b571461071d5780638f840ddd1461073a578063932cc8c314610742578063a1210a2d146107685761035c565b8063869871bf146106b457806387d67dff146106d15780638f59c727146106f75761035c565b80633988a090116102ad5780635195d1351161024b5780636a20de92116102255780636a20de92146106285780636b5e40a71461065457806370a0502a14610671578063788c6c011461068e5761035c565b80635195d135146105ce5780635a96ac0a146105fa57806368c31dd5146106025761035c565b806346f68ee91161028757806346f68ee914610572578063481c6a75146105985780634dada002146105a05780634e83423c146105a85761035c565b80633988a09014610545578063437f79121461054d57806343800d3a1461056a5761035c565b8063124154ca1161031a5780631eec5a9a116102f45780631eec5a9a146104c85780632b7ce500146104f4578063335d15b4146104fc57806334b85460146105285761035c565b8063124154ca1461043c57806312422d23146104765780631af4da70146104a25761035c565b8062f714ce146103615780630619aff11461038f578063089208d8146103c8578063094a8651146103d05780630b0eee30146104085780630c3513a814610434575b600080fd5b61038d6004803603604081101561037757600080fd5b50803590602001356001600160a01b0316610a63565b005b6103ac600480360360208110156103a557600080fd5b5035610c3a565b604080516001600160a01b039092168252519081900360200190f35b61038d610c64565b6103f6600480360360208110156103e657600080fd5b50356001600160a01b0316610cfb565b60408051918252519081900360200190f35b61038d6004803603604081101561041e57600080fd5b506001600160a01b038135169060200135610d0d565b6103f6610ebc565b6104626004803603602081101561045257600080fd5b50356001600160a01b0316610f60565b604080519115158252519081900360200190f35b61038d6004803603604081101561048c57600080fd5b50803590602001356001600160a01b0316610f75565b6103ac600480360360208110156104b857600080fd5b50356001600160a01b0316611240565b6103f6600480360360408110156104de57600080fd5b506001600160a01b03813516906020013561125b565b61038d61144f565b61038d6004803603604081101561051257600080fd5b50803590602001356001600160a01b0316611613565b61038d6004803603602081101561053e57600080fd5b5035611727565b6103ac6118a6565b6103ac6004803603602081101561056357600080fd5b50356118b5565b6103f66118c5565b61038d6004803603602081101561058857600080fd5b50356001600160a01b03166118cb565b6103ac6119b8565b6103ac6119c7565b610462600480360360208110156105be57600080fd5b50356001600160a01b03166119eb565b6103f6600480360360408110156105e457600080fd5b506001600160a01b038135169060200135611a00565b61038d611bd3565b6104626004803603602081101561061857600080fd5b50356001600160a01b0316611c7d565b61038d6004803603604081101561063e57600080fd5b506001600160a01b038135169060200135611c92565b6103ac6004803603602081101561066a57600080fd5b5035611e0c565b6103ac6004803603602081101561068757600080fd5b5035611e1c565b6103f6600480360360208110156106a457600080fd5b50356001600160a01b0316611e2c565b6103ac600480360360208110156106ca57600080fd5b5035611e3e565b610462600480360360208110156106e757600080fd5b50356001600160a01b0316611e4e565b6103f66004803603602081101561070d57600080fd5b50356001600160a01b0316611e63565b6103ac6004803603602081101561073357600080fd5b5035611e75565b6103f6611e85565b6103f66004803603602081101561075857600080fd5b50356001600160a01b0316611e8b565b6104626004803603602081101561077e57600080fd5b50356001600160a01b0316611e9d565b610462600480360360208110156107a457600080fd5b50356001600160a01b0316611eb2565b6103f6600480360360208110156107ca57600080fd5b50356001600160a01b0316611ec7565b6103f6600480360360208110156107f057600080fd5b50356001600160a01b0316611ed9565b6103ac6004803603602081101561081657600080fd5b5035611eeb565b6103ac611efb565b6103f66004803603606081101561083b57600080fd5b508035906001600160a01b036020820135169060400135611f0a565b6103f66004803603602081101561086d57600080fd5b50356001600160a01b0316612197565b6103f66004803603602081101561089357600080fd5b50356001600160a01b03166121a9565b61038d600480360360208110156108b957600080fd5b50356001600160a01b03166121bb565b6103ac600480360360208110156108df57600080fd5b503561226f565b6103f661227f565b61038d6004803603604081101561090457600080fd5b50803590602001356001600160a01b03166122a3565b6104626004803603602081101561093057600080fd5b50356001600160a01b0316612426565b6104626004803603604081101561095657600080fd5b50803560ff1690602001356001600160a01b031661243b565b6104626004803603602081101561098557600080fd5b50356001600160a01b0316612886565b610462600480360360208110156109ab57600080fd5b50356001600160a01b031661289b565b6103f6600480360360208110156109d157600080fd5b50356001600160a01b03166128b0565b610462600480360360608110156109f757600080fd5b5060ff813516906001600160a01b03602082013581169160400135166128c2565b6103f661317e565b6103ac60048036036020811015610a3657600080fd5b5035613184565b6103f660048036036020811015610a5357600080fd5b50356001600160a01b0316613194565b6001600160a01b03811660009081526004602052604090205460ff16610abf576040805162461bcd60e51b815260206004820152600c60248201526b139bdd081858d8d95c1d195960a21b604482015290519081900360640190fd5b336000908152600a602052604090205460ff161515600114610b17576040805162461bcd60e51b815260206004820152600c60248201526b139bdd08185c1c1c9bdd995960a21b604482015290519081900360640190fd5b6000610b23828461125b565b90507f00000000000000000000000000000000000000000000000000000000000000006001600160a01b03166379cc679033836040518363ffffffff1660e01b815260040180836001600160a01b0316815260200182815260200192505050600060405180830381600087803b158015610b9c57600080fd5b505af1158015610bb0573d6000803e3d6000fd5b5050602254610bc292509050826131a6565b60228190556040516000805160206138bd83398151915290600090a2610bf26001600160a01b03831633856131e8565b604080518481526020810183905281516001600160a01b038516927fdf273cb619d95419a9cd0ec88123a0538c85064229baa6363788f743fff90deb928290030190a2505050565b60138181548110610c4a57600080fd5b6000918252602090912001546001600160a01b0316905081565b6000546001600160a01b03163314610cb1576040805162461bcd60e51b8152602060048201819052602482015260008051602061389d833981519152604482015290519081900360640190fd5b600080546040516001600160a01b03909116907fea8258f2d9ddb679928cf34b78cf645b7feda9acc828e4dd82d014eaae270eba908390a3600080546001600160a01b0319169055565b601c6020526000908152604090205481565b6001600160a01b0382166000908152600d602052604090205460ff1615610d86573360009081526017602052604090205460ff16610d81576040805162461bcd60e51b815260206004820152600c60248201526b139bdd08185c1c1c9bdd995960a21b604482015290519081900360640190fd5b610dd9565b3360009081526014602052604090205460ff16610dd9576040805162461bcd60e51b815260206004820152600c60248201526b139bdd08185c1c1c9bdd995960a21b604482015290519081900360640190fd5b6000610de5838361125b565b9050610def610ebc565b811115610e3b576040805162461bcd60e51b8152602060048201526015602482015274496e73756666696369656e7420726573657276657360581b604482015290519081900360640190fd5b602254610e4890826131a6565b60228190556040516000805160206138bd83398151915290600090a2610e786001600160a01b03841633846131e8565b6040805183815290516001600160a01b038516917f2bb2640731848fe9820ba48dbc978c1fc9bbd5f11b948bfab05b7dee3378fd80919081900360200190a2505050565b6000610f5b610f526023547f00000000000000000000000000000000000000000000000000000000000000006001600160a01b03166318160ddd6040518163ffffffff1660e01b815260040160206040518083038186803b158015610f2057600080fd5b505afa158015610f34573d6000803e3d6000fd5b505050506040513d6020811015610f4a57600080fd5b5051906131a6565b602254906131a6565b905090565b60076020526000908152604090205460ff1681565b336000908152601a602052604090205460ff16610fc8576040805162461bcd60e51b815260206004820152600c60248201526b139bdd08185c1c1c9bdd995960a21b604482015290519081900360640190fd5b6001600160a01b03811660009081526004602052604090205460ff16611024576040805162461bcd60e51b815260206004820152600c60248201526b139bdd081858d8d95c1d195960a21b604482015290519081900360640190fd5b6000611030828461125b565b60208054604080516370a0823160e01b815233600482015290519394506000936001600160a01b03909216926370a0823192602480840193829003018186803b15801561107c57600080fd5b505afa158015611090573d6000803e3d6000fd5b505050506040513d60208110156110a657600080fd5b5051336000908152601c6020526040812054919250906110c79083906131a6565b905080831115611113576040805162461bcd60e51b8152602060048201526012602482015271115e18d959591cc81919589d081b1a5b5a5d60721b604482015290519081900360640190fd5b336000908152601c602052604090205461112d908461323f565b336000908152601c602052604090205560235461114a908461323f565b60235560225461115a90846131a6565b60228190556040516000805160206138bd83398151915290600090a26040805163a9059cbb60e01b81523360048201526024810187905290516001600160a01b0386169163a9059cbb9160448083019260209291908290030181600087803b1580156111c557600080fd5b505af11580156111d9573d6000803e3d6000fd5b505050506040513d60208110156111ef57600080fd5b5050604080518681526020810185905281516001600160a01b0387169233927f7e1a939bed137a819b5d2979822c67f877689f7a863d5e4cb57cdca97b2977d6929081900390910190a35050505050565b6012602052600090815260409020546001600160a01b031681565b6001600160a01b03821660009081526004602052604081205460ff161561139857611391836001600160a01b031663313ce5676040518163ffffffff1660e01b815260040160206040518083038186803b1580156112b857600080fd5b505afa1580156112cc573d6000803e3d6000fd5b505050506040513d60208110156112e257600080fd5b50516040805163313ce56760e01b8152905160ff909216600a0a9161138b916001600160a01b037f0000000000000000000000000000000000000000000000000000000000000000169163313ce56791600480820192602092909190829003018186803b15801561135257600080fd5b505afa158015611366573d6000803e3d6000fd5b505050506040513d602081101561137c57600080fd5b5051859060ff16600a0a613299565b906132f2565b9050611449565b6001600160a01b0383166000908152600d602052604090205460ff1615611449576001600160a01b03808416600081815260126020908152604091829020548251634249719f60e01b815260048101949094526024840187905291519190931692634249719f9260448082019391829003018186803b15801561141a57600080fd5b505afa15801561142e573d6000803e3d6000fd5b505050506040513d602081101561144457600080fd5b505190505b92915050565b6000546001600160a01b0316331461149c576040805162461bcd60e51b8152602060048201819052602482015260008051602061389d833981519152604482015290519081900360640190fd5b6000805b6003548110156115745761156a611563600383815481106114bd57fe5b600091825260209091200154600380546001600160a01b0390921691859081106114e357fe5b60009182526020918290200154604080516370a0823160e01b815230600482015290516001600160a01b03909216926370a0823192602480840193829003018186803b15801561153257600080fd5b505afa158015611546573d6000803e3d6000fd5b505050506040513d602081101561155c57600080fd5b5051611a00565b839061323f565b91506001016114a0565b5060005b600c548110156115c5576115bb611563600c838154811061159557fe5b600091825260209091200154600c80546001600160a01b0390921691859081106114e357fe5b9150600101611578565b50602281905560405181906000805160206138bd83398151915290600090a26022546040517fec691f09f6924b27932253f85caf99bacc30360cc0e50a1cc4d2acc24601446690600090a250565b6001600160a01b03811660009081526004602052604090205460ff168061165257506001600160a01b0381166000908152600d602052604090205460ff165b611692576040805162461bcd60e51b815260206004820152600c60248201526b139bdd081858d8d95c1d195960a21b604482015290519081900360640190fd5b6116a76001600160a01b038216333085613334565b60006116b38284611a00565b6022549091506116c3908261323f565b60228190556040516000805160206138bd83398151915290600090a2604080516001600160a01b038416815260208101859052815133927fe6bbe36444aa7ab4e78235f5af4f0a4264bb2fb33dd1a1381801fdea61f5ec8b928290030190a2505050565b336000908152601a602052604090205460ff1661177a576040805162461bcd60e51b815260206004820152600c60248201526b139bdd08185c1c1c9bdd995960a21b604482015290519081900360640190fd5b6040805163079cc67960e41b81523360048201526024810183905290516001600160a01b037f000000000000000000000000000000000000000000000000000000000000000016916379cc679091604480830192600092919082900301818387803b1580156117e857600080fd5b505af11580156117fc573d6000803e3d6000fd5b5050336000908152601c602052604090205461181b92509050826131a6565b336000908152601c602052604090205560235461183890826131a6565b602355604080518281526020810183905281516001600160a01b037f0000000000000000000000000000000000000000000000000000000000000000169233927fc6d98eecfc9c78ab62c89a82950079b54874749f1f6f24090f7acc758bc2f309929081900390910190a350565b6020546001600160a01b031681565b60098181548110610c4a57600080fd5b60215481565b6000546001600160a01b03163314611918576040805162461bcd60e51b8152602060048201819052602482015260008051602061389d833981519152604482015290519081900360640190fd5b6001600160a01b03811661195d5760405162461bcd60e51b81526004018080602001828103825260268152602001806138066026913960400191505060405180910390fd5b600080546040516001600160a01b03808516939216917fea8258f2d9ddb679928cf34b78cf645b7feda9acc828e4dd82d014eaae270eba91a3600180546001600160a01b0319166001600160a01b0392909216919091179055565b6000546001600160a01b031690565b7f000000000000000000000000000000000000000000000000000000000000000081565b601e6020526000908152604090205460ff1681565b6001600160a01b03821660009081526004602052604081205460ff1615611398576002546040805163012b7f5760e21b81526001600160a01b038681166004830152915160009392909216916304adfd5c91602480820192602092909190829003018186803b158015611a7257600080fd5b505afa158015611a86573d6000803e3d6000fd5b505050506040513d6020811015611a9c57600080fd5b50516040805163313ce56760e01b81529051919250611bcb9160649161138b918591611bc5916001600160a01b038b169163313ce567916004808301926020929190829003018186803b158015611af257600080fd5b505afa158015611b06573d6000803e3d6000fd5b505050506040513d6020811015611b1c57600080fd5b50516040805163313ce56760e01b8152905160ff909216600a0a9161138b916001600160a01b037f0000000000000000000000000000000000000000000000000000000000000000169163313ce56791600480820192602092909190829003018186803b158015611b8c57600080fd5b505afa158015611ba0573d6000803e3d6000fd5b505050506040513d6020811015611bb657600080fd5b50518a9060ff16600a0a613299565b90613299565b915050611449565b6001546001600160a01b03163314611c1c5760405162461bcd60e51b815260040180806020018281038252602281526020018061385a6022913960400191505060405180910390fd5b600154600080546040516001600160a01b0393841693909116917faa151555690c956fc3ea32f106bb9f119b5237a061eaa8557cff3e51e3792c8d91a3600154600080546001600160a01b0319166001600160a01b03909216919091179055565b60046020526000908152604090205460ff1681565b336000908152601e602052604090205460ff16611ce5576040805162461bcd60e51b815260206004820152600c60248201526b139bdd08185c1c1c9bdd995960a21b604482015290519081900360640190fd5b611ced610ebc565b811115611d39576040805162461bcd60e51b8152602060048201526015602482015274496e73756666696369656e7420726573657276657360581b604482015290519081900360640190fd5b7f00000000000000000000000000000000000000000000000000000000000000006001600160a01b03166340c10f1983836040518363ffffffff1660e01b815260040180836001600160a01b0316815260200182815260200192505050600060405180830381600087803b158015611db057600080fd5b505af1158015611dc4573d6000803e3d6000fd5b50506040805184815290516001600160a01b03861693503392507ffa8ccab40e7da8146c2304cd0950334fd30a6ba093abe86261aa13911fed849c9181900360200190a35050565b60068181548110610c4a57600080fd5b60168181548110610c4a57600080fd5b60056020526000908152604090205481565b60198181548110610c4a57600080fd5b600a6020526000908152604090205460ff1681565b600e6020526000908152604090205481565b600f8181548110610c4a57600080fd5b60225481565b60086020526000908152604090205481565b60106020526000908152604090205460ff1681565b600d6020526000908152604090205460ff1681565b60186020526000908152604090205481565b60156020526000908152604090205481565b601d8181548110610c4a57600080fd5b6002546001600160a01b031681565b6001600160a01b03821660009081526004602052604081205460ff1680611f4957506001600160a01b0383166000908152600d602052604090205460ff165b611f89576040805162461bcd60e51b815260206004820152600c60248201526b139bdd081858d8d95c1d195960a21b604482015290519081900360640190fd5b611f9e6001600160a01b038416333087613334565b6001600160a01b03831660009081526004602052604090205460ff1615612017573360009081526007602052604090205460ff16612012576040805162461bcd60e51b815260206004820152600c60248201526b139bdd08185c1c1c9bdd995960a21b604482015290519081900360640190fd5b61206a565b3360009081526010602052604090205460ff1661206a576040805162461bcd60e51b815260206004820152600c60248201526b139bdd08185c1c1c9bdd995960a21b604482015290519081900360640190fd5b6000612076848661125b565b905061208281846131a6565b91507f00000000000000000000000000000000000000000000000000000000000000006001600160a01b03166340c10f1933846040518363ffffffff1660e01b815260040180836001600160a01b0316815260200182815260200192505050600060405180830381600087803b1580156120fb57600080fd5b505af115801561210f573d6000803e3d6000fd5b50505050600061211f8587611a00565b60225490915061212f908261323f565b60228190556040516000805160206138bd83398151915290600090a2604080518781526020810184905281516001600160a01b038816927f90890809c654f11d6e72a28fa60149770a0d11ec6c92319d6ceb2bb0a4ea1a15928290030190a250509392505050565b600b6020526000908152604090205481565b601b6020526000908152604090205481565b6000546001600160a01b03163314612208576040805162461bcd60e51b8152602060048201819052602482015260008051602061389d833981519152604482015290519081900360640190fd5b6001600160a01b03811661224d5760405162461bcd60e51b815260040180806020018281038252602e81526020018061382c602e913960400191505060405180910390fd5b600280546001600160a01b0319166001600160a01b0392909216919091179055565b60038181548110610c4a57600080fd5b7f000000000000000000000000000000000000000000000000000000000000000081565b336000908152601a602052604090205460ff166122f6576040805162461bcd60e51b815260206004820152600c60248201526b139bdd08185c1c1c9bdd995960a21b604482015290519081900360640190fd5b6001600160a01b03811660009081526004602052604090205460ff16612352576040805162461bcd60e51b815260206004820152600c60248201526b139bdd081858d8d95c1d195960a21b604482015290519081900360640190fd5b6123676001600160a01b038216333085613334565b6000612373828461125b565b336000908152601c602052604090205490915061239090826131a6565b336000908152601c60205260409020556023546123ad90826131a6565b6023556022546123bd908261323f565b60228190556040516000805160206138bd83398151915290600090a2604080518481526020810183905281516001600160a01b0385169233927fc6d98eecfc9c78ab62c89a82950079b54874749f1f6f24090f7acc758bc2f309929081900390910190a3505050565b60176020526000908152604090205460ff1681565b600080546001600160a01b03163314612489576040805162461bcd60e51b8152602060048201819052602482015260008051602061389d833981519152604482015290519081900360640190fd5b6001600160a01b03821661249c57600080fd5b60008360098111156124aa57fe5b14156124f8576124da437f000000000000000000000000000000000000000000000000000000000000000061323f565b6001600160a01b038316600090815260086020526040902055612835565b600183600981111561250657fe5b141561255457612536437f000000000000000000000000000000000000000000000000000000000000000061323f565b6001600160a01b0383166000908152600b6020526040902055612835565b600283600981111561256257fe5b14156125b057612592437f000000000000000000000000000000000000000000000000000000000000000061323f565b6001600160a01b038316600090815260056020526040902055612835565b60038360098111156125be57fe5b1415612617576125f96125f27f00000000000000000000000000000000000000000000000000000000000000006002613299565b439061323f565b6001600160a01b038316600090815260156020526040902055612835565b600483600981111561262557fe5b141561267357612655437f000000000000000000000000000000000000000000000000000000000000000061323f565b6001600160a01b038316600090815260116020526040902055612835565b600583600981111561268157fe5b14156126cf576126b1437f000000000000000000000000000000000000000000000000000000000000000061323f565b6001600160a01b0383166000908152600e6020526040902055612835565b60068360098111156126dd57fe5b141561272f576127116125f27f00000000000000000000000000000000000000000000000000000000000000006002613299565b6001600160a01b038316600090815260186020526040902055612835565b600783600981111561273d57fe5b141561278b5761276d437f000000000000000000000000000000000000000000000000000000000000000061323f565b6001600160a01b0383166000908152601b6020526040902055612835565b600883600981111561279957fe5b14156127e7576127c9437f000000000000000000000000000000000000000000000000000000000000000061323f565b6001600160a01b0383166000908152601f6020526040902055612835565b60098360098111156127f557fe5b141561282d57612825437f000000000000000000000000000000000000000000000000000000000000000061323f565b602155612835565b506000611449565b82600981111561284157fe5b604080516001600160a01b038516815290517f0e4f2c4b5bc209d509bc3d49348c787fefadc66a79351b470599ac0f5be52eaf9181900360200190a250600192915050565b60146020526000908152604090205460ff1681565b601a6020526000908152604090205460ff1681565b601f6020526000908152604090205481565b600080546001600160a01b03163314612910576040805162461bcd60e51b8152602060048201819052602482015260008051602061389d833981519152604482015290519081900360640190fd5b6001600160a01b03831661292357600080fd5b60008085600981111561293257fe5b14156129ee576129456008600786613394565b156129be576001600160a01b03841660009081526008602052604081205561296e60068561347e565b6129be57600680546001810182556000919091527ff652222313e28459528d920b65115c16c04f3efc82aaedc97be59f3f377c0d3f0180546001600160a01b0319166001600160a01b0386161790555b506001600160a01b0383166000908152600760205260409020805460ff81161560ff199091168117909155613120565b60018560098111156129fc57fe5b1415612ab857612a0f600b600a86613394565b15612a88576001600160a01b0384166000908152600b6020526040812055612a3860098561347e565b612a8857600980546001810182556000919091527f6e1540171b6c0c960b71a7020d9f60077f6af931a8bbf590da0223dacf75c7af0180546001600160a01b0319166001600160a01b0386161790555b506001600160a01b0383166000908152600a60205260409020805460ff81161560ff199091168117909155613120565b6002856009811115612ac657fe5b1415612b8257612ad96005600486613394565b15612b52576001600160a01b038416600090815260056020526040812055612b0260038561347e565b612b5257600380546001810182556000919091527fc2575a0e9e593c00f959f8c92f12db2869c3395a3b0502d05e2516446f71f85b0180546001600160a01b0319166001600160a01b0386161790555b506001600160a01b0383166000908152600460205260409020805460ff81161560ff199091168117909155613120565b6003856009811115612b9057fe5b1415612c8957612ba36015601486613394565b15612c5957601380546001810182557f66de8ffda797e3de9c05e8fc57b3bf0ec28a930d40b0d285d93c06501cf6a0900180546001600160a01b0319166001600160a01b038716908117909155600090815260156020526040812055612c09908561347e565b612c5957601380546001810182556000919091527f66de8ffda797e3de9c05e8fc57b3bf0ec28a930d40b0d285d93c06501cf6a0900180546001600160a01b0319166001600160a01b0386161790555b506001600160a01b0383166000908152601460205260409020805460ff81161560ff199091168117909155613120565b6004856009811115612c9757fe5b1415612d9057612caa6011601086613394565b15612d6057600f80546001810182557f8d1108e10bcb7c27dddfc02ed9d693a074039d026cf4ea4240b40f7d581ac8020180546001600160a01b0319166001600160a01b038716908117909155600090815260116020526040812055612d10908561347e565b612d6057600f80546001810182556000919091527f8d1108e10bcb7c27dddfc02ed9d693a074039d026cf4ea4240b40f7d581ac8020180546001600160a01b0319166001600160a01b0386161790555b506001600160a01b0383166000908152601060205260409020805460ff81161560ff199091168117909155613120565b6005856009811115612d9e57fe5b1415612e7c57612db1600e600d86613394565b15612e2a576001600160a01b0384166000908152600e6020526040812055612dda600c8561347e565b612e2a57600c80546001810182556000919091527fdf6966c971051c3d54ec59162606531493a51404a002842f56009d7e5cf4a8c70180546001600160a01b0319166001600160a01b0386161790555b506001600160a01b038381166000908152600d60209081526040808320805460ff81161560ff199091168117909155601290925290912080546001600160a01b03191692851692909217909155613120565b6006856009811115612e8a57fe5b1415612f4657612e9d6018601786613394565b15612f16576001600160a01b038416600090815260186020526040812055612ec660168561347e565b612f1657601680546001810182556000919091527fd833147d7dc355ba459fc788f669e58cfaf9dc25ddcd0702e87d69c7b51242890180546001600160a01b0319166001600160a01b0386161790555b506001600160a01b0383166000908152601760205260409020805460ff81161560ff199091168117909155613120565b6007856009811115612f5457fe5b141561301057612f67601b601a86613394565b15612fe0576001600160a01b0384166000908152601b6020526040812055612f9060198561347e565b612fe057601980546001810182556000919091527f944998273e477b495144fb8794c914197f3ccb46be2900f4698fd0ef743c96950180546001600160a01b0319166001600160a01b0386161790555b506001600160a01b0383166000908152601a60205260409020805460ff81161560ff199091168117909155613120565b600885600981111561301e57fe5b14156130da57613031601f601e86613394565b156130aa576001600160a01b0384166000908152601f602052604081205561305a601d8561347e565b6130aa57601d80546001810182556000919091527f6d4407e7be21f808e6509aa9fa9143369579dd7d760fe20a2c09680fc146134f0180546001600160a01b0319166001600160a01b0386161790555b506001600160a01b0383166000908152601e60205260409020805460ff81161560ff199091168117909155613120565b60098560098111156130e857fe5b141561311657506000602155602080546001600160a01b0319166001600160a01b0385161790556001613120565b6000915050613177565b84600981111561312c57fe5b604080516001600160a01b0387168152831515602082015281517f0dcacb7e392f3d6a216ed2660e3dcfd40b7793d33591db2ba185a6b8e44fc477929181900390910190a260019150505b9392505050565b60235481565b600c8181548110610c4a57600080fd5b60116020526000908152604090205481565b600061317783836040518060400160405280601e81526020017f536166654d6174683a207375627472616374696f6e206f766572666c6f7700008152506134ce565b604080516001600160a01b038416602482015260448082018490528251808303909101815260649091019091526020810180516001600160e01b031663a9059cbb60e01b17905261323a908490613565565b505050565b600082820183811015613177576040805162461bcd60e51b815260206004820152601b60248201527f536166654d6174683a206164646974696f6e206f766572666c6f770000000000604482015290519081900360640190fd5b6000826132a857506000611449565b828202828482816132b557fe5b04146131775760405162461bcd60e51b815260040180806020018281038252602181526020018061387c6021913960400191505060405180910390fd5b600061317783836040518060400160405280601a81526020017f536166654d6174683a206469766973696f6e206279207a65726f000000000000815250613616565b604080516001600160a01b0380861660248301528416604482015260648082018490528251808303909101815260849091019091526020810180516001600160e01b03166323b872dd60e01b17905261338e908590613565565b50505050565b6001600160a01b03811660009081526020839052604081205460ff16613474576001600160a01b03821660009081526020859052604090205461340b576040805162461bcd60e51b815260206004820152600a6024820152694d75737420717565756560b01b604482015290519081900360640190fd5b6001600160a01b03821660009081526020859052604090205443101561346c576040805162461bcd60e51b8152602060048201526011602482015270145d595d59481b9bdd08195e1c1a5c9959607a1b604482015290519081900360640190fd5b506001613177565b5060009392505050565b6000805b835481101561347457826001600160a01b03168482815481106134a157fe5b6000918252602090912001546001600160a01b031614156134c6576001915050611449565b600101613482565b6000818484111561355d5760405162461bcd60e51b81526004018080602001828103825283818151815260200191508051906020019080838360005b8381101561352257818101518382015260200161350a565b50505050905090810190601f16801561354f5780820380516001836020036101000a031916815260200191505b509250505060405180910390fd5b505050900390565b60606135ba826040518060400160405280602081526020017f5361666545524332303a206c6f772d6c6576656c2063616c6c206661696c6564815250856001600160a01b031661367b9092919063ffffffff16565b80519091501561323a578080602001905160208110156135d957600080fd5b505161323a5760405162461bcd60e51b815260040180806020018281038252602a8152602001806138dd602a913960400191505060405180910390fd5b600081836136655760405162461bcd60e51b815260206004820181815283516024840152835190928392604490910191908501908083836000831561352257818101518382015260200161350a565b50600083858161367157fe5b0495945050505050565b606061368a8484600085613692565b949350505050565b606061369d856137ff565b6136ee576040805162461bcd60e51b815260206004820152601d60248201527f416464726573733a2063616c6c20746f206e6f6e2d636f6e7472616374000000604482015290519081900360640190fd5b60006060866001600160a01b031685876040518082805190602001908083835b6020831061372d5780518252601f19909201916020918201910161370e565b6001836020036101000a03801982511681845116808217855250505050505090500191505060006040518083038185875af1925050503d806000811461378f576040519150601f19603f3d011682016040523d82523d6000602084013e613794565b606091505b509150915081156137a857915061368a9050565b8051156137b85780518082602001fd5b60405162461bcd60e51b815260206004820181815286516024840152865187939192839260440191908501908083836000831561352257818101518382015260200161350a565b3b15159056fe4f776e61626c653a206e6577206f776e657220697320746865207a65726f20616464726573737265736572766556616c756543616c63756c61746f722063616e6e6f74206265206e756c6c2061646472657373214f776e61626c653a206d757374206265206e6577206f776e657220746f2070756c6c536166654d6174683a206d756c7469706c69636174696f6e206f766572666c6f774f776e61626c653a2063616c6c6572206973206e6f7420746865206f776e657293bb8edd35984706eee1b92541281f7f62d33c01c5b2ec0929a113603bd21d665361666545524332303a204552433230206f7065726174696f6e20646964206e6f742073756363656564a264697066735822122031ca4cb48aa57fe3140ab7f6c6648967b279d71020eff65a531079b6e9c35ec464736f6c63430007050033",
  "linkReferences": {},
  "deployedLinkReferences": {}
}