{
  "_format": "hh-sol-artifact-1",
  "contractName": "StrikeBondDepository",
  "sourceName": "contracts/BondDepository.sol",
  "abi": [
    {
      "inputs": [
        {
          "internalType": "address",
          "name": "_Strike",
          "type": "address"
        },
        {
          "internalType": "address",
          "name": "_principle",
          "type": "address"
        },
        {
          "internalType": "address",
          "name": "_treasury",
          "type": "address"
        },
        {
          "internalType": "address",
          "name": "_DAO",
          "type": "address"
        },
        {
          "internalType": "address",
          "name": "_bondCalculator",
          "type": "address"
        }
      ],
      "stateMutability": "nonpayable",
      "type": "constructor"
    },
    {
      "anonymous": false,
      "inputs": [
        {
          "indexed": false,
          "internalType": "uint256",
          "name": "deposit",
          "type": "uint256"
        },
        {
          "indexed": true,
          "internalType": "uint256",
          "name": "payout",
          "type": "uint256"
        },
        {
          "indexed": true,
          "internalType": "uint256",
          "name": "expires",
          "type": "uint256"
        },
        {
          "indexed": true,
          "internalType": "uint256",
          "name": "priceInUSD",
          "type": "uint256"
        }
      ],
      "name": "BondCreated",
      "type": "event"
    },
    {
      "anonymous": false,
      "inputs": [
        {
          "indexed": true,
          "internalType": "uint256",
          "name": "priceInUSD",
          "type": "uint256"
        },
        {
          "indexed": true,
          "internalType": "uint256",
          "name": "internalPrice",
          "type": "uint256"
        },
        {
          "indexed": true,
          "internalType": "uint256",
          "name": "debtRatio",
          "type": "uint256"
        }
      ],
      "name": "BondPriceChanged",
      "type": "event"
    },
    {
      "anonymous": false,
      "inputs": [
        {
          "indexed": true,
          "internalType": "address",
          "name": "recipient",
          "type": "address"
        },
        {
          "indexed": false,
          "internalType": "uint256",
          "name": "payout",
          "type": "uint256"
        },
        {
          "indexed": false,
          "internalType": "uint256",
          "name": "remaining",
          "type": "uint256"
        }
      ],
      "name": "BondRedeemed",
      "type": "event"
    },
    {
      "anonymous": false,
      "inputs": [
        {
          "indexed": false,
          "internalType": "uint256",
          "name": "initialBCV",
          "type": "uint256"
        },
        {
          "indexed": false,
          "internalType": "uint256",
          "name": "newBCV",
          "type": "uint256"
        },
        {
          "indexed": false,
          "internalType": "uint256",
          "name": "adjustment",
          "type": "uint256"
        },
        {
          "indexed": false,
          "internalType": "bool",
          "name": "addition",
          "type": "bool"
        }
      ],
      "name": "ControlVariableAdjustment",
      "type": "event"
    },
    {
      "anonymous": false,
      "inputs": [
        {
          "indexed": true,
          "internalType": "address",
          "name": "previousOwner",
          "type": "address"
        },
        {
          "indexed": true,
          "internalType": "address",
          "name": "newOwner",
          "type": "address"
        }
      ],
      "name": "OwnershipPulled",
      "type": "event"
    },
    {
      "anonymous": false,
      "inputs": [
        {
          "indexed": true,
          "internalType": "address",
          "name": "previousOwner",
          "type": "address"
        },
        {
          "indexed": true,
          "internalType": "address",
          "name": "newOwner",
          "type": "address"
        }
      ],
      "name": "OwnershipPushed",
      "type": "event"
    },
    {
      "inputs": [],
      "name": "DAO",
      "outputs": [
        {
          "internalType": "address",
          "name": "",
          "type": "address"
        }
      ],
      "stateMutability": "view",
      "type": "function"
    },
    {
      "inputs": [],
      "name": "Strike",
      "outputs": [
        {
          "internalType": "address",
          "name": "",
          "type": "address"
        }
      ],
      "stateMutability": "view",
      "type": "function"
    },
    {
      "inputs": [],
      "name": "adjustment",
      "outputs": [
        {
          "internalType": "bool",
          "name": "add",
          "type": "bool"
        },
        {
          "internalType": "uint256",
          "name": "rate",
          "type": "uint256"
        },
        {
          "internalType": "uint256",
          "name": "target",
          "type": "uint256"
        },
        {
          "internalType": "uint32",
          "name": "buffer",
          "type": "uint32"
        },
        {
          "internalType": "uint32",
          "name": "lastTime",
          "type": "uint32"
        }
      ],
      "stateMutability": "view",
      "type": "function"
    },
    {
      "inputs": [],
      "name": "bondCalculator",
      "outputs": [
        {
          "internalType": "address",
          "name": "",
          "type": "address"
        }
      ],
      "stateMutability": "view",
      "type": "function"
    },
    {
      "inputs": [
        {
          "internalType": "address",
          "name": "",
          "type": "address"
        }
      ],
      "name": "bondInfo",
      "outputs": [
        {
          "internalType": "uint256",
          "name": "payout",
          "type": "uint256"
        },
        {
          "internalType": "uint256",
          "name": "pricePaid",
          "type": "uint256"
        },
        {
          "internalType": "uint32",
          "name": "lastTime",
          "type": "uint32"
        },
        {
          "internalType": "uint32",
          "name": "vesting",
          "type": "uint32"
        }
      ],
      "stateMutability": "view",
      "type": "function"
    },
    {
      "inputs": [],
      "name": "bondPrice",
      "outputs": [
        {
          "internalType": "uint256",
          "name": "price_",
          "type": "uint256"
        }
      ],
      "stateMutability": "view",
      "type": "function"
    },
    {
      "inputs": [],
      "name": "bondPriceInUSD",
      "outputs": [
        {
          "internalType": "uint256",
          "name": "price_",
          "type": "uint256"
        }
      ],
      "stateMutability": "view",
      "type": "function"
    },
    {
      "inputs": [],
      "name": "currentDebt",
      "outputs": [
        {
          "internalType": "uint256",
          "name": "",
          "type": "uint256"
        }
      ],
      "stateMutability": "view",
      "type": "function"
    },
    {
      "inputs": [],
      "name": "debtDecay",
      "outputs": [
        {
          "internalType": "uint256",
          "name": "decay_",
          "type": "uint256"
        }
      ],
      "stateMutability": "view",
      "type": "function"
    },
    {
      "inputs": [],
      "name": "debtRatio",
      "outputs": [
        {
          "internalType": "uint256",
          "name": "debtRatio_",
          "type": "uint256"
        }
      ],
      "stateMutability": "view",
      "type": "function"
    },
    {
      "inputs": [
        {
          "internalType": "uint256",
          "name": "_amount",
          "type": "uint256"
        },
        {
          "internalType": "uint256",
          "name": "_maxPrice",
          "type": "uint256"
        },
        {
          "internalType": "address",
          "name": "_depositor",
          "type": "address"
        }
      ],
      "name": "deposit",
      "outputs": [
        {
          "internalType": "uint256",
          "name": "",
          "type": "uint256"
        }
      ],
      "stateMutability": "nonpayable",
      "type": "function"
    },
    {
      "inputs": [
        {
          "internalType": "uint256",
          "name": "_controlVariable",
          "type": "uint256"
        },
        {
          "internalType": "uint256",
          "name": "_minimumPrice",
          "type": "uint256"
        },
        {
          "internalType": "uint256",
          "name": "_maxPayout",
          "type": "uint256"
        },
        {
          "internalType": "uint256",
          "name": "_fee",
          "type": "uint256"
        },
        {
          "internalType": "uint256",
          "name": "_maxDebt",
          "type": "uint256"
        },
        {
          "internalType": "uint256",
          "name": "_initialDebt",
          "type": "uint256"
        },
        {
          "internalType": "uint32",
          "name": "_vestingTerm",
          "type": "uint32"
        }
      ],
      "name": "initializeBondTerms",
      "outputs": [],
      "stateMutability": "nonpayable",
      "type": "function"
    },
    {
      "inputs": [],
      "name": "isLiquidityBond",
      "outputs": [
        {
          "internalType": "bool",
          "name": "",
          "type": "bool"
        }
      ],
      "stateMutability": "view",
      "type": "function"
    },
    {
      "inputs": [],
      "name": "lastDecay",
      "outputs": [
        {
          "internalType": "uint32",
          "name": "",
          "type": "uint32"
        }
      ],
      "stateMutability": "view",
      "type": "function"
    },
    {
      "inputs": [],
      "name": "maxPayout",
      "outputs": [
        {
          "internalType": "uint256",
          "name": "",
          "type": "uint256"
        }
      ],
      "stateMutability": "view",
      "type": "function"
    },
    {
      "inputs": [
        {
          "internalType": "uint256",
          "name": "_value",
          "type": "uint256"
        }
      ],
      "name": "payoutFor",
      "outputs": [
        {
          "internalType": "uint256",
          "name": "",
          "type": "uint256"
        }
      ],
      "stateMutability": "view",
      "type": "function"
    },
    {
      "inputs": [
        {
          "internalType": "address",
          "name": "_depositor",
          "type": "address"
        }
      ],
      "name": "pendingPayoutFor",
      "outputs": [
        {
          "internalType": "uint256",
          "name": "pendingPayout_",
          "type": "uint256"
        }
      ],
      "stateMutability": "view",
      "type": "function"
    },
    {
      "inputs": [
        {
          "internalType": "address",
          "name": "_depositor",
          "type": "address"
        }
      ],
      "name": "percentVestedFor",
      "outputs": [
        {
          "internalType": "uint256",
          "name": "percentVested_",
          "type": "uint256"
        }
      ],
      "stateMutability": "view",
      "type": "function"
    },
    {
      "inputs": [],
      "name": "policy",
      "outputs": [
        {
          "internalType": "address",
          "name": "",
          "type": "address"
        }
      ],
      "stateMutability": "view",
      "type": "function"
    },
    {
      "inputs": [],
      "name": "principle",
      "outputs": [
        {
          "internalType": "address",
          "name": "",
          "type": "address"
        }
      ],
      "stateMutability": "view",
      "type": "function"
    },
    {
      "inputs": [],
      "name": "pullManagement",
      "outputs": [],
      "stateMutability": "nonpayable",
      "type": "function"
    },
    {
      "inputs": [
        {
          "internalType": "address",
          "name": "newOwner_",
          "type": "address"
        }
      ],
      "name": "pushManagement",
      "outputs": [],
      "stateMutability": "nonpayable",
      "type": "function"
    },
    {
      "inputs": [
        {
          "internalType": "address",
          "name": "_token",
          "type": "address"
        }
      ],
      "name": "recoverLostToken",
      "outputs": [
        {
          "internalType": "bool",
          "name": "",
          "type": "bool"
        }
      ],
      "stateMutability": "nonpayable",
      "type": "function"
    },
    {
      "inputs": [
        {
          "internalType": "address",
          "name": "_recipient",
          "type": "address"
        },
        {
          "internalType": "bool",
          "name": "_stake",
          "type": "bool"
        }
      ],
      "name": "redeem",
      "outputs": [
        {
          "internalType": "uint256",
          "name": "",
          "type": "uint256"
        }
      ],
      "stateMutability": "nonpayable",
      "type": "function"
    },
    {
      "inputs": [],
      "name": "renounceManagement",
      "outputs": [],
      "stateMutability": "nonpayable",
      "type": "function"
    },
    {
      "inputs": [
        {
          "internalType": "bool",
          "name": "_addition",
          "type": "bool"
        },
        {
          "internalType": "uint256",
          "name": "_increment",
          "type": "uint256"
        },
        {
          "internalType": "uint256",
          "name": "_target",
          "type": "uint256"
        },
        {
          "internalType": "uint32",
          "name": "_buffer",
          "type": "uint32"
        }
      ],
      "name": "setAdjustment",
      "outputs": [],
      "stateMutability": "nonpayable",
      "type": "function"
    },
    {
      "inputs": [
        {
          "internalType": "enum StrikeBondDepository.PARAMETER",
          "name": "_parameter",
          "type": "uint8"
        },
        {
          "internalType": "uint256",
          "name": "_input",
          "type": "uint256"
        }
      ],
      "name": "setBondTerms",
      "outputs": [],
      "stateMutability": "nonpayable",
      "type": "function"
    },
    {
      "inputs": [
        {
          "internalType": "address",
          "name": "_staking",
          "type": "address"
        },
        {
          "internalType": "bool",
          "name": "_helper",
          "type": "bool"
        }
      ],
      "name": "setStaking",
      "outputs": [],
      "stateMutability": "nonpayable",
      "type": "function"
    },
    {
      "inputs": [],
      "name": "staking",
      "outputs": [
        {
          "internalType": "address",
          "name": "",
          "type": "address"
        }
      ],
      "stateMutability": "view",
      "type": "function"
    },
    {
      "inputs": [],
      "name": "stakingHelper",
      "outputs": [
        {
          "internalType": "address",
          "name": "",
          "type": "address"
        }
      ],
      "stateMutability": "view",
      "type": "function"
    },
    {
      "inputs": [],
      "name": "standardizedDebtRatio",
      "outputs": [
        {
          "internalType": "uint256",
          "name": "",
          "type": "uint256"
        }
      ],
      "stateMutability": "view",
      "type": "function"
    },
    {
      "inputs": [],
      "name": "terms",
      "outputs": [
        {
          "internalType": "uint256",
          "name": "controlVariable",
          "type": "uint256"
        },
        {
          "internalType": "uint256",
          "name": "minimumPrice",
          "type": "uint256"
        },
        {
          "internalType": "uint256",
          "name": "maxPayout",
          "type": "uint256"
        },
        {
          "internalType": "uint256",
          "name": "fee",
          "type": "uint256"
        },
        {
          "internalType": "uint256",
          "name": "maxDebt",
          "type": "uint256"
        },
        {
          "internalType": "uint32",
          "name": "vestingTerm",
          "type": "uint32"
        }
      ],
      "stateMutability": "view",
      "type": "function"
    },
    {
      "inputs": [],
      "name": "totalDebt",
      "outputs": [
        {
          "internalType": "uint256",
          "name": "",
          "type": "uint256"
        }
      ],
      "stateMutability": "view",
      "type": "function"
    },
    {
      "inputs": [],
      "name": "treasury",
      "outputs": [
        {
          "internalType": "address",
          "name": "",
          "type": "address"
        }
      ],
      "stateMutability": "view",
      "type": "function"
    },
    {
      "inputs": [],
      "name": "useHelper",
      "outputs": [
        {
          "internalType": "bool",
          "name": "",
          "type": "bool"
        }
      ],
      "stateMutability": "view",
      "type": "function"
    }
  ],
  "bytecode": "0x6101406040523480156200001257600080fd5b5060405162002ec238038062002ec2833981810160405260a08110156200003857600080fd5b50805160208201516040808401516060850151608090950151600080546001600160a01b031916331780825593519596949592949391926001600160a01b0392909216917fea8258f2d9ddb679928cf34b78cf645b7feda9acc828e4dd82d014eaae270eba908290a36001600160a01b038516620000b557600080fd5b6001600160601b0319606086901b166080526001600160a01b038416620000db57600080fd5b6001600160601b0319606085901b1660a0526001600160a01b0383166200010157600080fd5b6001600160601b0319606084901b1660c0526001600160a01b0382166200012757600080fd5b6001600160601b0319606092831b811660e0529181901b909116610120526001600160a01b0316151560f81b6101005250505060805160601c60a05160601c60c05160601c60e05160601c6101005160f81c6101205160601c612c946200022e60003980610e785280611633528061197a525080610e4a52806116025280611c8052508061147352806116fc52806118c7525080610db052806110e152806112e552806113c75250806105d55280610ea75280610f4e5280611110528061128c52806112b6528061139652806116625280611885525080610e245280611451528061184652806119d35280611cf55280611e945280611f79528061208e5250612c946000f3fe608060405234801561001057600080fd5b50600436106102115760003560e01c8063844b5c7c11610125578063cf37a891116100ad578063d7ccfb0b1161007c578063d7ccfb0b14610592578063e0176de81461059a578063e392a262146105a2578063f5c2ab5b146105aa578063fc7b9c18146105cb57610211565b8063cf37a891146104d4578063d4d863ce1461051b578063d502562514610549578063d79690601461058a57610211565b8063ae9832cf116100f4578063ae9832cf14610415578063b4abccba1461044c578063c5332b7c14610472578063cd1234b31461047a578063cea55f57146104cc57610211565b8063844b5c7c146103cb5780638dbdbe6d146103d3578063904b3ece1461040557806398fabd3a1461040d57610211565b806346f68ee9116101a857806361d027b31161017757806361d027b31461038e578063759076e51461039657806377b818951461039e5780637927ebf8146103a657806381531c64146103c357610211565b806346f68ee9146103325780634cf088d914610358578063507930ec146103605780635a96ac0a1461038657610211565b80631e321a0f116101e45780631e321a0f146102845780631feed31f146102aa5780632f3f470a146102d8578063451ee4a1146102f457610211565b8063016a42841461021657806301b88ee81461023a5780630505c8c914610272578063089208d81461027a575b600080fd5b61021e6105d3565b604080516001600160a01b039092168252519081900360200190f35b6102606004803603602081101561025057600080fd5b50356001600160a01b03166105f7565b60408051918252519081900360200190f35b61021e610650565b610282610660565b005b6102826004803603604081101561029a57600080fd5b5060ff81351690602001356106f7565b610260600480360360408110156102c057600080fd5b506001600160a01b03813516906020013515156108da565b6102e0610b2a565b604080519115158252519081900360200190f35b6102fc610b3a565b60408051951515865260208601949094528484019290925263ffffffff9081166060850152166080830152519081900360a00190f35b6102826004803603602081101561034857600080fd5b50356001600160a01b0316610b60565b61021e610c4d565b6102606004803603602081101561037657600080fd5b50356001600160a01b0316610c5c565b610282610d04565b61021e610dae565b610260610dd2565b61021e610ded565b610260600480360360208110156103bc57600080fd5b5035610dfc565b61021e610e22565b610260610e46565b610260600480360360608110156103e957600080fd5b50803590602081013590604001356001600160a01b0316610fdf565b6102606115fe565b61021e6116fa565b6102826004803603608081101561042b57600080fd5b5080351515906020810135906040810135906060013563ffffffff1661171e565b6102e06004803603602081101561046257600080fd5b50356001600160a01b0316611842565b61021e611978565b6104a06004803603602081101561049057600080fd5b50356001600160a01b031661199c565b60408051948552602085019390935263ffffffff91821684840152166060830152519081900360800190f35b6102606119ce565b610282600480360360e08110156104ea57600080fd5b5080359060208101359060408101359060608101359060808101359060a08101359060c0013563ffffffff16611a86565b6102826004803603604081101561053157600080fd5b506001600160a01b0381351690602001351515611ba0565b610551611c63565b604080519687526020870195909552858501939093526060850191909152608084015263ffffffff1660a0830152519081900360c00190f35b6102e0611c7e565b610260611ca2565b610260611ce1565b610260611d7e565b6105b2611dd7565b6040805163ffffffff9092168252519081900360200190f35b610260611de3565b7f000000000000000000000000000000000000000000000000000000000000000081565b60008061060383610c5c565b6001600160a01b0384166000908152600e6020526040902054909150612710821061063057809250610649565b6106466127106106408385611de9565b90611e49565b92505b5050919050565b6000546001600160a01b03165b90565b6000546001600160a01b031633146106ad576040805162461bcd60e51b81526020600482018190526024820152600080516020612bce833981519152604482015290519081900360640190fd5b600080546040516001600160a01b03909116907fea8258f2d9ddb679928cf34b78cf645b7feda9acc828e4dd82d014eaae270eba908390a3600080546001600160a01b0319169055565b6000546001600160a01b03163314610744576040805162461bcd60e51b81526020600482018190526024820152600080516020612bce833981519152604482015290519081900360640190fd5b600082600481111561075257fe5b14156107b4576201fa4081101561079a5760405162461bcd60e51b8152600401808060200182810382526024815260200180612c116024913960400191505060405180910390fd5b6009805463ffffffff191663ffffffff83161790556108d6565b60018260048111156107c257fe5b1415610829576103e881111561081f576040805162461bcd60e51b815260206004820181905260248201527f5061796f75742063616e6e6f742062652061626f766520312070657263656e74604482015290519081900360640190fd5b60068190556108d6565b600282600481111561083757fe5b141561089e57612710811115610894576040805162461bcd60e51b815260206004820152601c60248201527f44414f206665652063616e6e6f7420657863656564207061796f757400000000604482015290519081900360640190fd5b60078190556108d6565b60038260048111156108ac57fe5b14156108bc5760088190556108d6565b60048260048111156108ca57fe5b14156108d65760058190555b5050565b60006108e4612af8565b506001600160a01b0383166000908152600e602090815260408083208151608081018352815481526001820154938101939093526002015463ffffffff80821692840192909252600160201b90041660608201529061094285610c5c565b905061271081106109d7576001600160a01b0385166000818152600e6020908152604080832083815560018101849055600201805467ffffffffffffffff19169055855181519081529182019290925281517f51c99f515c87b0d95ba97f616edd182e8f161c4932eac17c6fefe9dab58b77b1929181900390910190a26109ce85858460000151611e8b565b92505050610b24565b81516000906109ee90612710906106409085611de9565b90506040518060800160405280610a1283866000015161218f90919063ffffffff16565b8152602001846020015181526020014263ffffffff168152602001610a66610a4d86604001514263ffffffff166121d190919063ffffffff16565b866060015163ffffffff166121d190919063ffffffff16565b63ffffffff9081169091526001600160a01b0388166000818152600e6020908152604091829020855180825586830151600183015586840151600290920180546060909801518716600160201b0267ffffffff00000000199390971663ffffffff19909816979097179190911694909417909455805185815293840192909252815190927f51c99f515c87b0d95ba97f616edd182e8f161c4932eac17c6fefe9dab58b77b192908290030190a2610b1e868683611e8b565b93505050505b92915050565b600354600160a01b900460ff1681565b600a54600b54600c54600d5460ff9093169263ffffffff80821691600160201b90041685565b6000546001600160a01b03163314610bad576040805162461bcd60e51b81526020600482018190526024820152600080516020612bce833981519152604482015290519081900360640190fd5b6001600160a01b038116610bf25760405162461bcd60e51b8152600401808060200182810382526026815260200180612b3f6026913960400191505060405180910390fd5b600080546040516001600160a01b03808516939216917fea8258f2d9ddb679928cf34b78cf645b7feda9acc828e4dd82d014eaae270eba91a3600180546001600160a01b0319166001600160a01b0392909216919091179055565b6002546001600160a01b031681565b6000610c66612af8565b506001600160a01b0382166000908152600e602090815260408083208151608081018352815481526001820154938101939093526002015463ffffffff808216928401839052600160201b90910481166060840152919291610ccc914282169161218f16565b606083015190915063ffffffff168015610cf757610cf08161064084612710611de9565b9350610cfc565b600093505b505050919050565b6001546001600160a01b03163314610d4d5760405162461bcd60e51b8152600401808060200182810382526022815260200180612b656022913960400191505060405180910390fd5b600154600080546040516001600160a01b0393841693909116917faa151555690c956fc3ea32f106bb9f119b5237a061eaa8557cff3e51e3792c8d91a3600154600080546001600160a01b0319166001600160a01b03909216919091179055565b7f000000000000000000000000000000000000000000000000000000000000000081565b6000610de8610ddf611d7e565b600f549061218f565b905090565b6003546001600160a01b031681565b6000610b24662386f26fc10000610640610e1d85610e18611ca2565b612213565b61238a565b7f000000000000000000000000000000000000000000000000000000000000000081565b60007f000000000000000000000000000000000000000000000000000000000000000015610f4457610f3d60646106407f00000000000000000000000000000000000000000000000000000000000000006001600160a01b03166332da80a37f00000000000000000000000000000000000000000000000000000000000000006040518263ffffffff1660e01b815260040180826001600160a01b0316815260200191505060206040518083038186803b158015610f0357600080fd5b505afa158015610f17573d6000803e3d6000fd5b505050506040513d6020811015610f2d57600080fd5b5051610f37611ca2565b90611de9565b905061065d565b610de860646106407f00000000000000000000000000000000000000000000000000000000000000006001600160a01b031663313ce5676040518163ffffffff1660e01b815260040160206040518083038186803b158015610fa557600080fd5b505afa158015610fb9573d6000803e3d6000fd5b505050506040513d6020811015610fcf57600080fd5b505160ff16600a0a610f37611ca2565b60006001600160a01b03821661102e576040805162461bcd60e51b815260206004820152600f60248201526e496e76616c6964206164647265737360881b604482015290519081900360640190fd5b6110366123a2565b600854600f541115611086576040805162461bcd60e51b815260206004820152601460248201527313585e0818d85c1858da5d1e481c995858da195960621b604482015290519081900360640190fd5b6000611090610e46565b9050600061109c6123c7565b9050808510156110dd5760405162461bcd60e51b8152600401808060200182810382526023815260200180612bee6023913960400191505060405180910390fd5b60007f00000000000000000000000000000000000000000000000000000000000000006001600160a01b0316631eec5a9a7f0000000000000000000000000000000000000000000000000000000000000000896040518363ffffffff1660e01b815260040180836001600160a01b031681526020018281526020019250505060206040518083038186803b15801561117457600080fd5b505afa158015611188573d6000803e3d6000fd5b505050506040513d602081101561119e57600080fd5b5051905060006111ad82610dfc565b9050629896808110156111f8576040805162461bcd60e51b815260206004820152600e60248201526d109bdb99081d1bdbc81cdb585b1b60921b604482015290519081900360640190fd5b611200611ce1565b811115611245576040805162461bcd60e51b815260206004820152600e60248201526d426f6e6420746f6f206c6172676560901b604482015290519081900360640190fd5b600061126561271061064060046003015485611de990919063ffffffff16565b9050600061127d82611277868661218f565b9061218f565b90506112b46001600160a01b037f00000000000000000000000000000000000000000000000000000000000000001633308d612409565b7f00000000000000000000000000000000000000000000000000000000000000006001600160a01b031663095ea7b37f00000000000000000000000000000000000000000000000000000000000000008c6040518363ffffffff1660e01b815260040180836001600160a01b0316815260200182815260200192505050602060405180830381600087803b15801561134b57600080fd5b505af115801561135f573d6000803e3d6000fd5b505050506040513d602081101561137557600080fd5b50506040805163bc157ac160e01b8152600481018c90526001600160a01b037f0000000000000000000000000000000000000000000000000000000000000000811660248301526044820184905291517f00000000000000000000000000000000000000000000000000000000000000009092169163bc157ac1916064808201926020929091908290030181600087803b15801561141257600080fd5b505af1158015611426573d6000803e3d6000fd5b505050506040513d602081101561143c57600080fd5b50508115611498576114986001600160a01b037f0000000000000000000000000000000000000000000000000000000000000000167f000000000000000000000000000000000000000000000000000000000000000084612469565b600f546114a590856124c0565b600f55604080516080810182526001600160a01b038a166000908152600e602052919091205481906114d790866124c0565b8152602080820189905263ffffffff428181166040808601919091526009805484166060968701526001600160a01b038f166000908152600e865282902087518155948701516001860155908601516002909401805496909501518316600160201b0267ffffffff000000001994841663ffffffff199097169690961793909316949094179092555488926115719290918116906124c016565b604080518d8152905186917f1fec6dc81f140574bf43f6b1e420ae1dd47928b9d57db8cbd7b8611063b85ae5919081900360200190a46115af6119ce565b6115b76123c7565b6115bf610e46565b6040517f375b221f40939bfd8f49723a17cf7bc6d576ebf72efe2cc3e991826f5b3f390a90600090a46115f061251a565b509098975050505050505050565b60007f0000000000000000000000000000000000000000000000000000000000000000156116f257610f3d633b9aca006106407f00000000000000000000000000000000000000000000000000000000000000006001600160a01b03166332da80a37f00000000000000000000000000000000000000000000000000000000000000006040518263ffffffff1660e01b815260040180826001600160a01b0316815260200191505060206040518083038186803b1580156116be57600080fd5b505afa1580156116d2573d6000803e3d6000fd5b505050506040513d60208110156116e857600080fd5b5051610f376119ce565b610f3d6119ce565b7f000000000000000000000000000000000000000000000000000000000000000081565b6000546001600160a01b0316331461176b576040805162461bcd60e51b81526020600482018190526024820152600080516020612bce833981519152604482015290519081900360640190fd5b600454611781906103e890610640906019611de9565b8311156117cb576040805162461bcd60e51b8152602060048201526013602482015272496e6372656d656e7420746f6f206c6172676560681b604482015290519081900360640190fd5b6040805160a0810182529415158086526020860185905290850183905263ffffffff91821660608601819052429092166080909501859052600a805460ff19169091179055600b92909255600c55600d805463ffffffff191690911767ffffffff000000001916600160201b909202919091179055565b60007f00000000000000000000000000000000000000000000000000000000000000006001600160a01b0316826001600160a01b0316141561188357600080fd5b7f00000000000000000000000000000000000000000000000000000000000000006001600160a01b0316826001600160a01b031614156118c257600080fd5b6119707f0000000000000000000000000000000000000000000000000000000000000000836001600160a01b03166370a08231306040518263ffffffff1660e01b815260040180826001600160a01b0316815260200191505060206040518083038186803b15801561193357600080fd5b505afa158015611947573d6000803e3d6000fd5b505050506040513d602081101561195d57600080fd5b50516001600160a01b0385169190612469565b506001919050565b7f000000000000000000000000000000000000000000000000000000000000000081565b600e6020526000908152604090208054600182015460029092015490919063ffffffff80821691600160201b90041684565b6000807f00000000000000000000000000000000000000000000000000000000000000006001600160a01b03166318160ddd6040518163ffffffff1660e01b815260040160206040518083038186803b158015611a2a57600080fd5b505afa158015611a3e573d6000803e3d6000fd5b505050506040513d6020811015611a5457600080fd5b50519050611a80670de0b6b3a7640000610640610e1d611a7a633b9aca00610f37610dd2565b85612213565b91505090565b6000546001600160a01b03163314611ad3576040805162461bcd60e51b81526020600482018190526024820152600080516020612bce833981519152604482015290519081900360640190fd5b60045415611b28576040805162461bcd60e51b815260206004820181905260248201527f426f6e6473206d75737420626520696e697469616c697a65642066726f6d2030604482015290519081900360640190fd5b6040805160c08101825288815260208101889052908101869052606081018590526080810184905263ffffffff91821660a09091018190526004979097556005959095556006939093556007919091556008556009805463ffffffff199081169094179055600f556010805490921642909116179055565b6000546001600160a01b03163314611bed576040805162461bcd60e51b81526020600482018190526024820152600080516020612bce833981519152604482015290519081900360640190fd5b6001600160a01b038216611c0057600080fd5b8015611c355760038054600160a01b60ff60a01b19909116176001600160a01b0319166001600160a01b0384161790556108d6565b6003805460ff60a01b19169055600280546001600160a01b0384166001600160a01b03199091161790555050565b60045460055460065460075460085460095463ffffffff1686565b7f000000000000000000000000000000000000000000000000000000000000000081565b6000611ccd62989680610640633b9aca00611cc7611cbe6119ce565b60045490611de9565b906124c0565b60055490915081101561065d575060055490565b6000610de8620186a06106406004600201547f00000000000000000000000000000000000000000000000000000000000000006001600160a01b03166318160ddd6040518163ffffffff1660e01b815260040160206040518083038186803b158015611d4c57600080fd5b505afa158015611d60573d6000803e3d6000fd5b505050506040513d6020811015611d7657600080fd5b505190611de9565b6010546000908190611d9c9063ffffffff428116918116906121d116565b600954600f54919250611dc19163ffffffff91821691610640919080861690611de916565b9150600f54821115611dd357600f5491505b5090565b60105463ffffffff1681565b600f5481565b600082611df857506000610b24565b82820282848281611e0557fe5b0414611e425760405162461bcd60e51b8152600401808060200182810382526021815260200180612bad6021913960400191505060405180910390fd5b9392505050565b6000611e4283836040518060400160405280601a81526020017f536166654d6174683a206469766973696f6e206279207a65726f000000000000815250612625565b600082611f3b577f00000000000000000000000000000000000000000000000000000000000000006001600160a01b031663a9059cbb85846040518363ffffffff1660e01b815260040180836001600160a01b0316815260200182815260200192505050602060405180830381600087803b158015611f0957600080fd5b505af1158015611f1d573d6000803e3d6000fd5b505050506040513d6020811015611f3357600080fd5b506121889050565b600354600160a01b900460ff1615612062576003546040805163095ea7b360e01b81526001600160a01b0392831660048201526024810185905290517f00000000000000000000000000000000000000000000000000000000000000009092169163095ea7b3916044808201926020929091908290030181600087803b158015611fc457600080fd5b505af1158015611fd8573d6000803e3d6000fd5b505050506040513d6020811015611fee57600080fd5b505060035460408051637acb775760e01b8152600481018590526001600160a01b03878116602483015291519190921691637acb775791604480830192600092919082900301818387803b15801561204557600080fd5b505af1158015612059573d6000803e3d6000fd5b50505050612188565b6002546040805163095ea7b360e01b81526001600160a01b0392831660048201526024810185905290517f00000000000000000000000000000000000000000000000000000000000000009092169163095ea7b3916044808201926020929091908290030181600087803b1580156120d957600080fd5b505af11580156120ed573d6000803e3d6000fd5b505050506040513d602081101561210357600080fd5b505060025460408051637acb775760e01b8152600481018590526001600160a01b03878116602483015291519190921691637acb77579160448083019260209291908290030181600087803b15801561215b57600080fd5b505af115801561216f573d6000803e3d6000fd5b505050506040513d602081101561218557600080fd5b50505b5092915050565b6000611e4283836040518060400160405280601e81526020017f536166654d6174683a207375627472616374696f6e206f766572666c6f7700008152506126c7565b6000611e4283836040518060400160405280601e81526020017f536166654d6174683a207375627472616374696f6e206f766572666c6f770000815250612721565b61221b612b2c565b6000821161225a5760405162461bcd60e51b8152600401808060200182810382526026815260200180612b876026913960400191505060405180910390fd5b826122745750604080516020810190915260008152610b24565b71ffffffffffffffffffffffffffffffffffff831161231b57600082607085901b8161229c57fe5b0490506001600160e01b038111156122fb576040805162461bcd60e51b815260206004820152601e60248201527f4669786564506f696e743a3a6672616374696f6e3a206f766572666c6f770000604482015290519081900360640190fd5b6040518060200160405280826001600160e01b0316815250915050610b24565b600061232c84600160701b85612780565b90506001600160e01b038111156122fb576040805162461bcd60e51b815260206004820152601e60248201527f4669786564506f696e743a3a6672616374696f6e3a206f766572666c6f770000604482015290519081900360640190fd5b516612725dd1d243ab6001600160e01b039091160490565b6123ad610ddf611d7e565b600f556010805463ffffffff19164263ffffffff16179055565b60006123e362989680610640633b9aca00611cc7611cbe6119ce565b6005549091508110156123f9575060055461065d565b6005541561065d57600060055590565b604080516001600160a01b0380861660248301528416604482015260648082018490528251808303909101815260849091019091526020810180516001600160e01b03166323b872dd60e01b179052612463908590612820565b50505050565b604080516001600160a01b038416602482015260448082018490528251808303909101815260649091019091526020810180516001600160e01b031663a9059cbb60e01b1790526124bb908490612820565b505050565b600082820183811015611e42576040805162461bcd60e51b815260206004820152601b60248201527f536166654d6174683a206164646974696f6e206f766572666c6f770000000000604482015290519081900360640190fd5b600d5460009061253c9063ffffffff600160201b82048116918116906124c016565b600b54909150158015906125505750804210155b1561262257600454600a5460ff161561258a57600b54600454612572916124c0565b6004819055600c5411612585576000600b555b6125ac565b600b546004546125999161218f565b6004819055600c54106125ac576000600b555b600d805467ffffffff000000001916600160201b4263ffffffff1602179055600454600b54600a546040805185815260208101949094528381019290925260ff1615156060830152517fb923e581a0f83128e9e1d8297aa52b18d6744310476e0b54509c054cd7a93b2a916080908290030190a1505b50565b600081836126b15760405162461bcd60e51b81526004018080602001828103825283818151815260200191508051906020019080838360005b8381101561267657818101518382015260200161265e565b50505050905090810190601f1680156126a35780820380516001836020036101000a031916815260200191505b509250505060405180910390fd5b5060008385816126bd57fe5b0495945050505050565b600081848411156127195760405162461bcd60e51b815260206004820181815283516024840152835190928392604490910191908501908083836000831561267657818101518382015260200161265e565b505050900390565b60008363ffffffff168363ffffffff16111582906127195760405162461bcd60e51b815260206004820181815283516024840152835190928392604490910191908501908083836000831561267657818101518382015260200161265e565b600080600061278f86866128d1565b915091506000848061279d57fe5b8688099050828111156127b1576001820391505b808303925084821061280a576040805162461bcd60e51b815260206004820152601a60248201527f46756c6c4d6174683a3a6d756c4469763a206f766572666c6f77000000000000604482015290519081900360640190fd5b6128158383876128fe565b979650505050505050565b6060612875826040518060400160405280602081526020017f5361666545524332303a206c6f772d6c6576656c2063616c6c206661696c6564815250856001600160a01b031661296e9092919063ffffffff16565b8051909150156124bb5780806020019051602081101561289457600080fd5b50516124bb5760405162461bcd60e51b815260040180806020018281038252602a815260200180612c35602a913960400191505060405180910390fd5b60008080600019848609905083850292508281039150828110156128f6576001820391505b509250929050565b6000818103821680838161290e57fe5b04925080858161291a57fe5b04945080816000038161292957fe5b60028581038087028203028087028203028087028203028087028203028087028203028087028203029586029003909402930460010193909302939093010292915050565b606061297d8484600085612985565b949350505050565b606061299085612af2565b6129e1576040805162461bcd60e51b815260206004820152601d60248201527f416464726573733a2063616c6c20746f206e6f6e2d636f6e7472616374000000604482015290519081900360640190fd5b60006060866001600160a01b031685876040518082805190602001908083835b60208310612a205780518252601f199092019160209182019101612a01565b6001836020036101000a03801982511681845116808217855250505050505090500191505060006040518083038185875af1925050503d8060008114612a82576040519150601f19603f3d011682016040523d82523d6000602084013e612a87565b606091505b50915091508115612a9b57915061297d9050565b805115612aab5780518082602001fd5b60405162461bcd60e51b815260206004820181815286516024840152865187939192839260440191908501908083836000831561267657818101518382015260200161265e565b3b151590565b60405180608001604052806000815260200160008152602001600063ffffffff168152602001600063ffffffff1681525090565b6040805160208101909152600081529056fe4f776e61626c653a206e6577206f776e657220697320746865207a65726f20616464726573734f776e61626c653a206d757374206265206e6577206f776e657220746f2070756c6c4669786564506f696e743a3a6672616374696f6e3a206469766973696f6e206279207a65726f536166654d6174683a206d756c7469706c69636174696f6e206f766572666c6f774f776e61626c653a2063616c6c6572206973206e6f7420746865206f776e6572536c697070616765206c696d69743a206d6f7265207468616e206d617820707269636556657374696e67206d757374206265206c6f6e676572207468616e20333620686f7572735361666545524332303a204552433230206f7065726174696f6e20646964206e6f742073756363656564a2646970667358221220e3c8afc7d302b369304a0fe97380888a1eac832442b3fd11375e15e600f38b8964736f6c63430007050033",
  "linkReferences": {},
  "deployedLinkReferences": {}
}